{
  "contracts/AMA.sol": {
    "AMA": {
      "abi": [
        {
          "inputs": [
            {
              "internalType": "address",
              "name": "_verifier",
              "type": "address"
            }
          ],
          "stateMutability": "nonpayable",
          "type": "constructor"
        },
        {
          "anonymous": false,
          "inputs": [
            {
              "indexed": true,
              "internalType": "uint256",
              "name": "sessionId",
              "type": "uint256"
            }
          ],
          "name": "AmaSessionCreated",
          "type": "event"
        },
        {
          "anonymous": false,
          "inputs": [
            {
              "indexed": false,
              "internalType": "uint256",
              "name": "sessionId",
              "type": "uint256"
            },
            {
              "indexed": false,
              "internalType": "uint256",
              "name": "statusId",
              "type": "uint256"
            }
          ],
          "name": "AmaSessionStatusChanged",
          "type": "event"
        },
        {
          "anonymous": false,
          "inputs": [
            {
              "indexed": false,
              "internalType": "uint256",
              "name": "newFee",
              "type": "uint256"
            }
          ],
          "name": "FeeChanged",
          "type": "event"
        },
        {
          "anonymous": false,
          "inputs": [
            {
              "indexed": true,
              "internalType": "uint256",
              "name": "groupId",
              "type": "uint256"
            },
            {
              "indexed": false,
              "internalType": "uint8",
              "name": "depth",
              "type": "uint8"
            },
            {
              "indexed": false,
              "internalType": "uint256",
              "name": "zeroValue",
              "type": "uint256"
            }
          ],
          "name": "GroupCreated",
          "type": "event"
        },
        {
          "anonymous": false,
          "inputs": [
            {
              "indexed": true,
              "internalType": "uint256",
              "name": "groupId",
              "type": "uint256"
            },
            {
              "indexed": false,
              "internalType": "uint256",
              "name": "identityCommitment",
              "type": "uint256"
            },
            {
              "indexed": false,
              "internalType": "uint256",
              "name": "root",
              "type": "uint256"
            }
          ],
          "name": "MemberAdded",
          "type": "event"
        },
        {
          "anonymous": false,
          "inputs": [
            {
              "indexed": true,
              "internalType": "uint256",
              "name": "groupId",
              "type": "uint256"
            },
            {
              "indexed": false,
              "internalType": "uint256",
              "name": "identityCommitment",
              "type": "uint256"
            },
            {
              "indexed": false,
              "internalType": "uint256",
              "name": "root",
              "type": "uint256"
            }
          ],
          "name": "MemberRemoved",
          "type": "event"
        },
        {
          "anonymous": false,
          "inputs": [
            {
              "indexed": false,
              "internalType": "uint256",
              "name": "sessionId",
              "type": "uint256"
            },
            {
              "indexed": false,
              "internalType": "uint256",
              "name": "questionId",
              "type": "uint256"
            },
            {
              "indexed": false,
              "internalType": "bytes32",
              "name": "signal",
              "type": "bytes32"
            }
          ],
          "name": "NewQuestion",
          "type": "event"
        },
        {
          "anonymous": false,
          "inputs": [
            {
              "indexed": false,
              "internalType": "uint256",
              "name": "nullifierHash",
              "type": "uint256"
            }
          ],
          "name": "NullifierHashAdded",
          "type": "event"
        },
        {
          "anonymous": false,
          "inputs": [
            {
              "indexed": true,
              "internalType": "address",
              "name": "previousOwner",
              "type": "address"
            },
            {
              "indexed": true,
              "internalType": "address",
              "name": "newOwner",
              "type": "address"
            }
          ],
          "name": "OwnershipTransferred",
          "type": "event"
        },
        {
          "anonymous": false,
          "inputs": [
            {
              "indexed": false,
              "internalType": "uint256",
              "name": "sessionId",
              "type": "uint256"
            },
            {
              "indexed": false,
              "internalType": "uint256",
              "name": "questionId",
              "type": "uint256"
            },
            {
              "indexed": false,
              "internalType": "uint256",
              "name": "votes",
              "type": "uint256"
            }
          ],
          "name": "QuestionVoted",
          "type": "event"
        },
        {
          "anonymous": false,
          "inputs": [
            {
              "indexed": true,
              "internalType": "uint256",
              "name": "sessionId",
              "type": "uint256"
            },
            {
              "indexed": false,
              "internalType": "uint256",
              "name": "identityCommitment",
              "type": "uint256"
            }
          ],
          "name": "UserJoinedAmaSession",
          "type": "event"
        },
        {
          "anonymous": false,
          "inputs": [
            {
              "indexed": true,
              "internalType": "uint256",
              "name": "sessionId",
              "type": "uint256"
            },
            {
              "indexed": false,
              "internalType": "uint256",
              "name": "identityCommitment",
              "type": "uint256"
            }
          ],
          "name": "UserLeftAmaSession",
          "type": "event"
        },
        {
          "stateMutability": "payable",
          "type": "fallback"
        },
        {
          "inputs": [
            {
              "internalType": "uint256",
              "name": "",
              "type": "uint256"
            },
            {
              "internalType": "uint256",
              "name": "",
              "type": "uint256"
            }
          ],
          "name": "amaSessionIdentityCommitments",
          "outputs": [
            {
              "internalType": "uint256",
              "name": "",
              "type": "uint256"
            }
          ],
          "stateMutability": "view",
          "type": "function"
        },
        {
          "inputs": [
            {
              "internalType": "bytes32",
              "name": "",
              "type": "bytes32"
            }
          ],
          "name": "amaSessionQuestion",
          "outputs": [
            {
              "internalType": "uint256",
              "name": "questionId",
              "type": "uint256"
            },
            {
              "internalType": "uint256",
              "name": "votes",
              "type": "uint256"
            }
          ],
          "stateMutability": "view",
          "type": "function"
        },
        {
          "inputs": [
            {
              "internalType": "uint256",
              "name": "",
              "type": "uint256"
            },
            {
              "internalType": "uint256",
              "name": "",
              "type": "uint256"
            }
          ],
          "name": "amaSessionQuestionList",
          "outputs": [
            {
              "internalType": "uint256",
              "name": "",
              "type": "uint256"
            }
          ],
          "stateMutability": "view",
          "type": "function"
        },
        {
          "inputs": [
            {
              "internalType": "uint256",
              "name": "",
              "type": "uint256"
            }
          ],
          "name": "amaSessions",
          "outputs": [
            {
              "internalType": "uint256",
              "name": "sessionId",
              "type": "uint256"
            },
            {
              "internalType": "address",
              "name": "owner",
              "type": "address"
            },
            {
              "internalType": "uint256",
              "name": "state",
              "type": "uint256"
            }
          ],
          "stateMutability": "view",
          "type": "function"
        },
        {
          "inputs": [
            {
              "internalType": "uint256",
              "name": "_fee",
              "type": "uint256"
            }
          ],
          "name": "changeFee",
          "outputs": [],
          "stateMutability": "nonpayable",
          "type": "function"
        },
        {
          "inputs": [
            {
              "internalType": "uint256",
              "name": "sessionId",
              "type": "uint256"
            }
          ],
          "name": "createAmaSession",
          "outputs": [],
          "stateMutability": "payable",
          "type": "function"
        },
        {
          "inputs": [
            {
              "internalType": "uint256",
              "name": "sessionId",
              "type": "uint256"
            }
          ],
          "name": "endAmaSession",
          "outputs": [],
          "stateMutability": "nonpayable",
          "type": "function"
        },
        {
          "inputs": [],
          "name": "getAvailableFunds",
          "outputs": [
            {
              "internalType": "uint256",
              "name": "",
              "type": "uint256"
            }
          ],
          "stateMutability": "view",
          "type": "function"
        },
        {
          "inputs": [
            {
              "internalType": "uint256",
              "name": "groupId",
              "type": "uint256"
            }
          ],
          "name": "getDepth",
          "outputs": [
            {
              "internalType": "uint8",
              "name": "",
              "type": "uint8"
            }
          ],
          "stateMutability": "view",
          "type": "function"
        },
        {
          "inputs": [],
          "name": "getFee",
          "outputs": [
            {
              "internalType": "uint256",
              "name": "",
              "type": "uint256"
            }
          ],
          "stateMutability": "view",
          "type": "function"
        },
        {
          "inputs": [
            {
              "internalType": "uint256",
              "name": "sessionId",
              "type": "uint256"
            }
          ],
          "name": "getIdentityCommitments",
          "outputs": [
            {
              "internalType": "uint256[]",
              "name": "",
              "type": "uint256[]"
            }
          ],
          "stateMutability": "view",
          "type": "function"
        },
        {
          "inputs": [
            {
              "internalType": "uint256",
              "name": "groupId",
              "type": "uint256"
            }
          ],
          "name": "getNumberOfLeaves",
          "outputs": [
            {
              "internalType": "uint256",
              "name": "",
              "type": "uint256"
            }
          ],
          "stateMutability": "view",
          "type": "function"
        },
        {
          "inputs": [],
          "name": "getOwnerBalance",
          "outputs": [
            {
              "internalType": "uint256",
              "name": "",
              "type": "uint256"
            }
          ],
          "stateMutability": "view",
          "type": "function"
        },
        {
          "inputs": [
            {
              "internalType": "uint256",
              "name": "groupId",
              "type": "uint256"
            }
          ],
          "name": "getRoot",
          "outputs": [
            {
              "internalType": "uint256",
              "name": "",
              "type": "uint256"
            }
          ],
          "stateMutability": "view",
          "type": "function"
        },
        {
          "inputs": [
            {
              "internalType": "uint256",
              "name": "sessionId",
              "type": "uint256"
            },
            {
              "internalType": "uint256",
              "name": "identityCommitment",
              "type": "uint256"
            }
          ],
          "name": "joinAmaSession",
          "outputs": [],
          "stateMutability": "nonpayable",
          "type": "function"
        },
        {
          "inputs": [],
          "name": "owner",
          "outputs": [
            {
              "internalType": "address",
              "name": "",
              "type": "address"
            }
          ],
          "stateMutability": "view",
          "type": "function"
        },
        {
          "inputs": [
            {
              "internalType": "uint256",
              "name": "sessionId",
              "type": "uint256"
            }
          ],
          "name": "pauseAmaSession",
          "outputs": [],
          "stateMutability": "nonpayable",
          "type": "function"
        },
        {
          "inputs": [
            {
              "internalType": "uint256",
              "name": "sessionId",
              "type": "uint256"
            },
            {
              "internalType": "uint256",
              "name": "questionId",
              "type": "uint256"
            },
            {
              "internalType": "bytes32",
              "name": "signal",
              "type": "bytes32"
            },
            {
              "internalType": "uint256",
              "name": "root",
              "type": "uint256"
            },
            {
              "internalType": "uint256",
              "name": "nullifierHash",
              "type": "uint256"
            },
            {
              "internalType": "uint256",
              "name": "externalNullifier",
              "type": "uint256"
            },
            {
              "internalType": "uint256[8]",
              "name": "proof",
              "type": "uint256[8]"
            }
          ],
          "name": "postQuestion",
          "outputs": [],
          "stateMutability": "nonpayable",
          "type": "function"
        },
        {
          "inputs": [],
          "name": "renounceOwnership",
          "outputs": [],
          "stateMutability": "nonpayable",
          "type": "function"
        },
        {
          "inputs": [
            {
              "internalType": "uint256",
              "name": "sessionId",
              "type": "uint256"
            }
          ],
          "name": "resumeAmaSession",
          "outputs": [],
          "stateMutability": "nonpayable",
          "type": "function"
        },
        {
          "inputs": [
            {
              "internalType": "uint256",
              "name": "sessionId",
              "type": "uint256"
            }
          ],
          "name": "startAmaSession",
          "outputs": [],
          "stateMutability": "nonpayable",
          "type": "function"
        },
        {
          "inputs": [
            {
              "internalType": "address",
              "name": "newOwner",
              "type": "address"
            }
          ],
          "name": "transferOwnership",
          "outputs": [],
          "stateMutability": "nonpayable",
          "type": "function"
        },
        {
          "inputs": [],
          "name": "verifier",
          "outputs": [
            {
              "internalType": "contract IVerifier",
              "name": "",
              "type": "address"
            }
          ],
          "stateMutability": "view",
          "type": "function"
        },
        {
          "inputs": [
            {
              "internalType": "uint256",
              "name": "sessionId",
              "type": "uint256"
            },
            {
              "internalType": "uint256",
              "name": "questionId",
              "type": "uint256"
            },
            {
              "internalType": "bytes32",
              "name": "signal",
              "type": "bytes32"
            },
            {
              "internalType": "uint256",
              "name": "root",
              "type": "uint256"
            },
            {
              "internalType": "uint256",
              "name": "nullifierHash",
              "type": "uint256"
            },
            {
              "internalType": "uint256",
              "name": "externalNullifier",
              "type": "uint256"
            },
            {
              "internalType": "uint256[8]",
              "name": "proof",
              "type": "uint256[8]"
            }
          ],
          "name": "voteQuestion",
          "outputs": [
            {
              "internalType": "uint256",
              "name": "",
              "type": "uint256"
            },
            {
              "internalType": "uint256",
              "name": "",
              "type": "uint256"
            }
          ],
          "stateMutability": "nonpayable",
          "type": "function"
        },
        {
          "inputs": [],
          "name": "withdrawFunds",
          "outputs": [
            {
              "internalType": "uint256",
              "name": "",
              "type": "uint256"
            }
          ],
          "stateMutability": "nonpayable",
          "type": "function"
        },
        {
          "stateMutability": "payable",
          "type": "receive"
        }
      ],
      "evm": {
        "bytecode": {
          "linkReferences": {
            "@zk-kit/incremental-merkle-tree.sol/contracts/IncrementalBinaryTree.sol": {
              "IncrementalBinaryTree": [
                {
                  "length": 20,
                  "start": 8651
                },
                {
                  "length": 20,
                  "start": 9226
                }
              ]
            }
          },
          "object": "6080604052662386f26fc100006007553480156200001c57600080fd5b506040516200367a3803806200367a83398181016040528101906200004291906200018f565b6200006262000056620000aa60201b60201c565b620000b260201b60201c565b80600860006101000a81548173ffffffffffffffffffffffffffffffffffffffff021916908373ffffffffffffffffffffffffffffffffffffffff1602179055505062000209565b600033905090565b6000600260009054906101000a900473ffffffffffffffffffffffffffffffffffffffff16905081600260006101000a81548173ffffffffffffffffffffffffffffffffffffffff021916908373ffffffffffffffffffffffffffffffffffffffff1602179055508173ffffffffffffffffffffffffffffffffffffffff168173ffffffffffffffffffffffffffffffffffffffff167f8be0079c531659141344cd1fd0a4f28419497f9722a3daafe3b4186f6b6457e060405160405180910390a35050565b6000815190506200018981620001ef565b92915050565b600060208284031215620001a257600080fd5b6000620001b28482850162000178565b91505092915050565b6000620001c882620001cf565b9050919050565b600073ffffffffffffffffffffffffffffffffffffffff82169050919050565b620001fa81620001bb565b81146200020657600080fd5b50565b61346180620002196000396000f3fe60806040526004361061016a5760003560e01c80637178fbfd116100d1578063b9c78c2b1161008a578063ced72f8711610064578063ced72f871461055e578063e2a1e28514610589578063f2fde38b146105b2578063f6bb7354146105db57610171565b8063b9c78c2b146104c6578063bb4446af14610503578063bc466a091461054257610171565b80637178fbfd14610392578063758dd195146103cf57806375e618c9146103f85780638da5cb5b146104355780639b24b3b014610460578063ad98ac801461049d57610171565b8063542a4b9611610123578063542a4b9614610298578063590791f2146102c157806369f819df146102ec5780636a1db1bf146103295780636f38db4f14610352578063715018a61461037b57610171565b806308cc30d8146101735780630950371f146101b15780631582fab1146101ee57806324600fc3146102175780632b7ac3f3146102425780635195bd291461026d57610171565b3661017157005b005b34801561017f57600080fd5b5061019a60048036038101906101959190612423565b610619565b6040516101a8929190612ccd565b60405180910390f35b3480156101bd57600080fd5b506101d860048036038101906101d391906123be565b610869565b6040516101e591906129fe565b60405180910390f35b3480156101fa57600080fd5b50610215600480360381019061021091906123be565b6108d4565b005b34801561022357600080fd5b5061022c610a7a565b6040516102399190612c7b565b60405180910390f35b34801561024e57600080fd5b50610257610b4c565b6040516102649190612a20565b60405180910390f35b34801561027957600080fd5b50610282610b72565b60405161028f9190612c7b565b60405180910390f35b3480156102a457600080fd5b506102bf60048036038101906102ba91906123e7565b610bf6565b005b3480156102cd57600080fd5b506102d6610d99565b6040516102e39190612c7b565b60405180910390f35b3480156102f857600080fd5b50610313600480360381019061030e91906123e7565b610e3b565b6040516103209190612c7b565b60405180910390f35b34801561033557600080fd5b50610350600480360381019061034b91906123be565b610e6c565b005b34801561035e57600080fd5b50610379600480360381019061037491906123be565b610f29565b005b34801561038757600080fd5b50610390611129565b005b34801561039e57600080fd5b506103b960048036038101906103b491906123e7565b6111b1565b6040516103c69190612c7b565b60405180910390f35b3480156103db57600080fd5b506103f660048036038101906103f191906123be565b6111e2565b005b34801561040457600080fd5b5061041f600480360381019061041a91906123be565b6113e2565b60405161042c9190612d64565b60405180910390f35b34801561044157600080fd5b5061044a61140f565b604051610457919061299c565b60405180910390f35b34801561046c57600080fd5b50610487600480360381019061048291906123be565b611439565b6040516104949190612c7b565b60405180910390f35b3480156104a957600080fd5b506104c460048036038101906104bf91906123be565b611459565b005b3480156104d257600080fd5b506104ed60048036038101906104e891906123be565b611659565b6040516104fa9190612c7b565b60405180910390f35b34801561050f57600080fd5b5061052a600480360381019061052591906123be565b611679565b60405161053993929190612c96565b60405180910390f35b61055c600480360381019061055791906123be565b6116c3565b005b34801561056a57600080fd5b506105736117e8565b6040516105809190612c7b565b60405180910390f35b34801561059557600080fd5b506105b060048036038101906105ab9190612423565b6117f2565b005b3480156105be57600080fd5b506105d960048036038101906105d49190612343565b611a7d565b005b3480156105e757600080fd5b5061060260048036038101906105fd9190612395565b611b75565b604051610610929190612ccd565b60405180910390f35b60008088600073ffffffffffffffffffffffffffffffffffffffff166003600083815260200190815260200160002060010160009054906101000a900473ffffffffffffffffffffffffffffffffffffffff1673ffffffffffffffffffffffffffffffffffffffff1614156106c3576040517f08c379a00000000000000000000000000000000000000000000000000000000081526004016106ba90612b9b565b60405180910390fd5b896003806000838152602001908152602001600020600201541461071c576040517f08c379a000000000000000000000000000000000000000000000000000000000815260040161071390612abb565b60405180910390fd5b61074c8989898989600860009054906101000a900473ffffffffffffffffffffffffffffffffffffffff16611b99565b61078b576040517f08c379a000000000000000000000000000000000000000000000000000000000815260040161078290612afb565b60405180910390fd5b60008a60405160200161079e9190612981565b60405160208183030381529060405280519060200120905060016004600083815260200190815260200160002060010160008282546107dd9190612e84565b925050819055506107ed88611f18565b7fe032b0171b8688390474f14cb113a546cf69cd6385ba4a5ae43550afe994e0cc8c8c600460008581526020019081526020016000206001015460405161083693929190612d2d565b60405180910390a18a60046000838152602001908152602001600020600101549450945050505097509795505050505050565b6060600560008381526020019081526020016000208054806020026020016040519081016040528092919081815260200182805480156108c857602002820191906000526020600020905b8154815260200190600101908083116108b4575b50505050509050919050565b80600073ffffffffffffffffffffffffffffffffffffffff166003600083815260200190815260200160002060010160009054906101000a900473ffffffffffffffffffffffffffffffffffffffff1673ffffffffffffffffffffffffffffffffffffffff16141561097b576040517f08c379a000000000000000000000000000000000000000000000000000000000815260040161097290612b9b565b60405180910390fd5b813373ffffffffffffffffffffffffffffffffffffffff166003600083815260200190815260200160002060010160009054906101000a900473ffffffffffffffffffffffffffffffffffffffff1673ffffffffffffffffffffffffffffffffffffffff1614610a20576040517f08c379a0000000000000000000000000000000000000000000000000000000008152600401610a1790612bbb565b60405180910390fd5b600460036000858152602001908152602001600020600201819055507e933d644a694d122358be17a9d7642ba5dfaae41af75919aab4d6e727915afa836004604051610a6d929190612ccd565b60405180910390a1505050565b6000610a84611f46565b73ffffffffffffffffffffffffffffffffffffffff16610aa261140f565b73ffffffffffffffffffffffffffffffffffffffff1614610af8576040517f08c379a0000000000000000000000000000000000000000000000000000000008152600401610aef90612b7b565b60405180910390fd5b610b0061140f565b73ffffffffffffffffffffffffffffffffffffffff166108fc479081150290604051600060405180830381858888f19350505050158015610b45573d6000803e3d6000fd5b5047905090565b600860009054906101000a900473ffffffffffffffffffffffffffffffffffffffff1681565b6000610b7c611f46565b73ffffffffffffffffffffffffffffffffffffffff16610b9a61140f565b73ffffffffffffffffffffffffffffffffffffffff1614610bf0576040517f08c379a0000000000000000000000000000000000000000000000000000000008152600401610be790612b7b565b60405180910390fd5b47905090565b81600073ffffffffffffffffffffffffffffffffffffffff166003600083815260200190815260200160002060010160009054906101000a900473ffffffffffffffffffffffffffffffffffffffff1673ffffffffffffffffffffffffffffffffffffffff161415610c9d576040517f08c379a0000000000000000000000000000000000000000000000000000000008152600401610c9490612b9b565b60405180910390fd5b82600260036000838152602001908152602001600020600201541480610cd85750600380600083815260200190815260200160002060020154145b610d17576040517f08c379a0000000000000000000000000000000000000000000000000000000008152600401610d0e90612b1b565b60405180910390fd5b610d218484611f4e565b60056000858152602001908152602001600020839080600181540180825580915050600190039060005260206000200160009091909190915055837f2855066e76771b6dced90a7b0015d1bd9a51283bfa652fbaf44214c1d545f8d084604051610d8b9190612c7b565b60405180910390a250505050565b6000610da3611f46565b73ffffffffffffffffffffffffffffffffffffffff16610dc161140f565b73ffffffffffffffffffffffffffffffffffffffff1614610e17576040517f08c379a0000000000000000000000000000000000000000000000000000000008152600401610e0e90612b7b565b60405180910390fd5b610e1f61140f565b73ffffffffffffffffffffffffffffffffffffffff1631905090565b60056020528160005260406000208181548110610e5757600080fd5b90600052602060002001600091509150505481565b610e74611f46565b73ffffffffffffffffffffffffffffffffffffffff16610e9261140f565b73ffffffffffffffffffffffffffffffffffffffff1614610ee8576040517f08c379a0000000000000000000000000000000000000000000000000000000008152600401610edf90612b7b565b60405180910390fd5b806007819055507f6bbc57480a46553fa4d156ce702beef5f3ad66303b0ed1a5d4cb44966c6584c381604051610f1e9190612c7b565b60405180910390a150565b80600073ffffffffffffffffffffffffffffffffffffffff166003600083815260200190815260200160002060010160009054906101000a900473ffffffffffffffffffffffffffffffffffffffff1673ffffffffffffffffffffffffffffffffffffffff161415610fd0576040517f08c379a0000000000000000000000000000000000000000000000000000000008152600401610fc790612b9b565b60405180910390fd5b813373ffffffffffffffffffffffffffffffffffffffff166003600083815260200190815260200160002060010160009054906101000a900473ffffffffffffffffffffffffffffffffffffffff1673ffffffffffffffffffffffffffffffffffffffff1614611075576040517f08c379a000000000000000000000000000000000000000000000000000000000815260040161106c90612bbb565b60405180910390fd5b8260016003600083815260200190815260200160002060020154146110cf576040517f08c379a00000000000000000000000000000000000000000000000000000000081526004016110c690612b3b565b60405180910390fd5b6003806000868152602001908152602001600020600201819055507e933d644a694d122358be17a9d7642ba5dfaae41af75919aab4d6e727915afa84600360405161111b929190612ccd565b60405180910390a150505050565b611131611f46565b73ffffffffffffffffffffffffffffffffffffffff1661114f61140f565b73ffffffffffffffffffffffffffffffffffffffff16146111a5576040517f08c379a000000000000000000000000000000000000000000000000000000000815260040161119c90612b7b565b60405180910390fd5b6111af6000612066565b565b600660205281600052604060002081815481106111cd57600080fd5b90600052602060002001600091509150505481565b80600073ffffffffffffffffffffffffffffffffffffffff166003600083815260200190815260200160002060010160009054906101000a900473ffffffffffffffffffffffffffffffffffffffff1673ffffffffffffffffffffffffffffffffffffffff161415611289576040517f08c379a000000000000000000000000000000000000000000000000000000000815260040161128090612b9b565b60405180910390fd5b813373ffffffffffffffffffffffffffffffffffffffff166003600083815260200190815260200160002060010160009054906101000a900473ffffffffffffffffffffffffffffffffffffffff1673ffffffffffffffffffffffffffffffffffffffff161461132e576040517f08c379a000000000000000000000000000000000000000000000000000000000815260040161132590612bbb565b60405180910390fd5b826002600360008381526020019081526020016000206002015414611388576040517f08c379a000000000000000000000000000000000000000000000000000000000815260040161137f90612bdb565b60405180910390fd5b6003806000868152602001908152602001600020600201819055507e933d644a694d122358be17a9d7642ba5dfaae41af75919aab4d6e727915afa8460036040516113d4929190612ccd565b60405180910390a150505050565b60006001600083815260200190815260200160002060000160009054906101000a900460ff169050919050565b6000600260009054906101000a900473ffffffffffffffffffffffffffffffffffffffff16905090565b600060016000838152602001908152602001600020600101549050919050565b80600073ffffffffffffffffffffffffffffffffffffffff166003600083815260200190815260200160002060010160009054906101000a900473ffffffffffffffffffffffffffffffffffffffff1673ffffffffffffffffffffffffffffffffffffffff161415611500576040517f08c379a00000000000000000000000000000000000000000000000000000000081526004016114f790612b9b565b60405180910390fd5b813373ffffffffffffffffffffffffffffffffffffffff166003600083815260200190815260200160002060010160009054906101000a900473ffffffffffffffffffffffffffffffffffffffff1673ffffffffffffffffffffffffffffffffffffffff16146115a5576040517f08c379a000000000000000000000000000000000000000000000000000000000815260040161159c90612bbb565b60405180910390fd5b82600380600083815260200190815260200160002060020154146115fe576040517f08c379a00000000000000000000000000000000000000000000000000000000081526004016115f590612abb565b60405180910390fd5b600260036000868152602001908152602001600020600201819055507e933d644a694d122358be17a9d7642ba5dfaae41af75919aab4d6e727915afa84600260405161164b929190612ccd565b60405180910390a150505050565b600060016000838152602001908152602001600020600201549050919050565b60036020528060005260406000206000915090508060000154908060010160009054906101000a900473ffffffffffffffffffffffffffffffffffffffff16908060020154905083565b600754341015611708576040517f08c379a00000000000000000000000000000000000000000000000000000000081526004016116ff90612adb565b60405180910390fd5b611715816014600061212c565b60405180606001604052808281526020013373ffffffffffffffffffffffffffffffffffffffff1681526020016001815250600360008381526020019081526020016000206000820151816000015560208201518160010160006101000a81548173ffffffffffffffffffffffffffffffffffffffff021916908373ffffffffffffffffffffffffffffffffffffffff16021790555060408201518160020155905050807f80eb16b9e18c05f6c250357758c0f8972e8b34d8f739057ce9d1ba145560ac0c60405160405180910390a250565b6000600754905090565b86600073ffffffffffffffffffffffffffffffffffffffff166003600083815260200190815260200160002060010160009054906101000a900473ffffffffffffffffffffffffffffffffffffffff1673ffffffffffffffffffffffffffffffffffffffff161415611899576040517f08c379a000000000000000000000000000000000000000000000000000000000815260040161189090612b9b565b60405180910390fd5b87600380600083815260200190815260200160002060020154146118f2576040517f08c379a00000000000000000000000000000000000000000000000000000000081526004016118e990612abb565b60405180910390fd5b88606460066000838152602001908152602001600020805490501061194c576040517f08c379a000000000000000000000000000000000000000000000000000000000815260040161194390612a5b565b60405180910390fd5b61197c8888888888600860009054906101000a900473ffffffffffffffffffffffffffffffffffffffff16611b99565b6119bb576040517f08c379a00000000000000000000000000000000000000000000000000000000081526004016119b290612afb565b60405180910390fd5b6000896040516020016119ce9190612981565b604051602081830303815290604052805190602001209050600060405180604001604052808c81526020016000815250905080600460008481526020019081526020016000206000820151816000015560208201518160010155905050611a3488611f18565b7f37e674dde5bcccda4110ec8abe4daaf45c9c378d8185aec68673556e042e1e9f8c8c8c604051611a6793929190612cf6565b60405180910390a1505050505050505050505050565b611a85611f46565b73ffffffffffffffffffffffffffffffffffffffff16611aa361140f565b73ffffffffffffffffffffffffffffffffffffffff1614611af9576040517f08c379a0000000000000000000000000000000000000000000000000000000008152600401611af090612b7b565b60405180910390fd5b600073ffffffffffffffffffffffffffffffffffffffff168173ffffffffffffffffffffffffffffffffffffffff161415611b69576040517f08c379a0000000000000000000000000000000000000000000000000000000008152600401611b6090612a7b565b60405180910390fd5b611b7281612066565b50565b60046020528060005260406000206000915090508060000154908060010154905082565b600080600086815260200190815260200160002060009054906101000a900460ff1615611bfb576040517f08c379a0000000000000000000000000000000000000000000000000000000008152600401611bf290612a3b565b60405180910390fd5b6000611c068861229a565b90508273ffffffffffffffffffffffffffffffffffffffff16635fe8c13b604051806040016040528087600060088110611c69577f4e487b7100000000000000000000000000000000000000000000000000000000600052603260045260246000fd5b6020020135815260200187600160088110611cad577f4e487b7100000000000000000000000000000000000000000000000000000000600052603260045260246000fd5b6020020135815250604051806040016040528060405180604001604052808a600260088110611d05577f4e487b7100000000000000000000000000000000000000000000000000000000600052603260045260246000fd5b602002013581526020018a600360088110611d49577f4e487b7100000000000000000000000000000000000000000000000000000000600052603260045260246000fd5b6020020135815250815260200160405180604001604052808a600460088110611d9b577f4e487b7100000000000000000000000000000000000000000000000000000000600052603260045260246000fd5b602002013581526020018a600560088110611ddf577f4e487b7100000000000000000000000000000000000000000000000000000000600052603260045260246000fd5b6020020135815250815250604051806040016040528089600660088110611e2f577f4e487b7100000000000000000000000000000000000000000000000000000000600052603260045260246000fd5b6020020135815260200189600760088110611e73577f4e487b7100000000000000000000000000000000000000000000000000000000600052603260045260246000fd5b602002013581525060405180608001604052808d81526020018c81526020018781526020018b8152506040518563ffffffff1660e01b8152600401611ebb94939291906129b7565b60206040518083038186803b158015611ed357600080fd5b505afa158015611ee7573d6000803e3d6000fd5b505050506040513d601f19601f82011682018060405250810190611f0b919061236c565b9150509695505050505050565b600160008083815260200190815260200160002060006101000a81548160ff02191690831515021790555050565b600033905090565b6000611f59836113e2565b60ff161415611f9d576040517f08c379a0000000000000000000000000000000000000000000000000000000008152600401611f9490612b5b565b60405180910390fd5b6001600083815260200190815260200160002073__$4c0484323457fe1a856f46a4759b553fe4$__63168703fa9091836040518363ffffffff1660e01b8152600401611fea929190612c1b565b60006040518083038186803b15801561200257600080fd5b505af4158015612016573d6000803e3d6000fd5b50505050600061202583611439565b9050827f03fd27265b7dd1f55558bedc22a58fa3b10afb1be776e614bd5a7ba7b94994068383604051612059929190612ccd565b60405180910390a2505050565b6000600260009054906101000a900473ffffffffffffffffffffffffffffffffffffffff16905081600260006101000a81548173ffffffffffffffffffffffffffffffffffffffff021916908373ffffffffffffffffffffffffffffffffffffffff1602179055508173ffffffffffffffffffffffffffffffffffffffff168173ffffffffffffffffffffffffffffffffffffffff167f8be0079c531659141344cd1fd0a4f28419497f9722a3daafe3b4186f6b6457e060405160405180910390a35050565b7f30644e72e131a029b85045b68181585d2833e84879b9709143e1f593f0000001831061218e576040517f08c379a000000000000000000000000000000000000000000000000000000000815260040161218590612bfb565b60405180910390fd5b6000612199846113e2565b60ff16146121dc576040517f08c379a00000000000000000000000000000000000000000000000000000000081526004016121d390612a9b565b60405180910390fd5b6001600084815260200190815260200160002073__$4c0484323457fe1a856f46a4759b553fe4$__63b4bdd117909184846040518463ffffffff1660e01b815260040161222b93929190612c44565b60006040518083038186803b15801561224357600080fd5b505af4158015612257573d6000803e3d6000fd5b50505050827fc3082aa494e9088c2c9f0fb62a0b6bd46e6699acb94cfba35be29b95a93f68c8838360405161228d929190612d7f565b60405180910390a2505050565b60006008826040516020016122af9190612966565b6040516020818303038152906040528051906020012060001c901c9050919050565b6000813590506122e0816133cf565b92915050565b6000819050826020600802820111156122fe57600080fd5b92915050565b600081519050612313816133e6565b92915050565b600081359050612328816133fd565b92915050565b60008135905061233d81613414565b92915050565b60006020828403121561235557600080fd5b6000612363848285016122d1565b91505092915050565b60006020828403121561237e57600080fd5b600061238c84828501612304565b91505092915050565b6000602082840312156123a757600080fd5b60006123b584828501612319565b91505092915050565b6000602082840312156123d057600080fd5b60006123de8482850161232e565b91505092915050565b600080604083850312156123fa57600080fd5b60006124088582860161232e565b92505060206124198582860161232e565b9150509250929050565b60008060008060008060006101c0888a03121561243f57600080fd5b600061244d8a828b0161232e565b975050602061245e8a828b0161232e565b965050604061246f8a828b01612319565b95505060606124808a828b0161232e565b94505060806124918a828b0161232e565b93505060a06124a28a828b0161232e565b92505060c06124b38a828b016122e6565b91505092959891949750929550565b60006124ce8383612558565b60408301905092915050565b60006124e68383612904565b60208301905092915050565b6124fb81612eda565b82525050565b61250a81612dd6565b6125148184612e36565b925061251f82612da8565b8060005b8381101561255057815161253787826124c2565b965061254283612e02565b925050600181019050612523565b505050505050565b61256181612de1565b61256b8184612e41565b925061257682612db2565b8060005b838110156125a757815161258e87826124da565b965061259983612e0f565b92505060018101905061257a565b505050505050565b6125b881612de1565b6125c28184612e4c565b92506125cd82612db2565b8060005b838110156125fe5781516125e587826124da565b96506125f083612e0f565b9250506001810190506125d1565b505050505050565b61260f81612dec565b6126198184612e57565b925061262482612dbc565b8060005b8381101561265557815161263c87826124da565b965061264783612e1c565b925050600181019050612628565b505050505050565b600061266882612df7565b6126728185612e62565b935061267d83612dc6565b8060005b838110156126ae57815161269588826124da565b97506126a083612e29565b925050600181019050612681565b5085935050505092915050565b6126c481612ef8565b82525050565b6126db6126d682612ef8565b612f5d565b82525050565b6126ea81612f39565b82525050565b60006126fd603683612e73565b915061270882612fa0565b604082019050919050565b6000612720602383612e73565b915061272b82612fef565b604082019050919050565b6000612743602683612e73565b915061274e8261303e565b604082019050919050565b6000612766602583612e73565b91506127718261308d565b604082019050919050565b6000612789602183612e73565b9150612794826130dc565b604082019050919050565b60006127ac602e83612e73565b91506127b78261312b565b604082019050919050565b60006127cf601b83612e73565b91506127da8261317a565b602082019050919050565b60006127f2602b83612e73565b91506127fd826131a3565b604082019050919050565b6000612815602983612e73565b9150612820826131f2565b604082019050919050565b6000612838602583612e73565b915061284382613241565b604082019050919050565b600061285b602083612e73565b915061286682613290565b602082019050919050565b600061287e601a83612e73565b9150612889826132b9565b602082019050919050565b60006128a1602983612e73565b91506128ac826132e2565b604082019050919050565b60006128c4602183612e73565b91506128cf82613331565b604082019050919050565b60006128e7603683612e73565b91506128f282613380565b604082019050919050565b8082525050565b61290d81612f22565b82525050565b61291c81612f22565b82525050565b61292b81612f22565b82525050565b61294261293d82612f22565b612f67565b82525050565b61295181612f2c565b82525050565b61296081612f2c565b82525050565b600061297282846126ca565b60208201915081905092915050565b600061298d8284612931565b60208201915081905092915050565b60006020820190506129b160008301846124f2565b92915050565b6000610180820190506129cd60008301876125af565b6129da6040830186612501565b6129e760c08301856125af565b6129f5610100830184612606565b95945050505050565b60006020820190508181036000830152612a18818461265d565b905092915050565b6000602082019050612a3560008301846126e1565b92915050565b60006020820190508181036000830152612a54816126f0565b9050919050565b60006020820190508181036000830152612a7481612713565b9050919050565b60006020820190508181036000830152612a9481612736565b9050919050565b60006020820190508181036000830152612ab481612759565b9050919050565b60006020820190508181036000830152612ad48161277c565b9050919050565b60006020820190508181036000830152612af48161279f565b9050919050565b60006020820190508181036000830152612b14816127c2565b9050919050565b60006020820190508181036000830152612b34816127e5565b9050919050565b60006020820190508181036000830152612b5481612808565b9050919050565b60006020820190508181036000830152612b748161282b565b9050919050565b60006020820190508181036000830152612b948161284e565b9050919050565b60006020820190508181036000830152612bb481612871565b9050919050565b60006020820190508181036000830152612bd481612894565b9050919050565b60006020820190508181036000830152612bf4816128b7565b9050919050565b60006020820190508181036000830152612c14816128da565b9050919050565b6000604082019050612c3060008301856128fd565b612c3d6020830184612922565b9392505050565b6000606082019050612c5960008301866128fd565b612c666020830185612957565b612c736040830184612922565b949350505050565b6000602082019050612c906000830184612913565b92915050565b6000606082019050612cab6000830186612913565b612cb860208301856124f2565b612cc56040830184612913565b949350505050565b6000604082019050612ce26000830185612913565b612cef6020830184612913565b9392505050565b6000606082019050612d0b6000830186612913565b612d186020830185612913565b612d2560408301846126bb565b949350505050565b6000606082019050612d426000830186612913565b612d4f6020830185612913565b612d5c6040830184612913565b949350505050565b6000602082019050612d796000830184612948565b92915050565b6000604082019050612d946000830185612948565b612da16020830184612913565b9392505050565b6000819050919050565b6000819050919050565b6000819050919050565b6000819050602082019050919050565b600060029050919050565b600060029050919050565b600060049050919050565b600081519050919050565b6000602082019050919050565b6000602082019050919050565b6000602082019050919050565b6000602082019050919050565b600081905092915050565b600081905092915050565b600081905092915050565b600081905092915050565b600082825260208201905092915050565b600082825260208201905092915050565b6000612e8f82612f22565b9150612e9a83612f22565b9250827fffffffffffffffffffffffffffffffffffffffffffffffffffffffffffffffff03821115612ecf57612ece612f71565b5b828201905092915050565b6000612ee582612f02565b9050919050565b60008115159050919050565b6000819050919050565b600073ffffffffffffffffffffffffffffffffffffffff82169050919050565b6000819050919050565b600060ff82169050919050565b6000612f4482612f4b565b9050919050565b6000612f5682612f02565b9050919050565b6000819050919050565b6000819050919050565b7f4e487b7100000000000000000000000000000000000000000000000000000000600052601160045260246000fd5b7f53656d6170686f7265436f72653a20796f752063616e6e6f742075736520746860008201527f652073616d65206e756c6c696669657220747769636500000000000000000000602082015250565b7f4d6178696d756d206e756d626572206f66207175657374696f6e7320706f737460008201527f65642e0000000000000000000000000000000000000000000000000000000000602082015250565b7f4f776e61626c653a206e6577206f776e657220697320746865207a65726f206160008201527f6464726573730000000000000000000000000000000000000000000000000000602082015250565b7f53656d6170686f726547726f7570733a2067726f757020616c7265616479206560008201527f7869737473000000000000000000000000000000000000000000000000000000602082015250565b7f414d412073657373696f6e2773207374617465206973206e6f7420416374697660008201527f6500000000000000000000000000000000000000000000000000000000000000602082015250565b7f496e73756666696369656e742066756e647320666f72206372656174696e672060008201527f616e20414d412073657373696f6e000000000000000000000000000000000000602082015250565b7f414d413a207468652070726f6f66206973206e6f742076616c69640000000000600082015250565b7f414d412073657373696f6e2773207374617465206973206e6f7420506175736560008201527f64206f7220416374697665000000000000000000000000000000000000000000602082015250565b7f414d412073657373696f6e27732073746174652073686f756c64206265204e6f60008201527f7420537461727465640000000000000000000000000000000000000000000000602082015250565b7f53656d6170686f726547726f7570733a2067726f757020646f6573206e6f742060008201527f6578697374000000000000000000000000000000000000000000000000000000602082015250565b7f4f776e61626c653a2063616c6c6572206973206e6f7420746865206f776e6572600082015250565b7f414d412073657373696f6e20646f6573206e6f74206578697374000000000000600082015250565b7f596f7520617265206e6f7420746865206f776e6572206f66207468697320414d60008201527f412073657373696f6e0000000000000000000000000000000000000000000000602082015250565b7f414d412073657373696f6e2773207374617465206973206e6f7420506175736560008201527f6400000000000000000000000000000000000000000000000000000000000000602082015250565b7f53656d6170686f726547726f7570733a2067726f7570206964206d757374206260008201527f65203c20534e41524b5f5343414c41525f4649454c4400000000000000000000602082015250565b6133d881612eda565b81146133e357600080fd5b50565b6133ef81612eec565b81146133fa57600080fd5b50565b61340681612ef8565b811461341157600080fd5b50565b61341d81612f22565b811461342857600080fd5b5056fea26469706673582212204d00fcaca0d63e09e4fd491120470367b7133b1042751e215b0ddca12800983164736f6c63430008040033",
          "opcodes": "PUSH1 0x80 PUSH1 0x40 MSTORE PUSH7 0x2386F26FC10000 PUSH1 0x7 SSTORE CALLVALUE DUP1 ISZERO PUSH3 0x1C JUMPI PUSH1 0x0 DUP1 REVERT JUMPDEST POP PUSH1 0x40 MLOAD PUSH3 0x367A CODESIZE SUB DUP1 PUSH3 0x367A DUP4 CODECOPY DUP2 DUP2 ADD PUSH1 0x40 MSTORE DUP2 ADD SWAP1 PUSH3 0x42 SWAP2 SWAP1 PUSH3 0x18F JUMP JUMPDEST PUSH3 0x62 PUSH3 0x56 PUSH3 0xAA PUSH1 0x20 SHL PUSH1 0x20 SHR JUMP JUMPDEST PUSH3 0xB2 PUSH1 0x20 SHL PUSH1 0x20 SHR JUMP JUMPDEST DUP1 PUSH1 0x8 PUSH1 0x0 PUSH2 0x100 EXP DUP2 SLOAD DUP2 PUSH20 0xFFFFFFFFFFFFFFFFFFFFFFFFFFFFFFFFFFFFFFFF MUL NOT AND SWAP1 DUP4 PUSH20 0xFFFFFFFFFFFFFFFFFFFFFFFFFFFFFFFFFFFFFFFF AND MUL OR SWAP1 SSTORE POP POP PUSH3 0x209 JUMP JUMPDEST PUSH1 0x0 CALLER SWAP1 POP SWAP1 JUMP JUMPDEST PUSH1 0x0 PUSH1 0x2 PUSH1 0x0 SWAP1 SLOAD SWAP1 PUSH2 0x100 EXP SWAP1 DIV PUSH20 0xFFFFFFFFFFFFFFFFFFFFFFFFFFFFFFFFFFFFFFFF AND SWAP1 POP DUP2 PUSH1 0x2 PUSH1 0x0 PUSH2 0x100 EXP DUP2 SLOAD DUP2 PUSH20 0xFFFFFFFFFFFFFFFFFFFFFFFFFFFFFFFFFFFFFFFF MUL NOT AND SWAP1 DUP4 PUSH20 0xFFFFFFFFFFFFFFFFFFFFFFFFFFFFFFFFFFFFFFFF AND MUL OR SWAP1 SSTORE POP DUP2 PUSH20 0xFFFFFFFFFFFFFFFFFFFFFFFFFFFFFFFFFFFFFFFF AND DUP2 PUSH20 0xFFFFFFFFFFFFFFFFFFFFFFFFFFFFFFFFFFFFFFFF AND PUSH32 0x8BE0079C531659141344CD1FD0A4F28419497F9722A3DAAFE3B4186F6B6457E0 PUSH1 0x40 MLOAD PUSH1 0x40 MLOAD DUP1 SWAP2 SUB SWAP1 LOG3 POP POP JUMP JUMPDEST PUSH1 0x0 DUP2 MLOAD SWAP1 POP PUSH3 0x189 DUP2 PUSH3 0x1EF JUMP JUMPDEST SWAP3 SWAP2 POP POP JUMP JUMPDEST PUSH1 0x0 PUSH1 0x20 DUP3 DUP5 SUB SLT ISZERO PUSH3 0x1A2 JUMPI PUSH1 0x0 DUP1 REVERT JUMPDEST PUSH1 0x0 PUSH3 0x1B2 DUP5 DUP3 DUP6 ADD PUSH3 0x178 JUMP JUMPDEST SWAP2 POP POP SWAP3 SWAP2 POP POP JUMP JUMPDEST PUSH1 0x0 PUSH3 0x1C8 DUP3 PUSH3 0x1CF JUMP JUMPDEST SWAP1 POP SWAP2 SWAP1 POP JUMP JUMPDEST PUSH1 0x0 PUSH20 0xFFFFFFFFFFFFFFFFFFFFFFFFFFFFFFFFFFFFFFFF DUP3 AND SWAP1 POP SWAP2 SWAP1 POP JUMP JUMPDEST PUSH3 0x1FA DUP2 PUSH3 0x1BB JUMP JUMPDEST DUP2 EQ PUSH3 0x206 JUMPI PUSH1 0x0 DUP1 REVERT JUMPDEST POP JUMP JUMPDEST PUSH2 0x3461 DUP1 PUSH3 0x219 PUSH1 0x0 CODECOPY PUSH1 0x0 RETURN INVALID PUSH1 0x80 PUSH1 0x40 MSTORE PUSH1 0x4 CALLDATASIZE LT PUSH2 0x16A JUMPI PUSH1 0x0 CALLDATALOAD PUSH1 0xE0 SHR DUP1 PUSH4 0x7178FBFD GT PUSH2 0xD1 JUMPI DUP1 PUSH4 0xB9C78C2B GT PUSH2 0x8A JUMPI DUP1 PUSH4 0xCED72F87 GT PUSH2 0x64 JUMPI DUP1 PUSH4 0xCED72F87 EQ PUSH2 0x55E JUMPI DUP1 PUSH4 0xE2A1E285 EQ PUSH2 0x589 JUMPI DUP1 PUSH4 0xF2FDE38B EQ PUSH2 0x5B2 JUMPI DUP1 PUSH4 0xF6BB7354 EQ PUSH2 0x5DB JUMPI PUSH2 0x171 JUMP JUMPDEST DUP1 PUSH4 0xB9C78C2B EQ PUSH2 0x4C6 JUMPI DUP1 PUSH4 0xBB4446AF EQ PUSH2 0x503 JUMPI DUP1 PUSH4 0xBC466A09 EQ PUSH2 0x542 JUMPI PUSH2 0x171 JUMP JUMPDEST DUP1 PUSH4 0x7178FBFD EQ PUSH2 0x392 JUMPI DUP1 PUSH4 0x758DD195 EQ PUSH2 0x3CF JUMPI DUP1 PUSH4 0x75E618C9 EQ PUSH2 0x3F8 JUMPI DUP1 PUSH4 0x8DA5CB5B EQ PUSH2 0x435 JUMPI DUP1 PUSH4 0x9B24B3B0 EQ PUSH2 0x460 JUMPI DUP1 PUSH4 0xAD98AC80 EQ PUSH2 0x49D JUMPI PUSH2 0x171 JUMP JUMPDEST DUP1 PUSH4 0x542A4B96 GT PUSH2 0x123 JUMPI DUP1 PUSH4 0x542A4B96 EQ PUSH2 0x298 JUMPI DUP1 PUSH4 0x590791F2 EQ PUSH2 0x2C1 JUMPI DUP1 PUSH4 0x69F819DF EQ PUSH2 0x2EC JUMPI DUP1 PUSH4 0x6A1DB1BF EQ PUSH2 0x329 JUMPI DUP1 PUSH4 0x6F38DB4F EQ PUSH2 0x352 JUMPI DUP1 PUSH4 0x715018A6 EQ PUSH2 0x37B JUMPI PUSH2 0x171 JUMP JUMPDEST DUP1 PUSH4 0x8CC30D8 EQ PUSH2 0x173 JUMPI DUP1 PUSH4 0x950371F EQ PUSH2 0x1B1 JUMPI DUP1 PUSH4 0x1582FAB1 EQ PUSH2 0x1EE JUMPI DUP1 PUSH4 0x24600FC3 EQ PUSH2 0x217 JUMPI DUP1 PUSH4 0x2B7AC3F3 EQ PUSH2 0x242 JUMPI DUP1 PUSH4 0x5195BD29 EQ PUSH2 0x26D JUMPI PUSH2 0x171 JUMP JUMPDEST CALLDATASIZE PUSH2 0x171 JUMPI STOP JUMPDEST STOP JUMPDEST CALLVALUE DUP1 ISZERO PUSH2 0x17F JUMPI PUSH1 0x0 DUP1 REVERT JUMPDEST POP PUSH2 0x19A PUSH1 0x4 DUP1 CALLDATASIZE SUB DUP2 ADD SWAP1 PUSH2 0x195 SWAP2 SWAP1 PUSH2 0x2423 JUMP JUMPDEST PUSH2 0x619 JUMP JUMPDEST PUSH1 0x40 MLOAD PUSH2 0x1A8 SWAP3 SWAP2 SWAP1 PUSH2 0x2CCD JUMP JUMPDEST PUSH1 0x40 MLOAD DUP1 SWAP2 SUB SWAP1 RETURN JUMPDEST CALLVALUE DUP1 ISZERO PUSH2 0x1BD JUMPI PUSH1 0x0 DUP1 REVERT JUMPDEST POP PUSH2 0x1D8 PUSH1 0x4 DUP1 CALLDATASIZE SUB DUP2 ADD SWAP1 PUSH2 0x1D3 SWAP2 SWAP1 PUSH2 0x23BE JUMP JUMPDEST PUSH2 0x869 JUMP JUMPDEST PUSH1 0x40 MLOAD PUSH2 0x1E5 SWAP2 SWAP1 PUSH2 0x29FE JUMP JUMPDEST PUSH1 0x40 MLOAD DUP1 SWAP2 SUB SWAP1 RETURN JUMPDEST CALLVALUE DUP1 ISZERO PUSH2 0x1FA JUMPI PUSH1 0x0 DUP1 REVERT JUMPDEST POP PUSH2 0x215 PUSH1 0x4 DUP1 CALLDATASIZE SUB DUP2 ADD SWAP1 PUSH2 0x210 SWAP2 SWAP1 PUSH2 0x23BE JUMP JUMPDEST PUSH2 0x8D4 JUMP JUMPDEST STOP JUMPDEST CALLVALUE DUP1 ISZERO PUSH2 0x223 JUMPI PUSH1 0x0 DUP1 REVERT JUMPDEST POP PUSH2 0x22C PUSH2 0xA7A JUMP JUMPDEST PUSH1 0x40 MLOAD PUSH2 0x239 SWAP2 SWAP1 PUSH2 0x2C7B JUMP JUMPDEST PUSH1 0x40 MLOAD DUP1 SWAP2 SUB SWAP1 RETURN JUMPDEST CALLVALUE DUP1 ISZERO PUSH2 0x24E JUMPI PUSH1 0x0 DUP1 REVERT JUMPDEST POP PUSH2 0x257 PUSH2 0xB4C JUMP JUMPDEST PUSH1 0x40 MLOAD PUSH2 0x264 SWAP2 SWAP1 PUSH2 0x2A20 JUMP JUMPDEST PUSH1 0x40 MLOAD DUP1 SWAP2 SUB SWAP1 RETURN JUMPDEST CALLVALUE DUP1 ISZERO PUSH2 0x279 JUMPI PUSH1 0x0 DUP1 REVERT JUMPDEST POP PUSH2 0x282 PUSH2 0xB72 JUMP JUMPDEST PUSH1 0x40 MLOAD PUSH2 0x28F SWAP2 SWAP1 PUSH2 0x2C7B JUMP JUMPDEST PUSH1 0x40 MLOAD DUP1 SWAP2 SUB SWAP1 RETURN JUMPDEST CALLVALUE DUP1 ISZERO PUSH2 0x2A4 JUMPI PUSH1 0x0 DUP1 REVERT JUMPDEST POP PUSH2 0x2BF PUSH1 0x4 DUP1 CALLDATASIZE SUB DUP2 ADD SWAP1 PUSH2 0x2BA SWAP2 SWAP1 PUSH2 0x23E7 JUMP JUMPDEST PUSH2 0xBF6 JUMP JUMPDEST STOP JUMPDEST CALLVALUE DUP1 ISZERO PUSH2 0x2CD JUMPI PUSH1 0x0 DUP1 REVERT JUMPDEST POP PUSH2 0x2D6 PUSH2 0xD99 JUMP JUMPDEST PUSH1 0x40 MLOAD PUSH2 0x2E3 SWAP2 SWAP1 PUSH2 0x2C7B JUMP JUMPDEST PUSH1 0x40 MLOAD DUP1 SWAP2 SUB SWAP1 RETURN JUMPDEST CALLVALUE DUP1 ISZERO PUSH2 0x2F8 JUMPI PUSH1 0x0 DUP1 REVERT JUMPDEST POP PUSH2 0x313 PUSH1 0x4 DUP1 CALLDATASIZE SUB DUP2 ADD SWAP1 PUSH2 0x30E SWAP2 SWAP1 PUSH2 0x23E7 JUMP JUMPDEST PUSH2 0xE3B JUMP JUMPDEST PUSH1 0x40 MLOAD PUSH2 0x320 SWAP2 SWAP1 PUSH2 0x2C7B JUMP JUMPDEST PUSH1 0x40 MLOAD DUP1 SWAP2 SUB SWAP1 RETURN JUMPDEST CALLVALUE DUP1 ISZERO PUSH2 0x335 JUMPI PUSH1 0x0 DUP1 REVERT JUMPDEST POP PUSH2 0x350 PUSH1 0x4 DUP1 CALLDATASIZE SUB DUP2 ADD SWAP1 PUSH2 0x34B SWAP2 SWAP1 PUSH2 0x23BE JUMP JUMPDEST PUSH2 0xE6C JUMP JUMPDEST STOP JUMPDEST CALLVALUE DUP1 ISZERO PUSH2 0x35E JUMPI PUSH1 0x0 DUP1 REVERT JUMPDEST POP PUSH2 0x379 PUSH1 0x4 DUP1 CALLDATASIZE SUB DUP2 ADD SWAP1 PUSH2 0x374 SWAP2 SWAP1 PUSH2 0x23BE JUMP JUMPDEST PUSH2 0xF29 JUMP JUMPDEST STOP JUMPDEST CALLVALUE DUP1 ISZERO PUSH2 0x387 JUMPI PUSH1 0x0 DUP1 REVERT JUMPDEST POP PUSH2 0x390 PUSH2 0x1129 JUMP JUMPDEST STOP JUMPDEST CALLVALUE DUP1 ISZERO PUSH2 0x39E JUMPI PUSH1 0x0 DUP1 REVERT JUMPDEST POP PUSH2 0x3B9 PUSH1 0x4 DUP1 CALLDATASIZE SUB DUP2 ADD SWAP1 PUSH2 0x3B4 SWAP2 SWAP1 PUSH2 0x23E7 JUMP JUMPDEST PUSH2 0x11B1 JUMP JUMPDEST PUSH1 0x40 MLOAD PUSH2 0x3C6 SWAP2 SWAP1 PUSH2 0x2C7B JUMP JUMPDEST PUSH1 0x40 MLOAD DUP1 SWAP2 SUB SWAP1 RETURN JUMPDEST CALLVALUE DUP1 ISZERO PUSH2 0x3DB JUMPI PUSH1 0x0 DUP1 REVERT JUMPDEST POP PUSH2 0x3F6 PUSH1 0x4 DUP1 CALLDATASIZE SUB DUP2 ADD SWAP1 PUSH2 0x3F1 SWAP2 SWAP1 PUSH2 0x23BE JUMP JUMPDEST PUSH2 0x11E2 JUMP JUMPDEST STOP JUMPDEST CALLVALUE DUP1 ISZERO PUSH2 0x404 JUMPI PUSH1 0x0 DUP1 REVERT JUMPDEST POP PUSH2 0x41F PUSH1 0x4 DUP1 CALLDATASIZE SUB DUP2 ADD SWAP1 PUSH2 0x41A SWAP2 SWAP1 PUSH2 0x23BE JUMP JUMPDEST PUSH2 0x13E2 JUMP JUMPDEST PUSH1 0x40 MLOAD PUSH2 0x42C SWAP2 SWAP1 PUSH2 0x2D64 JUMP JUMPDEST PUSH1 0x40 MLOAD DUP1 SWAP2 SUB SWAP1 RETURN JUMPDEST CALLVALUE DUP1 ISZERO PUSH2 0x441 JUMPI PUSH1 0x0 DUP1 REVERT JUMPDEST POP PUSH2 0x44A PUSH2 0x140F JUMP JUMPDEST PUSH1 0x40 MLOAD PUSH2 0x457 SWAP2 SWAP1 PUSH2 0x299C JUMP JUMPDEST PUSH1 0x40 MLOAD DUP1 SWAP2 SUB SWAP1 RETURN JUMPDEST CALLVALUE DUP1 ISZERO PUSH2 0x46C JUMPI PUSH1 0x0 DUP1 REVERT JUMPDEST POP PUSH2 0x487 PUSH1 0x4 DUP1 CALLDATASIZE SUB DUP2 ADD SWAP1 PUSH2 0x482 SWAP2 SWAP1 PUSH2 0x23BE JUMP JUMPDEST PUSH2 0x1439 JUMP JUMPDEST PUSH1 0x40 MLOAD PUSH2 0x494 SWAP2 SWAP1 PUSH2 0x2C7B JUMP JUMPDEST PUSH1 0x40 MLOAD DUP1 SWAP2 SUB SWAP1 RETURN JUMPDEST CALLVALUE DUP1 ISZERO PUSH2 0x4A9 JUMPI PUSH1 0x0 DUP1 REVERT JUMPDEST POP PUSH2 0x4C4 PUSH1 0x4 DUP1 CALLDATASIZE SUB DUP2 ADD SWAP1 PUSH2 0x4BF SWAP2 SWAP1 PUSH2 0x23BE JUMP JUMPDEST PUSH2 0x1459 JUMP JUMPDEST STOP JUMPDEST CALLVALUE DUP1 ISZERO PUSH2 0x4D2 JUMPI PUSH1 0x0 DUP1 REVERT JUMPDEST POP PUSH2 0x4ED PUSH1 0x4 DUP1 CALLDATASIZE SUB DUP2 ADD SWAP1 PUSH2 0x4E8 SWAP2 SWAP1 PUSH2 0x23BE JUMP JUMPDEST PUSH2 0x1659 JUMP JUMPDEST PUSH1 0x40 MLOAD PUSH2 0x4FA SWAP2 SWAP1 PUSH2 0x2C7B JUMP JUMPDEST PUSH1 0x40 MLOAD DUP1 SWAP2 SUB SWAP1 RETURN JUMPDEST CALLVALUE DUP1 ISZERO PUSH2 0x50F JUMPI PUSH1 0x0 DUP1 REVERT JUMPDEST POP PUSH2 0x52A PUSH1 0x4 DUP1 CALLDATASIZE SUB DUP2 ADD SWAP1 PUSH2 0x525 SWAP2 SWAP1 PUSH2 0x23BE JUMP JUMPDEST PUSH2 0x1679 JUMP JUMPDEST PUSH1 0x40 MLOAD PUSH2 0x539 SWAP4 SWAP3 SWAP2 SWAP1 PUSH2 0x2C96 JUMP JUMPDEST PUSH1 0x40 MLOAD DUP1 SWAP2 SUB SWAP1 RETURN JUMPDEST PUSH2 0x55C PUSH1 0x4 DUP1 CALLDATASIZE SUB DUP2 ADD SWAP1 PUSH2 0x557 SWAP2 SWAP1 PUSH2 0x23BE JUMP JUMPDEST PUSH2 0x16C3 JUMP JUMPDEST STOP JUMPDEST CALLVALUE DUP1 ISZERO PUSH2 0x56A JUMPI PUSH1 0x0 DUP1 REVERT JUMPDEST POP PUSH2 0x573 PUSH2 0x17E8 JUMP JUMPDEST PUSH1 0x40 MLOAD PUSH2 0x580 SWAP2 SWAP1 PUSH2 0x2C7B JUMP JUMPDEST PUSH1 0x40 MLOAD DUP1 SWAP2 SUB SWAP1 RETURN JUMPDEST CALLVALUE DUP1 ISZERO PUSH2 0x595 JUMPI PUSH1 0x0 DUP1 REVERT JUMPDEST POP PUSH2 0x5B0 PUSH1 0x4 DUP1 CALLDATASIZE SUB DUP2 ADD SWAP1 PUSH2 0x5AB SWAP2 SWAP1 PUSH2 0x2423 JUMP JUMPDEST PUSH2 0x17F2 JUMP JUMPDEST STOP JUMPDEST CALLVALUE DUP1 ISZERO PUSH2 0x5BE JUMPI PUSH1 0x0 DUP1 REVERT JUMPDEST POP PUSH2 0x5D9 PUSH1 0x4 DUP1 CALLDATASIZE SUB DUP2 ADD SWAP1 PUSH2 0x5D4 SWAP2 SWAP1 PUSH2 0x2343 JUMP JUMPDEST PUSH2 0x1A7D JUMP JUMPDEST STOP JUMPDEST CALLVALUE DUP1 ISZERO PUSH2 0x5E7 JUMPI PUSH1 0x0 DUP1 REVERT JUMPDEST POP PUSH2 0x602 PUSH1 0x4 DUP1 CALLDATASIZE SUB DUP2 ADD SWAP1 PUSH2 0x5FD SWAP2 SWAP1 PUSH2 0x2395 JUMP JUMPDEST PUSH2 0x1B75 JUMP JUMPDEST PUSH1 0x40 MLOAD PUSH2 0x610 SWAP3 SWAP2 SWAP1 PUSH2 0x2CCD JUMP JUMPDEST PUSH1 0x40 MLOAD DUP1 SWAP2 SUB SWAP1 RETURN JUMPDEST PUSH1 0x0 DUP1 DUP9 PUSH1 0x0 PUSH20 0xFFFFFFFFFFFFFFFFFFFFFFFFFFFFFFFFFFFFFFFF AND PUSH1 0x3 PUSH1 0x0 DUP4 DUP2 MSTORE PUSH1 0x20 ADD SWAP1 DUP2 MSTORE PUSH1 0x20 ADD PUSH1 0x0 KECCAK256 PUSH1 0x1 ADD PUSH1 0x0 SWAP1 SLOAD SWAP1 PUSH2 0x100 EXP SWAP1 DIV PUSH20 0xFFFFFFFFFFFFFFFFFFFFFFFFFFFFFFFFFFFFFFFF AND PUSH20 0xFFFFFFFFFFFFFFFFFFFFFFFFFFFFFFFFFFFFFFFF AND EQ ISZERO PUSH2 0x6C3 JUMPI PUSH1 0x40 MLOAD PUSH32 0x8C379A000000000000000000000000000000000000000000000000000000000 DUP2 MSTORE PUSH1 0x4 ADD PUSH2 0x6BA SWAP1 PUSH2 0x2B9B JUMP JUMPDEST PUSH1 0x40 MLOAD DUP1 SWAP2 SUB SWAP1 REVERT JUMPDEST DUP10 PUSH1 0x3 DUP1 PUSH1 0x0 DUP4 DUP2 MSTORE PUSH1 0x20 ADD SWAP1 DUP2 MSTORE PUSH1 0x20 ADD PUSH1 0x0 KECCAK256 PUSH1 0x2 ADD SLOAD EQ PUSH2 0x71C JUMPI PUSH1 0x40 MLOAD PUSH32 0x8C379A000000000000000000000000000000000000000000000000000000000 DUP2 MSTORE PUSH1 0x4 ADD PUSH2 0x713 SWAP1 PUSH2 0x2ABB JUMP JUMPDEST PUSH1 0x40 MLOAD DUP1 SWAP2 SUB SWAP1 REVERT JUMPDEST PUSH2 0x74C DUP10 DUP10 DUP10 DUP10 DUP10 PUSH1 0x8 PUSH1 0x0 SWAP1 SLOAD SWAP1 PUSH2 0x100 EXP SWAP1 DIV PUSH20 0xFFFFFFFFFFFFFFFFFFFFFFFFFFFFFFFFFFFFFFFF AND PUSH2 0x1B99 JUMP JUMPDEST PUSH2 0x78B JUMPI PUSH1 0x40 MLOAD PUSH32 0x8C379A000000000000000000000000000000000000000000000000000000000 DUP2 MSTORE PUSH1 0x4 ADD PUSH2 0x782 SWAP1 PUSH2 0x2AFB JUMP JUMPDEST PUSH1 0x40 MLOAD DUP1 SWAP2 SUB SWAP1 REVERT JUMPDEST PUSH1 0x0 DUP11 PUSH1 0x40 MLOAD PUSH1 0x20 ADD PUSH2 0x79E SWAP2 SWAP1 PUSH2 0x2981 JUMP JUMPDEST PUSH1 0x40 MLOAD PUSH1 0x20 DUP2 DUP4 SUB SUB DUP2 MSTORE SWAP1 PUSH1 0x40 MSTORE DUP1 MLOAD SWAP1 PUSH1 0x20 ADD KECCAK256 SWAP1 POP PUSH1 0x1 PUSH1 0x4 PUSH1 0x0 DUP4 DUP2 MSTORE PUSH1 0x20 ADD SWAP1 DUP2 MSTORE PUSH1 0x20 ADD PUSH1 0x0 KECCAK256 PUSH1 0x1 ADD PUSH1 0x0 DUP3 DUP3 SLOAD PUSH2 0x7DD SWAP2 SWAP1 PUSH2 0x2E84 JUMP JUMPDEST SWAP3 POP POP DUP2 SWAP1 SSTORE POP PUSH2 0x7ED DUP9 PUSH2 0x1F18 JUMP JUMPDEST PUSH32 0xE032B0171B8688390474F14CB113A546CF69CD6385BA4A5AE43550AFE994E0CC DUP13 DUP13 PUSH1 0x4 PUSH1 0x0 DUP6 DUP2 MSTORE PUSH1 0x20 ADD SWAP1 DUP2 MSTORE PUSH1 0x20 ADD PUSH1 0x0 KECCAK256 PUSH1 0x1 ADD SLOAD PUSH1 0x40 MLOAD PUSH2 0x836 SWAP4 SWAP3 SWAP2 SWAP1 PUSH2 0x2D2D JUMP JUMPDEST PUSH1 0x40 MLOAD DUP1 SWAP2 SUB SWAP1 LOG1 DUP11 PUSH1 0x4 PUSH1 0x0 DUP4 DUP2 MSTORE PUSH1 0x20 ADD SWAP1 DUP2 MSTORE PUSH1 0x20 ADD PUSH1 0x0 KECCAK256 PUSH1 0x1 ADD SLOAD SWAP5 POP SWAP5 POP POP POP POP SWAP8 POP SWAP8 SWAP6 POP POP POP POP POP POP JUMP JUMPDEST PUSH1 0x60 PUSH1 0x5 PUSH1 0x0 DUP4 DUP2 MSTORE PUSH1 0x20 ADD SWAP1 DUP2 MSTORE PUSH1 0x20 ADD PUSH1 0x0 KECCAK256 DUP1 SLOAD DUP1 PUSH1 0x20 MUL PUSH1 0x20 ADD PUSH1 0x40 MLOAD SWAP1 DUP2 ADD PUSH1 0x40 MSTORE DUP1 SWAP3 SWAP2 SWAP1 DUP2 DUP2 MSTORE PUSH1 0x20 ADD DUP3 DUP1 SLOAD DUP1 ISZERO PUSH2 0x8C8 JUMPI PUSH1 0x20 MUL DUP3 ADD SWAP2 SWAP1 PUSH1 0x0 MSTORE PUSH1 0x20 PUSH1 0x0 KECCAK256 SWAP1 JUMPDEST DUP2 SLOAD DUP2 MSTORE PUSH1 0x20 ADD SWAP1 PUSH1 0x1 ADD SWAP1 DUP1 DUP4 GT PUSH2 0x8B4 JUMPI JUMPDEST POP POP POP POP POP SWAP1 POP SWAP2 SWAP1 POP JUMP JUMPDEST DUP1 PUSH1 0x0 PUSH20 0xFFFFFFFFFFFFFFFFFFFFFFFFFFFFFFFFFFFFFFFF AND PUSH1 0x3 PUSH1 0x0 DUP4 DUP2 MSTORE PUSH1 0x20 ADD SWAP1 DUP2 MSTORE PUSH1 0x20 ADD PUSH1 0x0 KECCAK256 PUSH1 0x1 ADD PUSH1 0x0 SWAP1 SLOAD SWAP1 PUSH2 0x100 EXP SWAP1 DIV PUSH20 0xFFFFFFFFFFFFFFFFFFFFFFFFFFFFFFFFFFFFFFFF AND PUSH20 0xFFFFFFFFFFFFFFFFFFFFFFFFFFFFFFFFFFFFFFFF AND EQ ISZERO PUSH2 0x97B JUMPI PUSH1 0x40 MLOAD PUSH32 0x8C379A000000000000000000000000000000000000000000000000000000000 DUP2 MSTORE PUSH1 0x4 ADD PUSH2 0x972 SWAP1 PUSH2 0x2B9B JUMP JUMPDEST PUSH1 0x40 MLOAD DUP1 SWAP2 SUB SWAP1 REVERT JUMPDEST DUP2 CALLER PUSH20 0xFFFFFFFFFFFFFFFFFFFFFFFFFFFFFFFFFFFFFFFF AND PUSH1 0x3 PUSH1 0x0 DUP4 DUP2 MSTORE PUSH1 0x20 ADD SWAP1 DUP2 MSTORE PUSH1 0x20 ADD PUSH1 0x0 KECCAK256 PUSH1 0x1 ADD PUSH1 0x0 SWAP1 SLOAD SWAP1 PUSH2 0x100 EXP SWAP1 DIV PUSH20 0xFFFFFFFFFFFFFFFFFFFFFFFFFFFFFFFFFFFFFFFF AND PUSH20 0xFFFFFFFFFFFFFFFFFFFFFFFFFFFFFFFFFFFFFFFF AND EQ PUSH2 0xA20 JUMPI PUSH1 0x40 MLOAD PUSH32 0x8C379A000000000000000000000000000000000000000000000000000000000 DUP2 MSTORE PUSH1 0x4 ADD PUSH2 0xA17 SWAP1 PUSH2 0x2BBB JUMP JUMPDEST PUSH1 0x40 MLOAD DUP1 SWAP2 SUB SWAP1 REVERT JUMPDEST PUSH1 0x4 PUSH1 0x3 PUSH1 0x0 DUP6 DUP2 MSTORE PUSH1 0x20 ADD SWAP1 DUP2 MSTORE PUSH1 0x20 ADD PUSH1 0x0 KECCAK256 PUSH1 0x2 ADD DUP2 SWAP1 SSTORE POP PUSH31 0x933D644A694D122358BE17A9D7642BA5DFAAE41AF75919AAB4D6E727915AFA DUP4 PUSH1 0x4 PUSH1 0x40 MLOAD PUSH2 0xA6D SWAP3 SWAP2 SWAP1 PUSH2 0x2CCD JUMP JUMPDEST PUSH1 0x40 MLOAD DUP1 SWAP2 SUB SWAP1 LOG1 POP POP POP JUMP JUMPDEST PUSH1 0x0 PUSH2 0xA84 PUSH2 0x1F46 JUMP JUMPDEST PUSH20 0xFFFFFFFFFFFFFFFFFFFFFFFFFFFFFFFFFFFFFFFF AND PUSH2 0xAA2 PUSH2 0x140F JUMP JUMPDEST PUSH20 0xFFFFFFFFFFFFFFFFFFFFFFFFFFFFFFFFFFFFFFFF AND EQ PUSH2 0xAF8 JUMPI PUSH1 0x40 MLOAD PUSH32 0x8C379A000000000000000000000000000000000000000000000000000000000 DUP2 MSTORE PUSH1 0x4 ADD PUSH2 0xAEF SWAP1 PUSH2 0x2B7B JUMP JUMPDEST PUSH1 0x40 MLOAD DUP1 SWAP2 SUB SWAP1 REVERT JUMPDEST PUSH2 0xB00 PUSH2 0x140F JUMP JUMPDEST PUSH20 0xFFFFFFFFFFFFFFFFFFFFFFFFFFFFFFFFFFFFFFFF AND PUSH2 0x8FC SELFBALANCE SWAP1 DUP2 ISZERO MUL SWAP1 PUSH1 0x40 MLOAD PUSH1 0x0 PUSH1 0x40 MLOAD DUP1 DUP4 SUB DUP2 DUP6 DUP9 DUP9 CALL SWAP4 POP POP POP POP ISZERO DUP1 ISZERO PUSH2 0xB45 JUMPI RETURNDATASIZE PUSH1 0x0 DUP1 RETURNDATACOPY RETURNDATASIZE PUSH1 0x0 REVERT JUMPDEST POP SELFBALANCE SWAP1 POP SWAP1 JUMP JUMPDEST PUSH1 0x8 PUSH1 0x0 SWAP1 SLOAD SWAP1 PUSH2 0x100 EXP SWAP1 DIV PUSH20 0xFFFFFFFFFFFFFFFFFFFFFFFFFFFFFFFFFFFFFFFF AND DUP2 JUMP JUMPDEST PUSH1 0x0 PUSH2 0xB7C PUSH2 0x1F46 JUMP JUMPDEST PUSH20 0xFFFFFFFFFFFFFFFFFFFFFFFFFFFFFFFFFFFFFFFF AND PUSH2 0xB9A PUSH2 0x140F JUMP JUMPDEST PUSH20 0xFFFFFFFFFFFFFFFFFFFFFFFFFFFFFFFFFFFFFFFF AND EQ PUSH2 0xBF0 JUMPI PUSH1 0x40 MLOAD PUSH32 0x8C379A000000000000000000000000000000000000000000000000000000000 DUP2 MSTORE PUSH1 0x4 ADD PUSH2 0xBE7 SWAP1 PUSH2 0x2B7B JUMP JUMPDEST PUSH1 0x40 MLOAD DUP1 SWAP2 SUB SWAP1 REVERT JUMPDEST SELFBALANCE SWAP1 POP SWAP1 JUMP JUMPDEST DUP2 PUSH1 0x0 PUSH20 0xFFFFFFFFFFFFFFFFFFFFFFFFFFFFFFFFFFFFFFFF AND PUSH1 0x3 PUSH1 0x0 DUP4 DUP2 MSTORE PUSH1 0x20 ADD SWAP1 DUP2 MSTORE PUSH1 0x20 ADD PUSH1 0x0 KECCAK256 PUSH1 0x1 ADD PUSH1 0x0 SWAP1 SLOAD SWAP1 PUSH2 0x100 EXP SWAP1 DIV PUSH20 0xFFFFFFFFFFFFFFFFFFFFFFFFFFFFFFFFFFFFFFFF AND PUSH20 0xFFFFFFFFFFFFFFFFFFFFFFFFFFFFFFFFFFFFFFFF AND EQ ISZERO PUSH2 0xC9D JUMPI PUSH1 0x40 MLOAD PUSH32 0x8C379A000000000000000000000000000000000000000000000000000000000 DUP2 MSTORE PUSH1 0x4 ADD PUSH2 0xC94 SWAP1 PUSH2 0x2B9B JUMP JUMPDEST PUSH1 0x40 MLOAD DUP1 SWAP2 SUB SWAP1 REVERT JUMPDEST DUP3 PUSH1 0x2 PUSH1 0x3 PUSH1 0x0 DUP4 DUP2 MSTORE PUSH1 0x20 ADD SWAP1 DUP2 MSTORE PUSH1 0x20 ADD PUSH1 0x0 KECCAK256 PUSH1 0x2 ADD SLOAD EQ DUP1 PUSH2 0xCD8 JUMPI POP PUSH1 0x3 DUP1 PUSH1 0x0 DUP4 DUP2 MSTORE PUSH1 0x20 ADD SWAP1 DUP2 MSTORE PUSH1 0x20 ADD PUSH1 0x0 KECCAK256 PUSH1 0x2 ADD SLOAD EQ JUMPDEST PUSH2 0xD17 JUMPI PUSH1 0x40 MLOAD PUSH32 0x8C379A000000000000000000000000000000000000000000000000000000000 DUP2 MSTORE PUSH1 0x4 ADD PUSH2 0xD0E SWAP1 PUSH2 0x2B1B JUMP JUMPDEST PUSH1 0x40 MLOAD DUP1 SWAP2 SUB SWAP1 REVERT JUMPDEST PUSH2 0xD21 DUP5 DUP5 PUSH2 0x1F4E JUMP JUMPDEST PUSH1 0x5 PUSH1 0x0 DUP6 DUP2 MSTORE PUSH1 0x20 ADD SWAP1 DUP2 MSTORE PUSH1 0x20 ADD PUSH1 0x0 KECCAK256 DUP4 SWAP1 DUP1 PUSH1 0x1 DUP2 SLOAD ADD DUP1 DUP3 SSTORE DUP1 SWAP2 POP POP PUSH1 0x1 SWAP1 SUB SWAP1 PUSH1 0x0 MSTORE PUSH1 0x20 PUSH1 0x0 KECCAK256 ADD PUSH1 0x0 SWAP1 SWAP2 SWAP1 SWAP2 SWAP1 SWAP2 POP SSTORE DUP4 PUSH32 0x2855066E76771B6DCED90A7B0015D1BD9A51283BFA652FBAF44214C1D545F8D0 DUP5 PUSH1 0x40 MLOAD PUSH2 0xD8B SWAP2 SWAP1 PUSH2 0x2C7B JUMP JUMPDEST PUSH1 0x40 MLOAD DUP1 SWAP2 SUB SWAP1 LOG2 POP POP POP POP JUMP JUMPDEST PUSH1 0x0 PUSH2 0xDA3 PUSH2 0x1F46 JUMP JUMPDEST PUSH20 0xFFFFFFFFFFFFFFFFFFFFFFFFFFFFFFFFFFFFFFFF AND PUSH2 0xDC1 PUSH2 0x140F JUMP JUMPDEST PUSH20 0xFFFFFFFFFFFFFFFFFFFFFFFFFFFFFFFFFFFFFFFF AND EQ PUSH2 0xE17 JUMPI PUSH1 0x40 MLOAD PUSH32 0x8C379A000000000000000000000000000000000000000000000000000000000 DUP2 MSTORE PUSH1 0x4 ADD PUSH2 0xE0E SWAP1 PUSH2 0x2B7B JUMP JUMPDEST PUSH1 0x40 MLOAD DUP1 SWAP2 SUB SWAP1 REVERT JUMPDEST PUSH2 0xE1F PUSH2 0x140F JUMP JUMPDEST PUSH20 0xFFFFFFFFFFFFFFFFFFFFFFFFFFFFFFFFFFFFFFFF AND BALANCE SWAP1 POP SWAP1 JUMP JUMPDEST PUSH1 0x5 PUSH1 0x20 MSTORE DUP2 PUSH1 0x0 MSTORE PUSH1 0x40 PUSH1 0x0 KECCAK256 DUP2 DUP2 SLOAD DUP2 LT PUSH2 0xE57 JUMPI PUSH1 0x0 DUP1 REVERT JUMPDEST SWAP1 PUSH1 0x0 MSTORE PUSH1 0x20 PUSH1 0x0 KECCAK256 ADD PUSH1 0x0 SWAP2 POP SWAP2 POP POP SLOAD DUP2 JUMP JUMPDEST PUSH2 0xE74 PUSH2 0x1F46 JUMP JUMPDEST PUSH20 0xFFFFFFFFFFFFFFFFFFFFFFFFFFFFFFFFFFFFFFFF AND PUSH2 0xE92 PUSH2 0x140F JUMP JUMPDEST PUSH20 0xFFFFFFFFFFFFFFFFFFFFFFFFFFFFFFFFFFFFFFFF AND EQ PUSH2 0xEE8 JUMPI PUSH1 0x40 MLOAD PUSH32 0x8C379A000000000000000000000000000000000000000000000000000000000 DUP2 MSTORE PUSH1 0x4 ADD PUSH2 0xEDF SWAP1 PUSH2 0x2B7B JUMP JUMPDEST PUSH1 0x40 MLOAD DUP1 SWAP2 SUB SWAP1 REVERT JUMPDEST DUP1 PUSH1 0x7 DUP2 SWAP1 SSTORE POP PUSH32 0x6BBC57480A46553FA4D156CE702BEEF5F3AD66303B0ED1A5D4CB44966C6584C3 DUP2 PUSH1 0x40 MLOAD PUSH2 0xF1E SWAP2 SWAP1 PUSH2 0x2C7B JUMP JUMPDEST PUSH1 0x40 MLOAD DUP1 SWAP2 SUB SWAP1 LOG1 POP JUMP JUMPDEST DUP1 PUSH1 0x0 PUSH20 0xFFFFFFFFFFFFFFFFFFFFFFFFFFFFFFFFFFFFFFFF AND PUSH1 0x3 PUSH1 0x0 DUP4 DUP2 MSTORE PUSH1 0x20 ADD SWAP1 DUP2 MSTORE PUSH1 0x20 ADD PUSH1 0x0 KECCAK256 PUSH1 0x1 ADD PUSH1 0x0 SWAP1 SLOAD SWAP1 PUSH2 0x100 EXP SWAP1 DIV PUSH20 0xFFFFFFFFFFFFFFFFFFFFFFFFFFFFFFFFFFFFFFFF AND PUSH20 0xFFFFFFFFFFFFFFFFFFFFFFFFFFFFFFFFFFFFFFFF AND EQ ISZERO PUSH2 0xFD0 JUMPI PUSH1 0x40 MLOAD PUSH32 0x8C379A000000000000000000000000000000000000000000000000000000000 DUP2 MSTORE PUSH1 0x4 ADD PUSH2 0xFC7 SWAP1 PUSH2 0x2B9B JUMP JUMPDEST PUSH1 0x40 MLOAD DUP1 SWAP2 SUB SWAP1 REVERT JUMPDEST DUP2 CALLER PUSH20 0xFFFFFFFFFFFFFFFFFFFFFFFFFFFFFFFFFFFFFFFF AND PUSH1 0x3 PUSH1 0x0 DUP4 DUP2 MSTORE PUSH1 0x20 ADD SWAP1 DUP2 MSTORE PUSH1 0x20 ADD PUSH1 0x0 KECCAK256 PUSH1 0x1 ADD PUSH1 0x0 SWAP1 SLOAD SWAP1 PUSH2 0x100 EXP SWAP1 DIV PUSH20 0xFFFFFFFFFFFFFFFFFFFFFFFFFFFFFFFFFFFFFFFF AND PUSH20 0xFFFFFFFFFFFFFFFFFFFFFFFFFFFFFFFFFFFFFFFF AND EQ PUSH2 0x1075 JUMPI PUSH1 0x40 MLOAD PUSH32 0x8C379A000000000000000000000000000000000000000000000000000000000 DUP2 MSTORE PUSH1 0x4 ADD PUSH2 0x106C SWAP1 PUSH2 0x2BBB JUMP JUMPDEST PUSH1 0x40 MLOAD DUP1 SWAP2 SUB SWAP1 REVERT JUMPDEST DUP3 PUSH1 0x1 PUSH1 0x3 PUSH1 0x0 DUP4 DUP2 MSTORE PUSH1 0x20 ADD SWAP1 DUP2 MSTORE PUSH1 0x20 ADD PUSH1 0x0 KECCAK256 PUSH1 0x2 ADD SLOAD EQ PUSH2 0x10CF JUMPI PUSH1 0x40 MLOAD PUSH32 0x8C379A000000000000000000000000000000000000000000000000000000000 DUP2 MSTORE PUSH1 0x4 ADD PUSH2 0x10C6 SWAP1 PUSH2 0x2B3B JUMP JUMPDEST PUSH1 0x40 MLOAD DUP1 SWAP2 SUB SWAP1 REVERT JUMPDEST PUSH1 0x3 DUP1 PUSH1 0x0 DUP7 DUP2 MSTORE PUSH1 0x20 ADD SWAP1 DUP2 MSTORE PUSH1 0x20 ADD PUSH1 0x0 KECCAK256 PUSH1 0x2 ADD DUP2 SWAP1 SSTORE POP PUSH31 0x933D644A694D122358BE17A9D7642BA5DFAAE41AF75919AAB4D6E727915AFA DUP5 PUSH1 0x3 PUSH1 0x40 MLOAD PUSH2 0x111B SWAP3 SWAP2 SWAP1 PUSH2 0x2CCD JUMP JUMPDEST PUSH1 0x40 MLOAD DUP1 SWAP2 SUB SWAP1 LOG1 POP POP POP POP JUMP JUMPDEST PUSH2 0x1131 PUSH2 0x1F46 JUMP JUMPDEST PUSH20 0xFFFFFFFFFFFFFFFFFFFFFFFFFFFFFFFFFFFFFFFF AND PUSH2 0x114F PUSH2 0x140F JUMP JUMPDEST PUSH20 0xFFFFFFFFFFFFFFFFFFFFFFFFFFFFFFFFFFFFFFFF AND EQ PUSH2 0x11A5 JUMPI PUSH1 0x40 MLOAD PUSH32 0x8C379A000000000000000000000000000000000000000000000000000000000 DUP2 MSTORE PUSH1 0x4 ADD PUSH2 0x119C SWAP1 PUSH2 0x2B7B JUMP JUMPDEST PUSH1 0x40 MLOAD DUP1 SWAP2 SUB SWAP1 REVERT JUMPDEST PUSH2 0x11AF PUSH1 0x0 PUSH2 0x2066 JUMP JUMPDEST JUMP JUMPDEST PUSH1 0x6 PUSH1 0x20 MSTORE DUP2 PUSH1 0x0 MSTORE PUSH1 0x40 PUSH1 0x0 KECCAK256 DUP2 DUP2 SLOAD DUP2 LT PUSH2 0x11CD JUMPI PUSH1 0x0 DUP1 REVERT JUMPDEST SWAP1 PUSH1 0x0 MSTORE PUSH1 0x20 PUSH1 0x0 KECCAK256 ADD PUSH1 0x0 SWAP2 POP SWAP2 POP POP SLOAD DUP2 JUMP JUMPDEST DUP1 PUSH1 0x0 PUSH20 0xFFFFFFFFFFFFFFFFFFFFFFFFFFFFFFFFFFFFFFFF AND PUSH1 0x3 PUSH1 0x0 DUP4 DUP2 MSTORE PUSH1 0x20 ADD SWAP1 DUP2 MSTORE PUSH1 0x20 ADD PUSH1 0x0 KECCAK256 PUSH1 0x1 ADD PUSH1 0x0 SWAP1 SLOAD SWAP1 PUSH2 0x100 EXP SWAP1 DIV PUSH20 0xFFFFFFFFFFFFFFFFFFFFFFFFFFFFFFFFFFFFFFFF AND PUSH20 0xFFFFFFFFFFFFFFFFFFFFFFFFFFFFFFFFFFFFFFFF AND EQ ISZERO PUSH2 0x1289 JUMPI PUSH1 0x40 MLOAD PUSH32 0x8C379A000000000000000000000000000000000000000000000000000000000 DUP2 MSTORE PUSH1 0x4 ADD PUSH2 0x1280 SWAP1 PUSH2 0x2B9B JUMP JUMPDEST PUSH1 0x40 MLOAD DUP1 SWAP2 SUB SWAP1 REVERT JUMPDEST DUP2 CALLER PUSH20 0xFFFFFFFFFFFFFFFFFFFFFFFFFFFFFFFFFFFFFFFF AND PUSH1 0x3 PUSH1 0x0 DUP4 DUP2 MSTORE PUSH1 0x20 ADD SWAP1 DUP2 MSTORE PUSH1 0x20 ADD PUSH1 0x0 KECCAK256 PUSH1 0x1 ADD PUSH1 0x0 SWAP1 SLOAD SWAP1 PUSH2 0x100 EXP SWAP1 DIV PUSH20 0xFFFFFFFFFFFFFFFFFFFFFFFFFFFFFFFFFFFFFFFF AND PUSH20 0xFFFFFFFFFFFFFFFFFFFFFFFFFFFFFFFFFFFFFFFF AND EQ PUSH2 0x132E JUMPI PUSH1 0x40 MLOAD PUSH32 0x8C379A000000000000000000000000000000000000000000000000000000000 DUP2 MSTORE PUSH1 0x4 ADD PUSH2 0x1325 SWAP1 PUSH2 0x2BBB JUMP JUMPDEST PUSH1 0x40 MLOAD DUP1 SWAP2 SUB SWAP1 REVERT JUMPDEST DUP3 PUSH1 0x2 PUSH1 0x3 PUSH1 0x0 DUP4 DUP2 MSTORE PUSH1 0x20 ADD SWAP1 DUP2 MSTORE PUSH1 0x20 ADD PUSH1 0x0 KECCAK256 PUSH1 0x2 ADD SLOAD EQ PUSH2 0x1388 JUMPI PUSH1 0x40 MLOAD PUSH32 0x8C379A000000000000000000000000000000000000000000000000000000000 DUP2 MSTORE PUSH1 0x4 ADD PUSH2 0x137F SWAP1 PUSH2 0x2BDB JUMP JUMPDEST PUSH1 0x40 MLOAD DUP1 SWAP2 SUB SWAP1 REVERT JUMPDEST PUSH1 0x3 DUP1 PUSH1 0x0 DUP7 DUP2 MSTORE PUSH1 0x20 ADD SWAP1 DUP2 MSTORE PUSH1 0x20 ADD PUSH1 0x0 KECCAK256 PUSH1 0x2 ADD DUP2 SWAP1 SSTORE POP PUSH31 0x933D644A694D122358BE17A9D7642BA5DFAAE41AF75919AAB4D6E727915AFA DUP5 PUSH1 0x3 PUSH1 0x40 MLOAD PUSH2 0x13D4 SWAP3 SWAP2 SWAP1 PUSH2 0x2CCD JUMP JUMPDEST PUSH1 0x40 MLOAD DUP1 SWAP2 SUB SWAP1 LOG1 POP POP POP POP JUMP JUMPDEST PUSH1 0x0 PUSH1 0x1 PUSH1 0x0 DUP4 DUP2 MSTORE PUSH1 0x20 ADD SWAP1 DUP2 MSTORE PUSH1 0x20 ADD PUSH1 0x0 KECCAK256 PUSH1 0x0 ADD PUSH1 0x0 SWAP1 SLOAD SWAP1 PUSH2 0x100 EXP SWAP1 DIV PUSH1 0xFF AND SWAP1 POP SWAP2 SWAP1 POP JUMP JUMPDEST PUSH1 0x0 PUSH1 0x2 PUSH1 0x0 SWAP1 SLOAD SWAP1 PUSH2 0x100 EXP SWAP1 DIV PUSH20 0xFFFFFFFFFFFFFFFFFFFFFFFFFFFFFFFFFFFFFFFF AND SWAP1 POP SWAP1 JUMP JUMPDEST PUSH1 0x0 PUSH1 0x1 PUSH1 0x0 DUP4 DUP2 MSTORE PUSH1 0x20 ADD SWAP1 DUP2 MSTORE PUSH1 0x20 ADD PUSH1 0x0 KECCAK256 PUSH1 0x1 ADD SLOAD SWAP1 POP SWAP2 SWAP1 POP JUMP JUMPDEST DUP1 PUSH1 0x0 PUSH20 0xFFFFFFFFFFFFFFFFFFFFFFFFFFFFFFFFFFFFFFFF AND PUSH1 0x3 PUSH1 0x0 DUP4 DUP2 MSTORE PUSH1 0x20 ADD SWAP1 DUP2 MSTORE PUSH1 0x20 ADD PUSH1 0x0 KECCAK256 PUSH1 0x1 ADD PUSH1 0x0 SWAP1 SLOAD SWAP1 PUSH2 0x100 EXP SWAP1 DIV PUSH20 0xFFFFFFFFFFFFFFFFFFFFFFFFFFFFFFFFFFFFFFFF AND PUSH20 0xFFFFFFFFFFFFFFFFFFFFFFFFFFFFFFFFFFFFFFFF AND EQ ISZERO PUSH2 0x1500 JUMPI PUSH1 0x40 MLOAD PUSH32 0x8C379A000000000000000000000000000000000000000000000000000000000 DUP2 MSTORE PUSH1 0x4 ADD PUSH2 0x14F7 SWAP1 PUSH2 0x2B9B JUMP JUMPDEST PUSH1 0x40 MLOAD DUP1 SWAP2 SUB SWAP1 REVERT JUMPDEST DUP2 CALLER PUSH20 0xFFFFFFFFFFFFFFFFFFFFFFFFFFFFFFFFFFFFFFFF AND PUSH1 0x3 PUSH1 0x0 DUP4 DUP2 MSTORE PUSH1 0x20 ADD SWAP1 DUP2 MSTORE PUSH1 0x20 ADD PUSH1 0x0 KECCAK256 PUSH1 0x1 ADD PUSH1 0x0 SWAP1 SLOAD SWAP1 PUSH2 0x100 EXP SWAP1 DIV PUSH20 0xFFFFFFFFFFFFFFFFFFFFFFFFFFFFFFFFFFFFFFFF AND PUSH20 0xFFFFFFFFFFFFFFFFFFFFFFFFFFFFFFFFFFFFFFFF AND EQ PUSH2 0x15A5 JUMPI PUSH1 0x40 MLOAD PUSH32 0x8C379A000000000000000000000000000000000000000000000000000000000 DUP2 MSTORE PUSH1 0x4 ADD PUSH2 0x159C SWAP1 PUSH2 0x2BBB JUMP JUMPDEST PUSH1 0x40 MLOAD DUP1 SWAP2 SUB SWAP1 REVERT JUMPDEST DUP3 PUSH1 0x3 DUP1 PUSH1 0x0 DUP4 DUP2 MSTORE PUSH1 0x20 ADD SWAP1 DUP2 MSTORE PUSH1 0x20 ADD PUSH1 0x0 KECCAK256 PUSH1 0x2 ADD SLOAD EQ PUSH2 0x15FE JUMPI PUSH1 0x40 MLOAD PUSH32 0x8C379A000000000000000000000000000000000000000000000000000000000 DUP2 MSTORE PUSH1 0x4 ADD PUSH2 0x15F5 SWAP1 PUSH2 0x2ABB JUMP JUMPDEST PUSH1 0x40 MLOAD DUP1 SWAP2 SUB SWAP1 REVERT JUMPDEST PUSH1 0x2 PUSH1 0x3 PUSH1 0x0 DUP7 DUP2 MSTORE PUSH1 0x20 ADD SWAP1 DUP2 MSTORE PUSH1 0x20 ADD PUSH1 0x0 KECCAK256 PUSH1 0x2 ADD DUP2 SWAP1 SSTORE POP PUSH31 0x933D644A694D122358BE17A9D7642BA5DFAAE41AF75919AAB4D6E727915AFA DUP5 PUSH1 0x2 PUSH1 0x40 MLOAD PUSH2 0x164B SWAP3 SWAP2 SWAP1 PUSH2 0x2CCD JUMP JUMPDEST PUSH1 0x40 MLOAD DUP1 SWAP2 SUB SWAP1 LOG1 POP POP POP POP JUMP JUMPDEST PUSH1 0x0 PUSH1 0x1 PUSH1 0x0 DUP4 DUP2 MSTORE PUSH1 0x20 ADD SWAP1 DUP2 MSTORE PUSH1 0x20 ADD PUSH1 0x0 KECCAK256 PUSH1 0x2 ADD SLOAD SWAP1 POP SWAP2 SWAP1 POP JUMP JUMPDEST PUSH1 0x3 PUSH1 0x20 MSTORE DUP1 PUSH1 0x0 MSTORE PUSH1 0x40 PUSH1 0x0 KECCAK256 PUSH1 0x0 SWAP2 POP SWAP1 POP DUP1 PUSH1 0x0 ADD SLOAD SWAP1 DUP1 PUSH1 0x1 ADD PUSH1 0x0 SWAP1 SLOAD SWAP1 PUSH2 0x100 EXP SWAP1 DIV PUSH20 0xFFFFFFFFFFFFFFFFFFFFFFFFFFFFFFFFFFFFFFFF AND SWAP1 DUP1 PUSH1 0x2 ADD SLOAD SWAP1 POP DUP4 JUMP JUMPDEST PUSH1 0x7 SLOAD CALLVALUE LT ISZERO PUSH2 0x1708 JUMPI PUSH1 0x40 MLOAD PUSH32 0x8C379A000000000000000000000000000000000000000000000000000000000 DUP2 MSTORE PUSH1 0x4 ADD PUSH2 0x16FF SWAP1 PUSH2 0x2ADB JUMP JUMPDEST PUSH1 0x40 MLOAD DUP1 SWAP2 SUB SWAP1 REVERT JUMPDEST PUSH2 0x1715 DUP2 PUSH1 0x14 PUSH1 0x0 PUSH2 0x212C JUMP JUMPDEST PUSH1 0x40 MLOAD DUP1 PUSH1 0x60 ADD PUSH1 0x40 MSTORE DUP1 DUP3 DUP2 MSTORE PUSH1 0x20 ADD CALLER PUSH20 0xFFFFFFFFFFFFFFFFFFFFFFFFFFFFFFFFFFFFFFFF AND DUP2 MSTORE PUSH1 0x20 ADD PUSH1 0x1 DUP2 MSTORE POP PUSH1 0x3 PUSH1 0x0 DUP4 DUP2 MSTORE PUSH1 0x20 ADD SWAP1 DUP2 MSTORE PUSH1 0x20 ADD PUSH1 0x0 KECCAK256 PUSH1 0x0 DUP3 ADD MLOAD DUP2 PUSH1 0x0 ADD SSTORE PUSH1 0x20 DUP3 ADD MLOAD DUP2 PUSH1 0x1 ADD PUSH1 0x0 PUSH2 0x100 EXP DUP2 SLOAD DUP2 PUSH20 0xFFFFFFFFFFFFFFFFFFFFFFFFFFFFFFFFFFFFFFFF MUL NOT AND SWAP1 DUP4 PUSH20 0xFFFFFFFFFFFFFFFFFFFFFFFFFFFFFFFFFFFFFFFF AND MUL OR SWAP1 SSTORE POP PUSH1 0x40 DUP3 ADD MLOAD DUP2 PUSH1 0x2 ADD SSTORE SWAP1 POP POP DUP1 PUSH32 0x80EB16B9E18C05F6C250357758C0F8972E8B34D8F739057CE9D1BA145560AC0C PUSH1 0x40 MLOAD PUSH1 0x40 MLOAD DUP1 SWAP2 SUB SWAP1 LOG2 POP JUMP JUMPDEST PUSH1 0x0 PUSH1 0x7 SLOAD SWAP1 POP SWAP1 JUMP JUMPDEST DUP7 PUSH1 0x0 PUSH20 0xFFFFFFFFFFFFFFFFFFFFFFFFFFFFFFFFFFFFFFFF AND PUSH1 0x3 PUSH1 0x0 DUP4 DUP2 MSTORE PUSH1 0x20 ADD SWAP1 DUP2 MSTORE PUSH1 0x20 ADD PUSH1 0x0 KECCAK256 PUSH1 0x1 ADD PUSH1 0x0 SWAP1 SLOAD SWAP1 PUSH2 0x100 EXP SWAP1 DIV PUSH20 0xFFFFFFFFFFFFFFFFFFFFFFFFFFFFFFFFFFFFFFFF AND PUSH20 0xFFFFFFFFFFFFFFFFFFFFFFFFFFFFFFFFFFFFFFFF AND EQ ISZERO PUSH2 0x1899 JUMPI PUSH1 0x40 MLOAD PUSH32 0x8C379A000000000000000000000000000000000000000000000000000000000 DUP2 MSTORE PUSH1 0x4 ADD PUSH2 0x1890 SWAP1 PUSH2 0x2B9B JUMP JUMPDEST PUSH1 0x40 MLOAD DUP1 SWAP2 SUB SWAP1 REVERT JUMPDEST DUP8 PUSH1 0x3 DUP1 PUSH1 0x0 DUP4 DUP2 MSTORE PUSH1 0x20 ADD SWAP1 DUP2 MSTORE PUSH1 0x20 ADD PUSH1 0x0 KECCAK256 PUSH1 0x2 ADD SLOAD EQ PUSH2 0x18F2 JUMPI PUSH1 0x40 MLOAD PUSH32 0x8C379A000000000000000000000000000000000000000000000000000000000 DUP2 MSTORE PUSH1 0x4 ADD PUSH2 0x18E9 SWAP1 PUSH2 0x2ABB JUMP JUMPDEST PUSH1 0x40 MLOAD DUP1 SWAP2 SUB SWAP1 REVERT JUMPDEST DUP9 PUSH1 0x64 PUSH1 0x6 PUSH1 0x0 DUP4 DUP2 MSTORE PUSH1 0x20 ADD SWAP1 DUP2 MSTORE PUSH1 0x20 ADD PUSH1 0x0 KECCAK256 DUP1 SLOAD SWAP1 POP LT PUSH2 0x194C JUMPI PUSH1 0x40 MLOAD PUSH32 0x8C379A000000000000000000000000000000000000000000000000000000000 DUP2 MSTORE PUSH1 0x4 ADD PUSH2 0x1943 SWAP1 PUSH2 0x2A5B JUMP JUMPDEST PUSH1 0x40 MLOAD DUP1 SWAP2 SUB SWAP1 REVERT JUMPDEST PUSH2 0x197C DUP9 DUP9 DUP9 DUP9 DUP9 PUSH1 0x8 PUSH1 0x0 SWAP1 SLOAD SWAP1 PUSH2 0x100 EXP SWAP1 DIV PUSH20 0xFFFFFFFFFFFFFFFFFFFFFFFFFFFFFFFFFFFFFFFF AND PUSH2 0x1B99 JUMP JUMPDEST PUSH2 0x19BB JUMPI PUSH1 0x40 MLOAD PUSH32 0x8C379A000000000000000000000000000000000000000000000000000000000 DUP2 MSTORE PUSH1 0x4 ADD PUSH2 0x19B2 SWAP1 PUSH2 0x2AFB JUMP JUMPDEST PUSH1 0x40 MLOAD DUP1 SWAP2 SUB SWAP1 REVERT JUMPDEST PUSH1 0x0 DUP10 PUSH1 0x40 MLOAD PUSH1 0x20 ADD PUSH2 0x19CE SWAP2 SWAP1 PUSH2 0x2981 JUMP JUMPDEST PUSH1 0x40 MLOAD PUSH1 0x20 DUP2 DUP4 SUB SUB DUP2 MSTORE SWAP1 PUSH1 0x40 MSTORE DUP1 MLOAD SWAP1 PUSH1 0x20 ADD KECCAK256 SWAP1 POP PUSH1 0x0 PUSH1 0x40 MLOAD DUP1 PUSH1 0x40 ADD PUSH1 0x40 MSTORE DUP1 DUP13 DUP2 MSTORE PUSH1 0x20 ADD PUSH1 0x0 DUP2 MSTORE POP SWAP1 POP DUP1 PUSH1 0x4 PUSH1 0x0 DUP5 DUP2 MSTORE PUSH1 0x20 ADD SWAP1 DUP2 MSTORE PUSH1 0x20 ADD PUSH1 0x0 KECCAK256 PUSH1 0x0 DUP3 ADD MLOAD DUP2 PUSH1 0x0 ADD SSTORE PUSH1 0x20 DUP3 ADD MLOAD DUP2 PUSH1 0x1 ADD SSTORE SWAP1 POP POP PUSH2 0x1A34 DUP9 PUSH2 0x1F18 JUMP JUMPDEST PUSH32 0x37E674DDE5BCCCDA4110EC8ABE4DAAF45C9C378D8185AEC68673556E042E1E9F DUP13 DUP13 DUP13 PUSH1 0x40 MLOAD PUSH2 0x1A67 SWAP4 SWAP3 SWAP2 SWAP1 PUSH2 0x2CF6 JUMP JUMPDEST PUSH1 0x40 MLOAD DUP1 SWAP2 SUB SWAP1 LOG1 POP POP POP POP POP POP POP POP POP POP POP POP JUMP JUMPDEST PUSH2 0x1A85 PUSH2 0x1F46 JUMP JUMPDEST PUSH20 0xFFFFFFFFFFFFFFFFFFFFFFFFFFFFFFFFFFFFFFFF AND PUSH2 0x1AA3 PUSH2 0x140F JUMP JUMPDEST PUSH20 0xFFFFFFFFFFFFFFFFFFFFFFFFFFFFFFFFFFFFFFFF AND EQ PUSH2 0x1AF9 JUMPI PUSH1 0x40 MLOAD PUSH32 0x8C379A000000000000000000000000000000000000000000000000000000000 DUP2 MSTORE PUSH1 0x4 ADD PUSH2 0x1AF0 SWAP1 PUSH2 0x2B7B JUMP JUMPDEST PUSH1 0x40 MLOAD DUP1 SWAP2 SUB SWAP1 REVERT JUMPDEST PUSH1 0x0 PUSH20 0xFFFFFFFFFFFFFFFFFFFFFFFFFFFFFFFFFFFFFFFF AND DUP2 PUSH20 0xFFFFFFFFFFFFFFFFFFFFFFFFFFFFFFFFFFFFFFFF AND EQ ISZERO PUSH2 0x1B69 JUMPI PUSH1 0x40 MLOAD PUSH32 0x8C379A000000000000000000000000000000000000000000000000000000000 DUP2 MSTORE PUSH1 0x4 ADD PUSH2 0x1B60 SWAP1 PUSH2 0x2A7B JUMP JUMPDEST PUSH1 0x40 MLOAD DUP1 SWAP2 SUB SWAP1 REVERT JUMPDEST PUSH2 0x1B72 DUP2 PUSH2 0x2066 JUMP JUMPDEST POP JUMP JUMPDEST PUSH1 0x4 PUSH1 0x20 MSTORE DUP1 PUSH1 0x0 MSTORE PUSH1 0x40 PUSH1 0x0 KECCAK256 PUSH1 0x0 SWAP2 POP SWAP1 POP DUP1 PUSH1 0x0 ADD SLOAD SWAP1 DUP1 PUSH1 0x1 ADD SLOAD SWAP1 POP DUP3 JUMP JUMPDEST PUSH1 0x0 DUP1 PUSH1 0x0 DUP7 DUP2 MSTORE PUSH1 0x20 ADD SWAP1 DUP2 MSTORE PUSH1 0x20 ADD PUSH1 0x0 KECCAK256 PUSH1 0x0 SWAP1 SLOAD SWAP1 PUSH2 0x100 EXP SWAP1 DIV PUSH1 0xFF AND ISZERO PUSH2 0x1BFB JUMPI PUSH1 0x40 MLOAD PUSH32 0x8C379A000000000000000000000000000000000000000000000000000000000 DUP2 MSTORE PUSH1 0x4 ADD PUSH2 0x1BF2 SWAP1 PUSH2 0x2A3B JUMP JUMPDEST PUSH1 0x40 MLOAD DUP1 SWAP2 SUB SWAP1 REVERT JUMPDEST PUSH1 0x0 PUSH2 0x1C06 DUP9 PUSH2 0x229A JUMP JUMPDEST SWAP1 POP DUP3 PUSH20 0xFFFFFFFFFFFFFFFFFFFFFFFFFFFFFFFFFFFFFFFF AND PUSH4 0x5FE8C13B PUSH1 0x40 MLOAD DUP1 PUSH1 0x40 ADD PUSH1 0x40 MSTORE DUP1 DUP8 PUSH1 0x0 PUSH1 0x8 DUP2 LT PUSH2 0x1C69 JUMPI PUSH32 0x4E487B7100000000000000000000000000000000000000000000000000000000 PUSH1 0x0 MSTORE PUSH1 0x32 PUSH1 0x4 MSTORE PUSH1 0x24 PUSH1 0x0 REVERT JUMPDEST PUSH1 0x20 MUL ADD CALLDATALOAD DUP2 MSTORE PUSH1 0x20 ADD DUP8 PUSH1 0x1 PUSH1 0x8 DUP2 LT PUSH2 0x1CAD JUMPI PUSH32 0x4E487B7100000000000000000000000000000000000000000000000000000000 PUSH1 0x0 MSTORE PUSH1 0x32 PUSH1 0x4 MSTORE PUSH1 0x24 PUSH1 0x0 REVERT JUMPDEST PUSH1 0x20 MUL ADD CALLDATALOAD DUP2 MSTORE POP PUSH1 0x40 MLOAD DUP1 PUSH1 0x40 ADD PUSH1 0x40 MSTORE DUP1 PUSH1 0x40 MLOAD DUP1 PUSH1 0x40 ADD PUSH1 0x40 MSTORE DUP1 DUP11 PUSH1 0x2 PUSH1 0x8 DUP2 LT PUSH2 0x1D05 JUMPI PUSH32 0x4E487B7100000000000000000000000000000000000000000000000000000000 PUSH1 0x0 MSTORE PUSH1 0x32 PUSH1 0x4 MSTORE PUSH1 0x24 PUSH1 0x0 REVERT JUMPDEST PUSH1 0x20 MUL ADD CALLDATALOAD DUP2 MSTORE PUSH1 0x20 ADD DUP11 PUSH1 0x3 PUSH1 0x8 DUP2 LT PUSH2 0x1D49 JUMPI PUSH32 0x4E487B7100000000000000000000000000000000000000000000000000000000 PUSH1 0x0 MSTORE PUSH1 0x32 PUSH1 0x4 MSTORE PUSH1 0x24 PUSH1 0x0 REVERT JUMPDEST PUSH1 0x20 MUL ADD CALLDATALOAD DUP2 MSTORE POP DUP2 MSTORE PUSH1 0x20 ADD PUSH1 0x40 MLOAD DUP1 PUSH1 0x40 ADD PUSH1 0x40 MSTORE DUP1 DUP11 PUSH1 0x4 PUSH1 0x8 DUP2 LT PUSH2 0x1D9B JUMPI PUSH32 0x4E487B7100000000000000000000000000000000000000000000000000000000 PUSH1 0x0 MSTORE PUSH1 0x32 PUSH1 0x4 MSTORE PUSH1 0x24 PUSH1 0x0 REVERT JUMPDEST PUSH1 0x20 MUL ADD CALLDATALOAD DUP2 MSTORE PUSH1 0x20 ADD DUP11 PUSH1 0x5 PUSH1 0x8 DUP2 LT PUSH2 0x1DDF JUMPI PUSH32 0x4E487B7100000000000000000000000000000000000000000000000000000000 PUSH1 0x0 MSTORE PUSH1 0x32 PUSH1 0x4 MSTORE PUSH1 0x24 PUSH1 0x0 REVERT JUMPDEST PUSH1 0x20 MUL ADD CALLDATALOAD DUP2 MSTORE POP DUP2 MSTORE POP PUSH1 0x40 MLOAD DUP1 PUSH1 0x40 ADD PUSH1 0x40 MSTORE DUP1 DUP10 PUSH1 0x6 PUSH1 0x8 DUP2 LT PUSH2 0x1E2F JUMPI PUSH32 0x4E487B7100000000000000000000000000000000000000000000000000000000 PUSH1 0x0 MSTORE PUSH1 0x32 PUSH1 0x4 MSTORE PUSH1 0x24 PUSH1 0x0 REVERT JUMPDEST PUSH1 0x20 MUL ADD CALLDATALOAD DUP2 MSTORE PUSH1 0x20 ADD DUP10 PUSH1 0x7 PUSH1 0x8 DUP2 LT PUSH2 0x1E73 JUMPI PUSH32 0x4E487B7100000000000000000000000000000000000000000000000000000000 PUSH1 0x0 MSTORE PUSH1 0x32 PUSH1 0x4 MSTORE PUSH1 0x24 PUSH1 0x0 REVERT JUMPDEST PUSH1 0x20 MUL ADD CALLDATALOAD DUP2 MSTORE POP PUSH1 0x40 MLOAD DUP1 PUSH1 0x80 ADD PUSH1 0x40 MSTORE DUP1 DUP14 DUP2 MSTORE PUSH1 0x20 ADD DUP13 DUP2 MSTORE PUSH1 0x20 ADD DUP8 DUP2 MSTORE PUSH1 0x20 ADD DUP12 DUP2 MSTORE POP PUSH1 0x40 MLOAD DUP6 PUSH4 0xFFFFFFFF AND PUSH1 0xE0 SHL DUP2 MSTORE PUSH1 0x4 ADD PUSH2 0x1EBB SWAP5 SWAP4 SWAP3 SWAP2 SWAP1 PUSH2 0x29B7 JUMP JUMPDEST PUSH1 0x20 PUSH1 0x40 MLOAD DUP1 DUP4 SUB DUP2 DUP7 DUP1 EXTCODESIZE ISZERO DUP1 ISZERO PUSH2 0x1ED3 JUMPI PUSH1 0x0 DUP1 REVERT JUMPDEST POP GAS STATICCALL ISZERO DUP1 ISZERO PUSH2 0x1EE7 JUMPI RETURNDATASIZE PUSH1 0x0 DUP1 RETURNDATACOPY RETURNDATASIZE PUSH1 0x0 REVERT JUMPDEST POP POP POP POP PUSH1 0x40 MLOAD RETURNDATASIZE PUSH1 0x1F NOT PUSH1 0x1F DUP3 ADD AND DUP3 ADD DUP1 PUSH1 0x40 MSTORE POP DUP2 ADD SWAP1 PUSH2 0x1F0B SWAP2 SWAP1 PUSH2 0x236C JUMP JUMPDEST SWAP2 POP POP SWAP7 SWAP6 POP POP POP POP POP POP JUMP JUMPDEST PUSH1 0x1 PUSH1 0x0 DUP1 DUP4 DUP2 MSTORE PUSH1 0x20 ADD SWAP1 DUP2 MSTORE PUSH1 0x20 ADD PUSH1 0x0 KECCAK256 PUSH1 0x0 PUSH2 0x100 EXP DUP2 SLOAD DUP2 PUSH1 0xFF MUL NOT AND SWAP1 DUP4 ISZERO ISZERO MUL OR SWAP1 SSTORE POP POP JUMP JUMPDEST PUSH1 0x0 CALLER SWAP1 POP SWAP1 JUMP JUMPDEST PUSH1 0x0 PUSH2 0x1F59 DUP4 PUSH2 0x13E2 JUMP JUMPDEST PUSH1 0xFF AND EQ ISZERO PUSH2 0x1F9D JUMPI PUSH1 0x40 MLOAD PUSH32 0x8C379A000000000000000000000000000000000000000000000000000000000 DUP2 MSTORE PUSH1 0x4 ADD PUSH2 0x1F94 SWAP1 PUSH2 0x2B5B JUMP JUMPDEST PUSH1 0x40 MLOAD DUP1 SWAP2 SUB SWAP1 REVERT JUMPDEST PUSH1 0x1 PUSH1 0x0 DUP4 DUP2 MSTORE PUSH1 0x20 ADD SWAP1 DUP2 MSTORE PUSH1 0x20 ADD PUSH1 0x0 KECCAK256 PUSH20 0x0 PUSH4 0x168703FA SWAP1 SWAP2 DUP4 PUSH1 0x40 MLOAD DUP4 PUSH4 0xFFFFFFFF AND PUSH1 0xE0 SHL DUP2 MSTORE PUSH1 0x4 ADD PUSH2 0x1FEA SWAP3 SWAP2 SWAP1 PUSH2 0x2C1B JUMP JUMPDEST PUSH1 0x0 PUSH1 0x40 MLOAD DUP1 DUP4 SUB DUP2 DUP7 DUP1 EXTCODESIZE ISZERO DUP1 ISZERO PUSH2 0x2002 JUMPI PUSH1 0x0 DUP1 REVERT JUMPDEST POP GAS DELEGATECALL ISZERO DUP1 ISZERO PUSH2 0x2016 JUMPI RETURNDATASIZE PUSH1 0x0 DUP1 RETURNDATACOPY RETURNDATASIZE PUSH1 0x0 REVERT JUMPDEST POP POP POP POP PUSH1 0x0 PUSH2 0x2025 DUP4 PUSH2 0x1439 JUMP JUMPDEST SWAP1 POP DUP3 PUSH32 0x3FD27265B7DD1F55558BEDC22A58FA3B10AFB1BE776E614BD5A7BA7B9499406 DUP4 DUP4 PUSH1 0x40 MLOAD PUSH2 0x2059 SWAP3 SWAP2 SWAP1 PUSH2 0x2CCD JUMP JUMPDEST PUSH1 0x40 MLOAD DUP1 SWAP2 SUB SWAP1 LOG2 POP POP POP JUMP JUMPDEST PUSH1 0x0 PUSH1 0x2 PUSH1 0x0 SWAP1 SLOAD SWAP1 PUSH2 0x100 EXP SWAP1 DIV PUSH20 0xFFFFFFFFFFFFFFFFFFFFFFFFFFFFFFFFFFFFFFFF AND SWAP1 POP DUP2 PUSH1 0x2 PUSH1 0x0 PUSH2 0x100 EXP DUP2 SLOAD DUP2 PUSH20 0xFFFFFFFFFFFFFFFFFFFFFFFFFFFFFFFFFFFFFFFF MUL NOT AND SWAP1 DUP4 PUSH20 0xFFFFFFFFFFFFFFFFFFFFFFFFFFFFFFFFFFFFFFFF AND MUL OR SWAP1 SSTORE POP DUP2 PUSH20 0xFFFFFFFFFFFFFFFFFFFFFFFFFFFFFFFFFFFFFFFF AND DUP2 PUSH20 0xFFFFFFFFFFFFFFFFFFFFFFFFFFFFFFFFFFFFFFFF AND PUSH32 0x8BE0079C531659141344CD1FD0A4F28419497F9722A3DAAFE3B4186F6B6457E0 PUSH1 0x40 MLOAD PUSH1 0x40 MLOAD DUP1 SWAP2 SUB SWAP1 LOG3 POP POP JUMP JUMPDEST PUSH32 0x30644E72E131A029B85045B68181585D2833E84879B9709143E1F593F0000001 DUP4 LT PUSH2 0x218E JUMPI PUSH1 0x40 MLOAD PUSH32 0x8C379A000000000000000000000000000000000000000000000000000000000 DUP2 MSTORE PUSH1 0x4 ADD PUSH2 0x2185 SWAP1 PUSH2 0x2BFB JUMP JUMPDEST PUSH1 0x40 MLOAD DUP1 SWAP2 SUB SWAP1 REVERT JUMPDEST PUSH1 0x0 PUSH2 0x2199 DUP5 PUSH2 0x13E2 JUMP JUMPDEST PUSH1 0xFF AND EQ PUSH2 0x21DC JUMPI PUSH1 0x40 MLOAD PUSH32 0x8C379A000000000000000000000000000000000000000000000000000000000 DUP2 MSTORE PUSH1 0x4 ADD PUSH2 0x21D3 SWAP1 PUSH2 0x2A9B JUMP JUMPDEST PUSH1 0x40 MLOAD DUP1 SWAP2 SUB SWAP1 REVERT JUMPDEST PUSH1 0x1 PUSH1 0x0 DUP5 DUP2 MSTORE PUSH1 0x20 ADD SWAP1 DUP2 MSTORE PUSH1 0x20 ADD PUSH1 0x0 KECCAK256 PUSH20 0x0 PUSH4 0xB4BDD117 SWAP1 SWAP2 DUP5 DUP5 PUSH1 0x40 MLOAD DUP5 PUSH4 0xFFFFFFFF AND PUSH1 0xE0 SHL DUP2 MSTORE PUSH1 0x4 ADD PUSH2 0x222B SWAP4 SWAP3 SWAP2 SWAP1 PUSH2 0x2C44 JUMP JUMPDEST PUSH1 0x0 PUSH1 0x40 MLOAD DUP1 DUP4 SUB DUP2 DUP7 DUP1 EXTCODESIZE ISZERO DUP1 ISZERO PUSH2 0x2243 JUMPI PUSH1 0x0 DUP1 REVERT JUMPDEST POP GAS DELEGATECALL ISZERO DUP1 ISZERO PUSH2 0x2257 JUMPI RETURNDATASIZE PUSH1 0x0 DUP1 RETURNDATACOPY RETURNDATASIZE PUSH1 0x0 REVERT JUMPDEST POP POP POP POP DUP3 PUSH32 0xC3082AA494E9088C2C9F0FB62A0B6BD46E6699ACB94CFBA35BE29B95A93F68C8 DUP4 DUP4 PUSH1 0x40 MLOAD PUSH2 0x228D SWAP3 SWAP2 SWAP1 PUSH2 0x2D7F JUMP JUMPDEST PUSH1 0x40 MLOAD DUP1 SWAP2 SUB SWAP1 LOG2 POP POP POP JUMP JUMPDEST PUSH1 0x0 PUSH1 0x8 DUP3 PUSH1 0x40 MLOAD PUSH1 0x20 ADD PUSH2 0x22AF SWAP2 SWAP1 PUSH2 0x2966 JUMP JUMPDEST PUSH1 0x40 MLOAD PUSH1 0x20 DUP2 DUP4 SUB SUB DUP2 MSTORE SWAP1 PUSH1 0x40 MSTORE DUP1 MLOAD SWAP1 PUSH1 0x20 ADD KECCAK256 PUSH1 0x0 SHR SWAP1 SHR SWAP1 POP SWAP2 SWAP1 POP JUMP JUMPDEST PUSH1 0x0 DUP2 CALLDATALOAD SWAP1 POP PUSH2 0x22E0 DUP2 PUSH2 0x33CF JUMP JUMPDEST SWAP3 SWAP2 POP POP JUMP JUMPDEST PUSH1 0x0 DUP2 SWAP1 POP DUP3 PUSH1 0x20 PUSH1 0x8 MUL DUP3 ADD GT ISZERO PUSH2 0x22FE JUMPI PUSH1 0x0 DUP1 REVERT JUMPDEST SWAP3 SWAP2 POP POP JUMP JUMPDEST PUSH1 0x0 DUP2 MLOAD SWAP1 POP PUSH2 0x2313 DUP2 PUSH2 0x33E6 JUMP JUMPDEST SWAP3 SWAP2 POP POP JUMP JUMPDEST PUSH1 0x0 DUP2 CALLDATALOAD SWAP1 POP PUSH2 0x2328 DUP2 PUSH2 0x33FD JUMP JUMPDEST SWAP3 SWAP2 POP POP JUMP JUMPDEST PUSH1 0x0 DUP2 CALLDATALOAD SWAP1 POP PUSH2 0x233D DUP2 PUSH2 0x3414 JUMP JUMPDEST SWAP3 SWAP2 POP POP JUMP JUMPDEST PUSH1 0x0 PUSH1 0x20 DUP3 DUP5 SUB SLT ISZERO PUSH2 0x2355 JUMPI PUSH1 0x0 DUP1 REVERT JUMPDEST PUSH1 0x0 PUSH2 0x2363 DUP5 DUP3 DUP6 ADD PUSH2 0x22D1 JUMP JUMPDEST SWAP2 POP POP SWAP3 SWAP2 POP POP JUMP JUMPDEST PUSH1 0x0 PUSH1 0x20 DUP3 DUP5 SUB SLT ISZERO PUSH2 0x237E JUMPI PUSH1 0x0 DUP1 REVERT JUMPDEST PUSH1 0x0 PUSH2 0x238C DUP5 DUP3 DUP6 ADD PUSH2 0x2304 JUMP JUMPDEST SWAP2 POP POP SWAP3 SWAP2 POP POP JUMP JUMPDEST PUSH1 0x0 PUSH1 0x20 DUP3 DUP5 SUB SLT ISZERO PUSH2 0x23A7 JUMPI PUSH1 0x0 DUP1 REVERT JUMPDEST PUSH1 0x0 PUSH2 0x23B5 DUP5 DUP3 DUP6 ADD PUSH2 0x2319 JUMP JUMPDEST SWAP2 POP POP SWAP3 SWAP2 POP POP JUMP JUMPDEST PUSH1 0x0 PUSH1 0x20 DUP3 DUP5 SUB SLT ISZERO PUSH2 0x23D0 JUMPI PUSH1 0x0 DUP1 REVERT JUMPDEST PUSH1 0x0 PUSH2 0x23DE DUP5 DUP3 DUP6 ADD PUSH2 0x232E JUMP JUMPDEST SWAP2 POP POP SWAP3 SWAP2 POP POP JUMP JUMPDEST PUSH1 0x0 DUP1 PUSH1 0x40 DUP4 DUP6 SUB SLT ISZERO PUSH2 0x23FA JUMPI PUSH1 0x0 DUP1 REVERT JUMPDEST PUSH1 0x0 PUSH2 0x2408 DUP6 DUP3 DUP7 ADD PUSH2 0x232E JUMP JUMPDEST SWAP3 POP POP PUSH1 0x20 PUSH2 0x2419 DUP6 DUP3 DUP7 ADD PUSH2 0x232E JUMP JUMPDEST SWAP2 POP POP SWAP3 POP SWAP3 SWAP1 POP JUMP JUMPDEST PUSH1 0x0 DUP1 PUSH1 0x0 DUP1 PUSH1 0x0 DUP1 PUSH1 0x0 PUSH2 0x1C0 DUP9 DUP11 SUB SLT ISZERO PUSH2 0x243F JUMPI PUSH1 0x0 DUP1 REVERT JUMPDEST PUSH1 0x0 PUSH2 0x244D DUP11 DUP3 DUP12 ADD PUSH2 0x232E JUMP JUMPDEST SWAP8 POP POP PUSH1 0x20 PUSH2 0x245E DUP11 DUP3 DUP12 ADD PUSH2 0x232E JUMP JUMPDEST SWAP7 POP POP PUSH1 0x40 PUSH2 0x246F DUP11 DUP3 DUP12 ADD PUSH2 0x2319 JUMP JUMPDEST SWAP6 POP POP PUSH1 0x60 PUSH2 0x2480 DUP11 DUP3 DUP12 ADD PUSH2 0x232E JUMP JUMPDEST SWAP5 POP POP PUSH1 0x80 PUSH2 0x2491 DUP11 DUP3 DUP12 ADD PUSH2 0x232E JUMP JUMPDEST SWAP4 POP POP PUSH1 0xA0 PUSH2 0x24A2 DUP11 DUP3 DUP12 ADD PUSH2 0x232E JUMP JUMPDEST SWAP3 POP POP PUSH1 0xC0 PUSH2 0x24B3 DUP11 DUP3 DUP12 ADD PUSH2 0x22E6 JUMP JUMPDEST SWAP2 POP POP SWAP3 SWAP6 SWAP9 SWAP2 SWAP5 SWAP8 POP SWAP3 SWAP6 POP JUMP JUMPDEST PUSH1 0x0 PUSH2 0x24CE DUP4 DUP4 PUSH2 0x2558 JUMP JUMPDEST PUSH1 0x40 DUP4 ADD SWAP1 POP SWAP3 SWAP2 POP POP JUMP JUMPDEST PUSH1 0x0 PUSH2 0x24E6 DUP4 DUP4 PUSH2 0x2904 JUMP JUMPDEST PUSH1 0x20 DUP4 ADD SWAP1 POP SWAP3 SWAP2 POP POP JUMP JUMPDEST PUSH2 0x24FB DUP2 PUSH2 0x2EDA JUMP JUMPDEST DUP3 MSTORE POP POP JUMP JUMPDEST PUSH2 0x250A DUP2 PUSH2 0x2DD6 JUMP JUMPDEST PUSH2 0x2514 DUP2 DUP5 PUSH2 0x2E36 JUMP JUMPDEST SWAP3 POP PUSH2 0x251F DUP3 PUSH2 0x2DA8 JUMP JUMPDEST DUP1 PUSH1 0x0 JUMPDEST DUP4 DUP2 LT ISZERO PUSH2 0x2550 JUMPI DUP2 MLOAD PUSH2 0x2537 DUP8 DUP3 PUSH2 0x24C2 JUMP JUMPDEST SWAP7 POP PUSH2 0x2542 DUP4 PUSH2 0x2E02 JUMP JUMPDEST SWAP3 POP POP PUSH1 0x1 DUP2 ADD SWAP1 POP PUSH2 0x2523 JUMP JUMPDEST POP POP POP POP POP POP JUMP JUMPDEST PUSH2 0x2561 DUP2 PUSH2 0x2DE1 JUMP JUMPDEST PUSH2 0x256B DUP2 DUP5 PUSH2 0x2E41 JUMP JUMPDEST SWAP3 POP PUSH2 0x2576 DUP3 PUSH2 0x2DB2 JUMP JUMPDEST DUP1 PUSH1 0x0 JUMPDEST DUP4 DUP2 LT ISZERO PUSH2 0x25A7 JUMPI DUP2 MLOAD PUSH2 0x258E DUP8 DUP3 PUSH2 0x24DA JUMP JUMPDEST SWAP7 POP PUSH2 0x2599 DUP4 PUSH2 0x2E0F JUMP JUMPDEST SWAP3 POP POP PUSH1 0x1 DUP2 ADD SWAP1 POP PUSH2 0x257A JUMP JUMPDEST POP POP POP POP POP POP JUMP JUMPDEST PUSH2 0x25B8 DUP2 PUSH2 0x2DE1 JUMP JUMPDEST PUSH2 0x25C2 DUP2 DUP5 PUSH2 0x2E4C JUMP JUMPDEST SWAP3 POP PUSH2 0x25CD DUP3 PUSH2 0x2DB2 JUMP JUMPDEST DUP1 PUSH1 0x0 JUMPDEST DUP4 DUP2 LT ISZERO PUSH2 0x25FE JUMPI DUP2 MLOAD PUSH2 0x25E5 DUP8 DUP3 PUSH2 0x24DA JUMP JUMPDEST SWAP7 POP PUSH2 0x25F0 DUP4 PUSH2 0x2E0F JUMP JUMPDEST SWAP3 POP POP PUSH1 0x1 DUP2 ADD SWAP1 POP PUSH2 0x25D1 JUMP JUMPDEST POP POP POP POP POP POP JUMP JUMPDEST PUSH2 0x260F DUP2 PUSH2 0x2DEC JUMP JUMPDEST PUSH2 0x2619 DUP2 DUP5 PUSH2 0x2E57 JUMP JUMPDEST SWAP3 POP PUSH2 0x2624 DUP3 PUSH2 0x2DBC JUMP JUMPDEST DUP1 PUSH1 0x0 JUMPDEST DUP4 DUP2 LT ISZERO PUSH2 0x2655 JUMPI DUP2 MLOAD PUSH2 0x263C DUP8 DUP3 PUSH2 0x24DA JUMP JUMPDEST SWAP7 POP PUSH2 0x2647 DUP4 PUSH2 0x2E1C JUMP JUMPDEST SWAP3 POP POP PUSH1 0x1 DUP2 ADD SWAP1 POP PUSH2 0x2628 JUMP JUMPDEST POP POP POP POP POP POP JUMP JUMPDEST PUSH1 0x0 PUSH2 0x2668 DUP3 PUSH2 0x2DF7 JUMP JUMPDEST PUSH2 0x2672 DUP2 DUP6 PUSH2 0x2E62 JUMP JUMPDEST SWAP4 POP PUSH2 0x267D DUP4 PUSH2 0x2DC6 JUMP JUMPDEST DUP1 PUSH1 0x0 JUMPDEST DUP4 DUP2 LT ISZERO PUSH2 0x26AE JUMPI DUP2 MLOAD PUSH2 0x2695 DUP9 DUP3 PUSH2 0x24DA JUMP JUMPDEST SWAP8 POP PUSH2 0x26A0 DUP4 PUSH2 0x2E29 JUMP JUMPDEST SWAP3 POP POP PUSH1 0x1 DUP2 ADD SWAP1 POP PUSH2 0x2681 JUMP JUMPDEST POP DUP6 SWAP4 POP POP POP POP SWAP3 SWAP2 POP POP JUMP JUMPDEST PUSH2 0x26C4 DUP2 PUSH2 0x2EF8 JUMP JUMPDEST DUP3 MSTORE POP POP JUMP JUMPDEST PUSH2 0x26DB PUSH2 0x26D6 DUP3 PUSH2 0x2EF8 JUMP JUMPDEST PUSH2 0x2F5D JUMP JUMPDEST DUP3 MSTORE POP POP JUMP JUMPDEST PUSH2 0x26EA DUP2 PUSH2 0x2F39 JUMP JUMPDEST DUP3 MSTORE POP POP JUMP JUMPDEST PUSH1 0x0 PUSH2 0x26FD PUSH1 0x36 DUP4 PUSH2 0x2E73 JUMP JUMPDEST SWAP2 POP PUSH2 0x2708 DUP3 PUSH2 0x2FA0 JUMP JUMPDEST PUSH1 0x40 DUP3 ADD SWAP1 POP SWAP2 SWAP1 POP JUMP JUMPDEST PUSH1 0x0 PUSH2 0x2720 PUSH1 0x23 DUP4 PUSH2 0x2E73 JUMP JUMPDEST SWAP2 POP PUSH2 0x272B DUP3 PUSH2 0x2FEF JUMP JUMPDEST PUSH1 0x40 DUP3 ADD SWAP1 POP SWAP2 SWAP1 POP JUMP JUMPDEST PUSH1 0x0 PUSH2 0x2743 PUSH1 0x26 DUP4 PUSH2 0x2E73 JUMP JUMPDEST SWAP2 POP PUSH2 0x274E DUP3 PUSH2 0x303E JUMP JUMPDEST PUSH1 0x40 DUP3 ADD SWAP1 POP SWAP2 SWAP1 POP JUMP JUMPDEST PUSH1 0x0 PUSH2 0x2766 PUSH1 0x25 DUP4 PUSH2 0x2E73 JUMP JUMPDEST SWAP2 POP PUSH2 0x2771 DUP3 PUSH2 0x308D JUMP JUMPDEST PUSH1 0x40 DUP3 ADD SWAP1 POP SWAP2 SWAP1 POP JUMP JUMPDEST PUSH1 0x0 PUSH2 0x2789 PUSH1 0x21 DUP4 PUSH2 0x2E73 JUMP JUMPDEST SWAP2 POP PUSH2 0x2794 DUP3 PUSH2 0x30DC JUMP JUMPDEST PUSH1 0x40 DUP3 ADD SWAP1 POP SWAP2 SWAP1 POP JUMP JUMPDEST PUSH1 0x0 PUSH2 0x27AC PUSH1 0x2E DUP4 PUSH2 0x2E73 JUMP JUMPDEST SWAP2 POP PUSH2 0x27B7 DUP3 PUSH2 0x312B JUMP JUMPDEST PUSH1 0x40 DUP3 ADD SWAP1 POP SWAP2 SWAP1 POP JUMP JUMPDEST PUSH1 0x0 PUSH2 0x27CF PUSH1 0x1B DUP4 PUSH2 0x2E73 JUMP JUMPDEST SWAP2 POP PUSH2 0x27DA DUP3 PUSH2 0x317A JUMP JUMPDEST PUSH1 0x20 DUP3 ADD SWAP1 POP SWAP2 SWAP1 POP JUMP JUMPDEST PUSH1 0x0 PUSH2 0x27F2 PUSH1 0x2B DUP4 PUSH2 0x2E73 JUMP JUMPDEST SWAP2 POP PUSH2 0x27FD DUP3 PUSH2 0x31A3 JUMP JUMPDEST PUSH1 0x40 DUP3 ADD SWAP1 POP SWAP2 SWAP1 POP JUMP JUMPDEST PUSH1 0x0 PUSH2 0x2815 PUSH1 0x29 DUP4 PUSH2 0x2E73 JUMP JUMPDEST SWAP2 POP PUSH2 0x2820 DUP3 PUSH2 0x31F2 JUMP JUMPDEST PUSH1 0x40 DUP3 ADD SWAP1 POP SWAP2 SWAP1 POP JUMP JUMPDEST PUSH1 0x0 PUSH2 0x2838 PUSH1 0x25 DUP4 PUSH2 0x2E73 JUMP JUMPDEST SWAP2 POP PUSH2 0x2843 DUP3 PUSH2 0x3241 JUMP JUMPDEST PUSH1 0x40 DUP3 ADD SWAP1 POP SWAP2 SWAP1 POP JUMP JUMPDEST PUSH1 0x0 PUSH2 0x285B PUSH1 0x20 DUP4 PUSH2 0x2E73 JUMP JUMPDEST SWAP2 POP PUSH2 0x2866 DUP3 PUSH2 0x3290 JUMP JUMPDEST PUSH1 0x20 DUP3 ADD SWAP1 POP SWAP2 SWAP1 POP JUMP JUMPDEST PUSH1 0x0 PUSH2 0x287E PUSH1 0x1A DUP4 PUSH2 0x2E73 JUMP JUMPDEST SWAP2 POP PUSH2 0x2889 DUP3 PUSH2 0x32B9 JUMP JUMPDEST PUSH1 0x20 DUP3 ADD SWAP1 POP SWAP2 SWAP1 POP JUMP JUMPDEST PUSH1 0x0 PUSH2 0x28A1 PUSH1 0x29 DUP4 PUSH2 0x2E73 JUMP JUMPDEST SWAP2 POP PUSH2 0x28AC DUP3 PUSH2 0x32E2 JUMP JUMPDEST PUSH1 0x40 DUP3 ADD SWAP1 POP SWAP2 SWAP1 POP JUMP JUMPDEST PUSH1 0x0 PUSH2 0x28C4 PUSH1 0x21 DUP4 PUSH2 0x2E73 JUMP JUMPDEST SWAP2 POP PUSH2 0x28CF DUP3 PUSH2 0x3331 JUMP JUMPDEST PUSH1 0x40 DUP3 ADD SWAP1 POP SWAP2 SWAP1 POP JUMP JUMPDEST PUSH1 0x0 PUSH2 0x28E7 PUSH1 0x36 DUP4 PUSH2 0x2E73 JUMP JUMPDEST SWAP2 POP PUSH2 0x28F2 DUP3 PUSH2 0x3380 JUMP JUMPDEST PUSH1 0x40 DUP3 ADD SWAP1 POP SWAP2 SWAP1 POP JUMP JUMPDEST DUP1 DUP3 MSTORE POP POP JUMP JUMPDEST PUSH2 0x290D DUP2 PUSH2 0x2F22 JUMP JUMPDEST DUP3 MSTORE POP POP JUMP JUMPDEST PUSH2 0x291C DUP2 PUSH2 0x2F22 JUMP JUMPDEST DUP3 MSTORE POP POP JUMP JUMPDEST PUSH2 0x292B DUP2 PUSH2 0x2F22 JUMP JUMPDEST DUP3 MSTORE POP POP JUMP JUMPDEST PUSH2 0x2942 PUSH2 0x293D DUP3 PUSH2 0x2F22 JUMP JUMPDEST PUSH2 0x2F67 JUMP JUMPDEST DUP3 MSTORE POP POP JUMP JUMPDEST PUSH2 0x2951 DUP2 PUSH2 0x2F2C JUMP JUMPDEST DUP3 MSTORE POP POP JUMP JUMPDEST PUSH2 0x2960 DUP2 PUSH2 0x2F2C JUMP JUMPDEST DUP3 MSTORE POP POP JUMP JUMPDEST PUSH1 0x0 PUSH2 0x2972 DUP3 DUP5 PUSH2 0x26CA JUMP JUMPDEST PUSH1 0x20 DUP3 ADD SWAP2 POP DUP2 SWAP1 POP SWAP3 SWAP2 POP POP JUMP JUMPDEST PUSH1 0x0 PUSH2 0x298D DUP3 DUP5 PUSH2 0x2931 JUMP JUMPDEST PUSH1 0x20 DUP3 ADD SWAP2 POP DUP2 SWAP1 POP SWAP3 SWAP2 POP POP JUMP JUMPDEST PUSH1 0x0 PUSH1 0x20 DUP3 ADD SWAP1 POP PUSH2 0x29B1 PUSH1 0x0 DUP4 ADD DUP5 PUSH2 0x24F2 JUMP JUMPDEST SWAP3 SWAP2 POP POP JUMP JUMPDEST PUSH1 0x0 PUSH2 0x180 DUP3 ADD SWAP1 POP PUSH2 0x29CD PUSH1 0x0 DUP4 ADD DUP8 PUSH2 0x25AF JUMP JUMPDEST PUSH2 0x29DA PUSH1 0x40 DUP4 ADD DUP7 PUSH2 0x2501 JUMP JUMPDEST PUSH2 0x29E7 PUSH1 0xC0 DUP4 ADD DUP6 PUSH2 0x25AF JUMP JUMPDEST PUSH2 0x29F5 PUSH2 0x100 DUP4 ADD DUP5 PUSH2 0x2606 JUMP JUMPDEST SWAP6 SWAP5 POP POP POP POP POP JUMP JUMPDEST PUSH1 0x0 PUSH1 0x20 DUP3 ADD SWAP1 POP DUP2 DUP2 SUB PUSH1 0x0 DUP4 ADD MSTORE PUSH2 0x2A18 DUP2 DUP5 PUSH2 0x265D JUMP JUMPDEST SWAP1 POP SWAP3 SWAP2 POP POP JUMP JUMPDEST PUSH1 0x0 PUSH1 0x20 DUP3 ADD SWAP1 POP PUSH2 0x2A35 PUSH1 0x0 DUP4 ADD DUP5 PUSH2 0x26E1 JUMP JUMPDEST SWAP3 SWAP2 POP POP JUMP JUMPDEST PUSH1 0x0 PUSH1 0x20 DUP3 ADD SWAP1 POP DUP2 DUP2 SUB PUSH1 0x0 DUP4 ADD MSTORE PUSH2 0x2A54 DUP2 PUSH2 0x26F0 JUMP JUMPDEST SWAP1 POP SWAP2 SWAP1 POP JUMP JUMPDEST PUSH1 0x0 PUSH1 0x20 DUP3 ADD SWAP1 POP DUP2 DUP2 SUB PUSH1 0x0 DUP4 ADD MSTORE PUSH2 0x2A74 DUP2 PUSH2 0x2713 JUMP JUMPDEST SWAP1 POP SWAP2 SWAP1 POP JUMP JUMPDEST PUSH1 0x0 PUSH1 0x20 DUP3 ADD SWAP1 POP DUP2 DUP2 SUB PUSH1 0x0 DUP4 ADD MSTORE PUSH2 0x2A94 DUP2 PUSH2 0x2736 JUMP JUMPDEST SWAP1 POP SWAP2 SWAP1 POP JUMP JUMPDEST PUSH1 0x0 PUSH1 0x20 DUP3 ADD SWAP1 POP DUP2 DUP2 SUB PUSH1 0x0 DUP4 ADD MSTORE PUSH2 0x2AB4 DUP2 PUSH2 0x2759 JUMP JUMPDEST SWAP1 POP SWAP2 SWAP1 POP JUMP JUMPDEST PUSH1 0x0 PUSH1 0x20 DUP3 ADD SWAP1 POP DUP2 DUP2 SUB PUSH1 0x0 DUP4 ADD MSTORE PUSH2 0x2AD4 DUP2 PUSH2 0x277C JUMP JUMPDEST SWAP1 POP SWAP2 SWAP1 POP JUMP JUMPDEST PUSH1 0x0 PUSH1 0x20 DUP3 ADD SWAP1 POP DUP2 DUP2 SUB PUSH1 0x0 DUP4 ADD MSTORE PUSH2 0x2AF4 DUP2 PUSH2 0x279F JUMP JUMPDEST SWAP1 POP SWAP2 SWAP1 POP JUMP JUMPDEST PUSH1 0x0 PUSH1 0x20 DUP3 ADD SWAP1 POP DUP2 DUP2 SUB PUSH1 0x0 DUP4 ADD MSTORE PUSH2 0x2B14 DUP2 PUSH2 0x27C2 JUMP JUMPDEST SWAP1 POP SWAP2 SWAP1 POP JUMP JUMPDEST PUSH1 0x0 PUSH1 0x20 DUP3 ADD SWAP1 POP DUP2 DUP2 SUB PUSH1 0x0 DUP4 ADD MSTORE PUSH2 0x2B34 DUP2 PUSH2 0x27E5 JUMP JUMPDEST SWAP1 POP SWAP2 SWAP1 POP JUMP JUMPDEST PUSH1 0x0 PUSH1 0x20 DUP3 ADD SWAP1 POP DUP2 DUP2 SUB PUSH1 0x0 DUP4 ADD MSTORE PUSH2 0x2B54 DUP2 PUSH2 0x2808 JUMP JUMPDEST SWAP1 POP SWAP2 SWAP1 POP JUMP JUMPDEST PUSH1 0x0 PUSH1 0x20 DUP3 ADD SWAP1 POP DUP2 DUP2 SUB PUSH1 0x0 DUP4 ADD MSTORE PUSH2 0x2B74 DUP2 PUSH2 0x282B JUMP JUMPDEST SWAP1 POP SWAP2 SWAP1 POP JUMP JUMPDEST PUSH1 0x0 PUSH1 0x20 DUP3 ADD SWAP1 POP DUP2 DUP2 SUB PUSH1 0x0 DUP4 ADD MSTORE PUSH2 0x2B94 DUP2 PUSH2 0x284E JUMP JUMPDEST SWAP1 POP SWAP2 SWAP1 POP JUMP JUMPDEST PUSH1 0x0 PUSH1 0x20 DUP3 ADD SWAP1 POP DUP2 DUP2 SUB PUSH1 0x0 DUP4 ADD MSTORE PUSH2 0x2BB4 DUP2 PUSH2 0x2871 JUMP JUMPDEST SWAP1 POP SWAP2 SWAP1 POP JUMP JUMPDEST PUSH1 0x0 PUSH1 0x20 DUP3 ADD SWAP1 POP DUP2 DUP2 SUB PUSH1 0x0 DUP4 ADD MSTORE PUSH2 0x2BD4 DUP2 PUSH2 0x2894 JUMP JUMPDEST SWAP1 POP SWAP2 SWAP1 POP JUMP JUMPDEST PUSH1 0x0 PUSH1 0x20 DUP3 ADD SWAP1 POP DUP2 DUP2 SUB PUSH1 0x0 DUP4 ADD MSTORE PUSH2 0x2BF4 DUP2 PUSH2 0x28B7 JUMP JUMPDEST SWAP1 POP SWAP2 SWAP1 POP JUMP JUMPDEST PUSH1 0x0 PUSH1 0x20 DUP3 ADD SWAP1 POP DUP2 DUP2 SUB PUSH1 0x0 DUP4 ADD MSTORE PUSH2 0x2C14 DUP2 PUSH2 0x28DA JUMP JUMPDEST SWAP1 POP SWAP2 SWAP1 POP JUMP JUMPDEST PUSH1 0x0 PUSH1 0x40 DUP3 ADD SWAP1 POP PUSH2 0x2C30 PUSH1 0x0 DUP4 ADD DUP6 PUSH2 0x28FD JUMP JUMPDEST PUSH2 0x2C3D PUSH1 0x20 DUP4 ADD DUP5 PUSH2 0x2922 JUMP JUMPDEST SWAP4 SWAP3 POP POP POP JUMP JUMPDEST PUSH1 0x0 PUSH1 0x60 DUP3 ADD SWAP1 POP PUSH2 0x2C59 PUSH1 0x0 DUP4 ADD DUP7 PUSH2 0x28FD JUMP JUMPDEST PUSH2 0x2C66 PUSH1 0x20 DUP4 ADD DUP6 PUSH2 0x2957 JUMP JUMPDEST PUSH2 0x2C73 PUSH1 0x40 DUP4 ADD DUP5 PUSH2 0x2922 JUMP JUMPDEST SWAP5 SWAP4 POP POP POP POP JUMP JUMPDEST PUSH1 0x0 PUSH1 0x20 DUP3 ADD SWAP1 POP PUSH2 0x2C90 PUSH1 0x0 DUP4 ADD DUP5 PUSH2 0x2913 JUMP JUMPDEST SWAP3 SWAP2 POP POP JUMP JUMPDEST PUSH1 0x0 PUSH1 0x60 DUP3 ADD SWAP1 POP PUSH2 0x2CAB PUSH1 0x0 DUP4 ADD DUP7 PUSH2 0x2913 JUMP JUMPDEST PUSH2 0x2CB8 PUSH1 0x20 DUP4 ADD DUP6 PUSH2 0x24F2 JUMP JUMPDEST PUSH2 0x2CC5 PUSH1 0x40 DUP4 ADD DUP5 PUSH2 0x2913 JUMP JUMPDEST SWAP5 SWAP4 POP POP POP POP JUMP JUMPDEST PUSH1 0x0 PUSH1 0x40 DUP3 ADD SWAP1 POP PUSH2 0x2CE2 PUSH1 0x0 DUP4 ADD DUP6 PUSH2 0x2913 JUMP JUMPDEST PUSH2 0x2CEF PUSH1 0x20 DUP4 ADD DUP5 PUSH2 0x2913 JUMP JUMPDEST SWAP4 SWAP3 POP POP POP JUMP JUMPDEST PUSH1 0x0 PUSH1 0x60 DUP3 ADD SWAP1 POP PUSH2 0x2D0B PUSH1 0x0 DUP4 ADD DUP7 PUSH2 0x2913 JUMP JUMPDEST PUSH2 0x2D18 PUSH1 0x20 DUP4 ADD DUP6 PUSH2 0x2913 JUMP JUMPDEST PUSH2 0x2D25 PUSH1 0x40 DUP4 ADD DUP5 PUSH2 0x26BB JUMP JUMPDEST SWAP5 SWAP4 POP POP POP POP JUMP JUMPDEST PUSH1 0x0 PUSH1 0x60 DUP3 ADD SWAP1 POP PUSH2 0x2D42 PUSH1 0x0 DUP4 ADD DUP7 PUSH2 0x2913 JUMP JUMPDEST PUSH2 0x2D4F PUSH1 0x20 DUP4 ADD DUP6 PUSH2 0x2913 JUMP JUMPDEST PUSH2 0x2D5C PUSH1 0x40 DUP4 ADD DUP5 PUSH2 0x2913 JUMP JUMPDEST SWAP5 SWAP4 POP POP POP POP JUMP JUMPDEST PUSH1 0x0 PUSH1 0x20 DUP3 ADD SWAP1 POP PUSH2 0x2D79 PUSH1 0x0 DUP4 ADD DUP5 PUSH2 0x2948 JUMP JUMPDEST SWAP3 SWAP2 POP POP JUMP JUMPDEST PUSH1 0x0 PUSH1 0x40 DUP3 ADD SWAP1 POP PUSH2 0x2D94 PUSH1 0x0 DUP4 ADD DUP6 PUSH2 0x2948 JUMP JUMPDEST PUSH2 0x2DA1 PUSH1 0x20 DUP4 ADD DUP5 PUSH2 0x2913 JUMP JUMPDEST SWAP4 SWAP3 POP POP POP JUMP JUMPDEST PUSH1 0x0 DUP2 SWAP1 POP SWAP2 SWAP1 POP JUMP JUMPDEST PUSH1 0x0 DUP2 SWAP1 POP SWAP2 SWAP1 POP JUMP JUMPDEST PUSH1 0x0 DUP2 SWAP1 POP SWAP2 SWAP1 POP JUMP JUMPDEST PUSH1 0x0 DUP2 SWAP1 POP PUSH1 0x20 DUP3 ADD SWAP1 POP SWAP2 SWAP1 POP JUMP JUMPDEST PUSH1 0x0 PUSH1 0x2 SWAP1 POP SWAP2 SWAP1 POP JUMP JUMPDEST PUSH1 0x0 PUSH1 0x2 SWAP1 POP SWAP2 SWAP1 POP JUMP JUMPDEST PUSH1 0x0 PUSH1 0x4 SWAP1 POP SWAP2 SWAP1 POP JUMP JUMPDEST PUSH1 0x0 DUP2 MLOAD SWAP1 POP SWAP2 SWAP1 POP JUMP JUMPDEST PUSH1 0x0 PUSH1 0x20 DUP3 ADD SWAP1 POP SWAP2 SWAP1 POP JUMP JUMPDEST PUSH1 0x0 PUSH1 0x20 DUP3 ADD SWAP1 POP SWAP2 SWAP1 POP JUMP JUMPDEST PUSH1 0x0 PUSH1 0x20 DUP3 ADD SWAP1 POP SWAP2 SWAP1 POP JUMP JUMPDEST PUSH1 0x0 PUSH1 0x20 DUP3 ADD SWAP1 POP SWAP2 SWAP1 POP JUMP JUMPDEST PUSH1 0x0 DUP2 SWAP1 POP SWAP3 SWAP2 POP POP JUMP JUMPDEST PUSH1 0x0 DUP2 SWAP1 POP SWAP3 SWAP2 POP POP JUMP JUMPDEST PUSH1 0x0 DUP2 SWAP1 POP SWAP3 SWAP2 POP POP JUMP JUMPDEST PUSH1 0x0 DUP2 SWAP1 POP SWAP3 SWAP2 POP POP JUMP JUMPDEST PUSH1 0x0 DUP3 DUP3 MSTORE PUSH1 0x20 DUP3 ADD SWAP1 POP SWAP3 SWAP2 POP POP JUMP JUMPDEST PUSH1 0x0 DUP3 DUP3 MSTORE PUSH1 0x20 DUP3 ADD SWAP1 POP SWAP3 SWAP2 POP POP JUMP JUMPDEST PUSH1 0x0 PUSH2 0x2E8F DUP3 PUSH2 0x2F22 JUMP JUMPDEST SWAP2 POP PUSH2 0x2E9A DUP4 PUSH2 0x2F22 JUMP JUMPDEST SWAP3 POP DUP3 PUSH32 0xFFFFFFFFFFFFFFFFFFFFFFFFFFFFFFFFFFFFFFFFFFFFFFFFFFFFFFFFFFFFFFFF SUB DUP3 GT ISZERO PUSH2 0x2ECF JUMPI PUSH2 0x2ECE PUSH2 0x2F71 JUMP JUMPDEST JUMPDEST DUP3 DUP3 ADD SWAP1 POP SWAP3 SWAP2 POP POP JUMP JUMPDEST PUSH1 0x0 PUSH2 0x2EE5 DUP3 PUSH2 0x2F02 JUMP JUMPDEST SWAP1 POP SWAP2 SWAP1 POP JUMP JUMPDEST PUSH1 0x0 DUP2 ISZERO ISZERO SWAP1 POP SWAP2 SWAP1 POP JUMP JUMPDEST PUSH1 0x0 DUP2 SWAP1 POP SWAP2 SWAP1 POP JUMP JUMPDEST PUSH1 0x0 PUSH20 0xFFFFFFFFFFFFFFFFFFFFFFFFFFFFFFFFFFFFFFFF DUP3 AND SWAP1 POP SWAP2 SWAP1 POP JUMP JUMPDEST PUSH1 0x0 DUP2 SWAP1 POP SWAP2 SWAP1 POP JUMP JUMPDEST PUSH1 0x0 PUSH1 0xFF DUP3 AND SWAP1 POP SWAP2 SWAP1 POP JUMP JUMPDEST PUSH1 0x0 PUSH2 0x2F44 DUP3 PUSH2 0x2F4B JUMP JUMPDEST SWAP1 POP SWAP2 SWAP1 POP JUMP JUMPDEST PUSH1 0x0 PUSH2 0x2F56 DUP3 PUSH2 0x2F02 JUMP JUMPDEST SWAP1 POP SWAP2 SWAP1 POP JUMP JUMPDEST PUSH1 0x0 DUP2 SWAP1 POP SWAP2 SWAP1 POP JUMP JUMPDEST PUSH1 0x0 DUP2 SWAP1 POP SWAP2 SWAP1 POP JUMP JUMPDEST PUSH32 0x4E487B7100000000000000000000000000000000000000000000000000000000 PUSH1 0x0 MSTORE PUSH1 0x11 PUSH1 0x4 MSTORE PUSH1 0x24 PUSH1 0x0 REVERT JUMPDEST PUSH32 0x53656D6170686F7265436F72653A20796F752063616E6E6F7420757365207468 PUSH1 0x0 DUP3 ADD MSTORE PUSH32 0x652073616D65206E756C6C696669657220747769636500000000000000000000 PUSH1 0x20 DUP3 ADD MSTORE POP JUMP JUMPDEST PUSH32 0x4D6178696D756D206E756D626572206F66207175657374696F6E7320706F7374 PUSH1 0x0 DUP3 ADD MSTORE PUSH32 0x65642E0000000000000000000000000000000000000000000000000000000000 PUSH1 0x20 DUP3 ADD MSTORE POP JUMP JUMPDEST PUSH32 0x4F776E61626C653A206E6577206F776E657220697320746865207A65726F2061 PUSH1 0x0 DUP3 ADD MSTORE PUSH32 0x6464726573730000000000000000000000000000000000000000000000000000 PUSH1 0x20 DUP3 ADD MSTORE POP JUMP JUMPDEST PUSH32 0x53656D6170686F726547726F7570733A2067726F757020616C72656164792065 PUSH1 0x0 DUP3 ADD MSTORE PUSH32 0x7869737473000000000000000000000000000000000000000000000000000000 PUSH1 0x20 DUP3 ADD MSTORE POP JUMP JUMPDEST PUSH32 0x414D412073657373696F6E2773207374617465206973206E6F74204163746976 PUSH1 0x0 DUP3 ADD MSTORE PUSH32 0x6500000000000000000000000000000000000000000000000000000000000000 PUSH1 0x20 DUP3 ADD MSTORE POP JUMP JUMPDEST PUSH32 0x496E73756666696369656E742066756E647320666F72206372656174696E6720 PUSH1 0x0 DUP3 ADD MSTORE PUSH32 0x616E20414D412073657373696F6E000000000000000000000000000000000000 PUSH1 0x20 DUP3 ADD MSTORE POP JUMP JUMPDEST PUSH32 0x414D413A207468652070726F6F66206973206E6F742076616C69640000000000 PUSH1 0x0 DUP3 ADD MSTORE POP JUMP JUMPDEST PUSH32 0x414D412073657373696F6E2773207374617465206973206E6F74205061757365 PUSH1 0x0 DUP3 ADD MSTORE PUSH32 0x64206F7220416374697665000000000000000000000000000000000000000000 PUSH1 0x20 DUP3 ADD MSTORE POP JUMP JUMPDEST PUSH32 0x414D412073657373696F6E27732073746174652073686F756C64206265204E6F PUSH1 0x0 DUP3 ADD MSTORE PUSH32 0x7420537461727465640000000000000000000000000000000000000000000000 PUSH1 0x20 DUP3 ADD MSTORE POP JUMP JUMPDEST PUSH32 0x53656D6170686F726547726F7570733A2067726F757020646F6573206E6F7420 PUSH1 0x0 DUP3 ADD MSTORE PUSH32 0x6578697374000000000000000000000000000000000000000000000000000000 PUSH1 0x20 DUP3 ADD MSTORE POP JUMP JUMPDEST PUSH32 0x4F776E61626C653A2063616C6C6572206973206E6F7420746865206F776E6572 PUSH1 0x0 DUP3 ADD MSTORE POP JUMP JUMPDEST PUSH32 0x414D412073657373696F6E20646F6573206E6F74206578697374000000000000 PUSH1 0x0 DUP3 ADD MSTORE POP JUMP JUMPDEST PUSH32 0x596F7520617265206E6F7420746865206F776E6572206F66207468697320414D PUSH1 0x0 DUP3 ADD MSTORE PUSH32 0x412073657373696F6E0000000000000000000000000000000000000000000000 PUSH1 0x20 DUP3 ADD MSTORE POP JUMP JUMPDEST PUSH32 0x414D412073657373696F6E2773207374617465206973206E6F74205061757365 PUSH1 0x0 DUP3 ADD MSTORE PUSH32 0x6400000000000000000000000000000000000000000000000000000000000000 PUSH1 0x20 DUP3 ADD MSTORE POP JUMP JUMPDEST PUSH32 0x53656D6170686F726547726F7570733A2067726F7570206964206D7573742062 PUSH1 0x0 DUP3 ADD MSTORE PUSH32 0x65203C20534E41524B5F5343414C41525F4649454C4400000000000000000000 PUSH1 0x20 DUP3 ADD MSTORE POP JUMP JUMPDEST PUSH2 0x33D8 DUP2 PUSH2 0x2EDA JUMP JUMPDEST DUP2 EQ PUSH2 0x33E3 JUMPI PUSH1 0x0 DUP1 REVERT JUMPDEST POP JUMP JUMPDEST PUSH2 0x33EF DUP2 PUSH2 0x2EEC JUMP JUMPDEST DUP2 EQ PUSH2 0x33FA JUMPI PUSH1 0x0 DUP1 REVERT JUMPDEST POP JUMP JUMPDEST PUSH2 0x3406 DUP2 PUSH2 0x2EF8 JUMP JUMPDEST DUP2 EQ PUSH2 0x3411 JUMPI PUSH1 0x0 DUP1 REVERT JUMPDEST POP JUMP JUMPDEST PUSH2 0x341D DUP2 PUSH2 0x2F22 JUMP JUMPDEST DUP2 EQ PUSH2 0x3428 JUMPI PUSH1 0x0 DUP1 REVERT JUMPDEST POP JUMP INVALID LOG2 PUSH5 0x6970667358 0x22 SLT KECCAK256 0x4D STOP 0xFC 0xAC LOG0 0xD6 RETURNDATACOPY MULMOD 0xE4 REVERT 0x49 GT KECCAK256 SELFBALANCE SUB PUSH8 0xB7133B1042751E21 JUMPDEST 0xD 0xDC LOG1 0x28 STOP SWAP9 BALANCE PUSH5 0x736F6C6343 STOP ADDMOD DIV STOP CALLER "
        },
        "methodIdentifiers": {
          "amaSessionIdentityCommitments(uint256,uint256)": "69f819df",
          "amaSessionQuestion(bytes32)": "f6bb7354",
          "amaSessionQuestionList(uint256,uint256)": "7178fbfd",
          "amaSessions(uint256)": "bb4446af",
          "changeFee(uint256)": "6a1db1bf",
          "createAmaSession(uint256)": "bc466a09",
          "endAmaSession(uint256)": "1582fab1",
          "getAvailableFunds()": "5195bd29",
          "getDepth(uint256)": "75e618c9",
          "getFee()": "ced72f87",
          "getIdentityCommitments(uint256)": "0950371f",
          "getNumberOfLeaves(uint256)": "b9c78c2b",
          "getOwnerBalance()": "590791f2",
          "getRoot(uint256)": "9b24b3b0",
          "joinAmaSession(uint256,uint256)": "542a4b96",
          "owner()": "8da5cb5b",
          "pauseAmaSession(uint256)": "ad98ac80",
          "postQuestion(uint256,uint256,bytes32,uint256,uint256,uint256,uint256[8])": "e2a1e285",
          "renounceOwnership()": "715018a6",
          "resumeAmaSession(uint256)": "758dd195",
          "startAmaSession(uint256)": "6f38db4f",
          "transferOwnership(address)": "f2fde38b",
          "verifier()": "2b7ac3f3",
          "voteQuestion(uint256,uint256,bytes32,uint256,uint256,uint256,uint256[8])": "08cc30d8",
          "withdrawFunds()": "24600fc3"
        }
      }
    }
  }
}