{
  "_format": "hh-sol-artifact-1",
  "contractName": "AMA",
  "sourceName": "contracts/AMA.sol",
  "abi": [
    {
      "inputs": [
        {
          "internalType": "address",
          "name": "_verifier",
          "type": "address"
        }
      ],
      "stateMutability": "nonpayable",
      "type": "constructor"
    },
    {
      "anonymous": false,
      "inputs": [
        {
          "indexed": true,
          "internalType": "uint256",
          "name": "sessionId",
          "type": "uint256"
        }
      ],
      "name": "AmaSessionCreated",
      "type": "event"
    },
    {
      "anonymous": false,
      "inputs": [
        {
          "indexed": false,
          "internalType": "uint256",
          "name": "sessionId",
          "type": "uint256"
        },
        {
          "indexed": false,
          "internalType": "uint256",
          "name": "statusId",
          "type": "uint256"
        }
      ],
      "name": "AmaSessionStatusChanged",
      "type": "event"
    },
    {
      "anonymous": false,
      "inputs": [
        {
          "indexed": false,
          "internalType": "uint256",
          "name": "newFee",
          "type": "uint256"
        }
      ],
      "name": "FeeChanged",
      "type": "event"
    },
    {
      "anonymous": false,
      "inputs": [
        {
          "indexed": true,
          "internalType": "uint256",
          "name": "groupId",
          "type": "uint256"
        },
        {
          "indexed": false,
          "internalType": "uint8",
          "name": "depth",
          "type": "uint8"
        },
        {
          "indexed": false,
          "internalType": "uint256",
          "name": "zeroValue",
          "type": "uint256"
        }
      ],
      "name": "GroupCreated",
      "type": "event"
    },
    {
      "anonymous": false,
      "inputs": [
        {
          "indexed": true,
          "internalType": "uint256",
          "name": "groupId",
          "type": "uint256"
        },
        {
          "indexed": false,
          "internalType": "uint256",
          "name": "identityCommitment",
          "type": "uint256"
        },
        {
          "indexed": false,
          "internalType": "uint256",
          "name": "root",
          "type": "uint256"
        }
      ],
      "name": "MemberAdded",
      "type": "event"
    },
    {
      "anonymous": false,
      "inputs": [
        {
          "indexed": true,
          "internalType": "uint256",
          "name": "groupId",
          "type": "uint256"
        },
        {
          "indexed": false,
          "internalType": "uint256",
          "name": "identityCommitment",
          "type": "uint256"
        },
        {
          "indexed": false,
          "internalType": "uint256",
          "name": "root",
          "type": "uint256"
        }
      ],
      "name": "MemberRemoved",
      "type": "event"
    },
    {
      "anonymous": false,
      "inputs": [
        {
          "indexed": false,
          "internalType": "uint256",
          "name": "sessionId",
          "type": "uint256"
        },
        {
          "indexed": false,
          "internalType": "uint256",
          "name": "questionId",
          "type": "uint256"
        },
        {
          "indexed": false,
          "internalType": "bytes32",
          "name": "signal",
          "type": "bytes32"
        }
      ],
      "name": "NewQuestion",
      "type": "event"
    },
    {
      "anonymous": false,
      "inputs": [
        {
          "indexed": false,
          "internalType": "uint256",
          "name": "nullifierHash",
          "type": "uint256"
        }
      ],
      "name": "NullifierHashAdded",
      "type": "event"
    },
    {
      "anonymous": false,
      "inputs": [
        {
          "indexed": true,
          "internalType": "address",
          "name": "previousOwner",
          "type": "address"
        },
        {
          "indexed": true,
          "internalType": "address",
          "name": "newOwner",
          "type": "address"
        }
      ],
      "name": "OwnershipTransferred",
      "type": "event"
    },
    {
      "anonymous": false,
      "inputs": [
        {
          "indexed": false,
          "internalType": "uint256",
          "name": "sessionId",
          "type": "uint256"
        },
        {
          "indexed": false,
          "internalType": "uint256",
          "name": "questionId",
          "type": "uint256"
        },
        {
          "indexed": false,
          "internalType": "uint256",
          "name": "votes",
          "type": "uint256"
        }
      ],
      "name": "QuestionVoted",
      "type": "event"
    },
    {
      "anonymous": false,
      "inputs": [
        {
          "indexed": true,
          "internalType": "uint256",
          "name": "sessionId",
          "type": "uint256"
        },
        {
          "indexed": false,
          "internalType": "uint256",
          "name": "identityCommitment",
          "type": "uint256"
        }
      ],
      "name": "UserJoinedAmaSession",
      "type": "event"
    },
    {
      "anonymous": false,
      "inputs": [
        {
          "indexed": true,
          "internalType": "uint256",
          "name": "sessionId",
          "type": "uint256"
        },
        {
          "indexed": false,
          "internalType": "uint256",
          "name": "identityCommitment",
          "type": "uint256"
        }
      ],
      "name": "UserLeftAmaSession",
      "type": "event"
    },
    {
      "stateMutability": "payable",
      "type": "fallback"
    },
    {
      "inputs": [
        {
          "internalType": "uint256",
          "name": "",
          "type": "uint256"
        },
        {
          "internalType": "uint256",
          "name": "",
          "type": "uint256"
        }
      ],
      "name": "amaSessionIdentityCommitments",
      "outputs": [
        {
          "internalType": "uint256",
          "name": "",
          "type": "uint256"
        }
      ],
      "stateMutability": "view",
      "type": "function"
    },
    {
      "inputs": [
        {
          "internalType": "bytes32",
          "name": "",
          "type": "bytes32"
        }
      ],
      "name": "amaSessionQuestion",
      "outputs": [
        {
          "internalType": "uint256",
          "name": "questionId",
          "type": "uint256"
        },
        {
          "internalType": "uint256",
          "name": "votes",
          "type": "uint256"
        }
      ],
      "stateMutability": "view",
      "type": "function"
    },
    {
      "inputs": [
        {
          "internalType": "uint256",
          "name": "",
          "type": "uint256"
        },
        {
          "internalType": "uint256",
          "name": "",
          "type": "uint256"
        }
      ],
      "name": "amaSessionQuestionList",
      "outputs": [
        {
          "internalType": "uint256",
          "name": "",
          "type": "uint256"
        }
      ],
      "stateMutability": "view",
      "type": "function"
    },
    {
      "inputs": [
        {
          "internalType": "uint256",
          "name": "",
          "type": "uint256"
        }
      ],
      "name": "amaSessions",
      "outputs": [
        {
          "internalType": "uint256",
          "name": "sessionId",
          "type": "uint256"
        },
        {
          "internalType": "address",
          "name": "owner",
          "type": "address"
        },
        {
          "internalType": "uint256",
          "name": "state",
          "type": "uint256"
        }
      ],
      "stateMutability": "view",
      "type": "function"
    },
    {
      "inputs": [
        {
          "internalType": "uint256",
          "name": "_fee",
          "type": "uint256"
        }
      ],
      "name": "changeFee",
      "outputs": [],
      "stateMutability": "nonpayable",
      "type": "function"
    },
    {
      "inputs": [
        {
          "internalType": "uint256",
          "name": "sessionId",
          "type": "uint256"
        }
      ],
      "name": "createAmaSession",
      "outputs": [],
      "stateMutability": "payable",
      "type": "function"
    },
    {
      "inputs": [
        {
          "internalType": "uint256",
          "name": "sessionId",
          "type": "uint256"
        }
      ],
      "name": "endAmaSession",
      "outputs": [],
      "stateMutability": "nonpayable",
      "type": "function"
    },
    {
      "inputs": [],
      "name": "getAvailableFunds",
      "outputs": [
        {
          "internalType": "uint256",
          "name": "",
          "type": "uint256"
        }
      ],
      "stateMutability": "view",
      "type": "function"
    },
    {
      "inputs": [
        {
          "internalType": "uint256",
          "name": "groupId",
          "type": "uint256"
        }
      ],
      "name": "getDepth",
      "outputs": [
        {
          "internalType": "uint8",
          "name": "",
          "type": "uint8"
        }
      ],
      "stateMutability": "view",
      "type": "function"
    },
    {
      "inputs": [],
      "name": "getFee",
      "outputs": [
        {
          "internalType": "uint256",
          "name": "",
          "type": "uint256"
        }
      ],
      "stateMutability": "view",
      "type": "function"
    },
    {
      "inputs": [
        {
          "internalType": "uint256",
          "name": "sessionId",
          "type": "uint256"
        }
      ],
      "name": "getIdentityCommitments",
      "outputs": [
        {
          "internalType": "uint256[]",
          "name": "",
          "type": "uint256[]"
        }
      ],
      "stateMutability": "view",
      "type": "function"
    },
    {
      "inputs": [
        {
          "internalType": "uint256",
          "name": "groupId",
          "type": "uint256"
        }
      ],
      "name": "getNumberOfLeaves",
      "outputs": [
        {
          "internalType": "uint256",
          "name": "",
          "type": "uint256"
        }
      ],
      "stateMutability": "view",
      "type": "function"
    },
    {
      "inputs": [],
      "name": "getOwnerBalance",
      "outputs": [
        {
          "internalType": "uint256",
          "name": "",
          "type": "uint256"
        }
      ],
      "stateMutability": "view",
      "type": "function"
    },
    {
      "inputs": [
        {
          "internalType": "uint256",
          "name": "groupId",
          "type": "uint256"
        }
      ],
      "name": "getRoot",
      "outputs": [
        {
          "internalType": "uint256",
          "name": "",
          "type": "uint256"
        }
      ],
      "stateMutability": "view",
      "type": "function"
    },
    {
      "inputs": [
        {
          "internalType": "uint256",
          "name": "sessionId",
          "type": "uint256"
        },
        {
          "internalType": "uint256",
          "name": "identityCommitment",
          "type": "uint256"
        }
      ],
      "name": "joinAmaSession",
      "outputs": [],
      "stateMutability": "nonpayable",
      "type": "function"
    },
    {
      "inputs": [],
      "name": "owner",
      "outputs": [
        {
          "internalType": "address",
          "name": "",
          "type": "address"
        }
      ],
      "stateMutability": "view",
      "type": "function"
    },
    {
      "inputs": [
        {
          "internalType": "uint256",
          "name": "sessionId",
          "type": "uint256"
        }
      ],
      "name": "pauseAmaSession",
      "outputs": [],
      "stateMutability": "nonpayable",
      "type": "function"
    },
    {
      "inputs": [
        {
          "internalType": "uint256",
          "name": "sessionId",
          "type": "uint256"
        },
        {
          "internalType": "uint256",
          "name": "questionId",
          "type": "uint256"
        },
        {
          "internalType": "bytes32",
          "name": "signal",
          "type": "bytes32"
        },
        {
          "internalType": "uint256",
          "name": "root",
          "type": "uint256"
        },
        {
          "internalType": "uint256",
          "name": "nullifierHash",
          "type": "uint256"
        },
        {
          "internalType": "uint256",
          "name": "externalNullifier",
          "type": "uint256"
        },
        {
          "internalType": "uint256[8]",
          "name": "proof",
          "type": "uint256[8]"
        }
      ],
      "name": "postQuestion",
      "outputs": [],
      "stateMutability": "nonpayable",
      "type": "function"
    },
    {
      "inputs": [],
      "name": "renounceOwnership",
      "outputs": [],
      "stateMutability": "nonpayable",
      "type": "function"
    },
    {
      "inputs": [
        {
          "internalType": "uint256",
          "name": "sessionId",
          "type": "uint256"
        }
      ],
      "name": "resumeAmaSession",
      "outputs": [],
      "stateMutability": "nonpayable",
      "type": "function"
    },
    {
      "inputs": [
        {
          "internalType": "uint256",
          "name": "sessionId",
          "type": "uint256"
        }
      ],
      "name": "startAmaSession",
      "outputs": [],
      "stateMutability": "nonpayable",
      "type": "function"
    },
    {
      "inputs": [
        {
          "internalType": "address",
          "name": "newOwner",
          "type": "address"
        }
      ],
      "name": "transferOwnership",
      "outputs": [],
      "stateMutability": "nonpayable",
      "type": "function"
    },
    {
      "inputs": [],
      "name": "verifier",
      "outputs": [
        {
          "internalType": "contract IVerifier",
          "name": "",
          "type": "address"
        }
      ],
      "stateMutability": "view",
      "type": "function"
    },
    {
      "inputs": [
        {
          "internalType": "uint256",
          "name": "sessionId",
          "type": "uint256"
        },
        {
          "internalType": "uint256",
          "name": "questionId",
          "type": "uint256"
        },
        {
          "internalType": "bytes32",
          "name": "signal",
          "type": "bytes32"
        },
        {
          "internalType": "uint256",
          "name": "root",
          "type": "uint256"
        },
        {
          "internalType": "uint256",
          "name": "nullifierHash",
          "type": "uint256"
        },
        {
          "internalType": "uint256",
          "name": "externalNullifier",
          "type": "uint256"
        },
        {
          "internalType": "uint256[8]",
          "name": "proof",
          "type": "uint256[8]"
        }
      ],
      "name": "voteQuestion",
      "outputs": [
        {
          "internalType": "uint256",
          "name": "",
          "type": "uint256"
        },
        {
          "internalType": "uint256",
          "name": "",
          "type": "uint256"
        }
      ],
      "stateMutability": "nonpayable",
      "type": "function"
    },
    {
      "inputs": [],
      "name": "withdrawFunds",
      "outputs": [
        {
          "internalType": "uint256",
          "name": "",
          "type": "uint256"
        }
      ],
      "stateMutability": "nonpayable",
      "type": "function"
    },
    {
      "stateMutability": "payable",
      "type": "receive"
    }
  ],
  "bytecode": "0x6080604052662386f26fc100006007553480156200001c57600080fd5b506040516200367a3803806200367a83398181016040528101906200004291906200018f565b6200006262000056620000aa60201b60201c565b620000b260201b60201c565b80600860006101000a81548173ffffffffffffffffffffffffffffffffffffffff021916908373ffffffffffffffffffffffffffffffffffffffff1602179055505062000209565b600033905090565b6000600260009054906101000a900473ffffffffffffffffffffffffffffffffffffffff16905081600260006101000a81548173ffffffffffffffffffffffffffffffffffffffff021916908373ffffffffffffffffffffffffffffffffffffffff1602179055508173ffffffffffffffffffffffffffffffffffffffff168173ffffffffffffffffffffffffffffffffffffffff167f8be0079c531659141344cd1fd0a4f28419497f9722a3daafe3b4186f6b6457e060405160405180910390a35050565b6000815190506200018981620001ef565b92915050565b600060208284031215620001a257600080fd5b6000620001b28482850162000178565b91505092915050565b6000620001c882620001cf565b9050919050565b600073ffffffffffffffffffffffffffffffffffffffff82169050919050565b620001fa81620001bb565b81146200020657600080fd5b50565b61346180620002196000396000f3fe60806040526004361061016a5760003560e01c80637178fbfd116100d1578063b9c78c2b1161008a578063ced72f8711610064578063ced72f871461055e578063e2a1e28514610589578063f2fde38b146105b2578063f6bb7354146105db57610171565b8063b9c78c2b146104c6578063bb4446af14610503578063bc466a091461054257610171565b80637178fbfd14610392578063758dd195146103cf57806375e618c9146103f85780638da5cb5b146104355780639b24b3b014610460578063ad98ac801461049d57610171565b8063542a4b9611610123578063542a4b9614610298578063590791f2146102c157806369f819df146102ec5780636a1db1bf146103295780636f38db4f14610352578063715018a61461037b57610171565b806308cc30d8146101735780630950371f146101b15780631582fab1146101ee57806324600fc3146102175780632b7ac3f3146102425780635195bd291461026d57610171565b3661017157005b005b34801561017f57600080fd5b5061019a60048036038101906101959190612423565b610619565b6040516101a8929190612ccd565b60405180910390f35b3480156101bd57600080fd5b506101d860048036038101906101d391906123be565b610869565b6040516101e591906129fe565b60405180910390f35b3480156101fa57600080fd5b50610215600480360381019061021091906123be565b6108d4565b005b34801561022357600080fd5b5061022c610a7a565b6040516102399190612c7b565b60405180910390f35b34801561024e57600080fd5b50610257610b4c565b6040516102649190612a20565b60405180910390f35b34801561027957600080fd5b50610282610b72565b60405161028f9190612c7b565b60405180910390f35b3480156102a457600080fd5b506102bf60048036038101906102ba91906123e7565b610bf6565b005b3480156102cd57600080fd5b506102d6610d99565b6040516102e39190612c7b565b60405180910390f35b3480156102f857600080fd5b50610313600480360381019061030e91906123e7565b610e3b565b6040516103209190612c7b565b60405180910390f35b34801561033557600080fd5b50610350600480360381019061034b91906123be565b610e6c565b005b34801561035e57600080fd5b50610379600480360381019061037491906123be565b610f29565b005b34801561038757600080fd5b50610390611129565b005b34801561039e57600080fd5b506103b960048036038101906103b491906123e7565b6111b1565b6040516103c69190612c7b565b60405180910390f35b3480156103db57600080fd5b506103f660048036038101906103f191906123be565b6111e2565b005b34801561040457600080fd5b5061041f600480360381019061041a91906123be565b6113e2565b60405161042c9190612d64565b60405180910390f35b34801561044157600080fd5b5061044a61140f565b604051610457919061299c565b60405180910390f35b34801561046c57600080fd5b50610487600480360381019061048291906123be565b611439565b6040516104949190612c7b565b60405180910390f35b3480156104a957600080fd5b506104c460048036038101906104bf91906123be565b611459565b005b3480156104d257600080fd5b506104ed60048036038101906104e891906123be565b611659565b6040516104fa9190612c7b565b60405180910390f35b34801561050f57600080fd5b5061052a600480360381019061052591906123be565b611679565b60405161053993929190612c96565b60405180910390f35b61055c600480360381019061055791906123be565b6116c3565b005b34801561056a57600080fd5b506105736117e8565b6040516105809190612c7b565b60405180910390f35b34801561059557600080fd5b506105b060048036038101906105ab9190612423565b6117f2565b005b3480156105be57600080fd5b506105d960048036038101906105d49190612343565b611a7d565b005b3480156105e757600080fd5b5061060260048036038101906105fd9190612395565b611b75565b604051610610929190612ccd565b60405180910390f35b60008088600073ffffffffffffffffffffffffffffffffffffffff166003600083815260200190815260200160002060010160009054906101000a900473ffffffffffffffffffffffffffffffffffffffff1673ffffffffffffffffffffffffffffffffffffffff1614156106c3576040517f08c379a00000000000000000000000000000000000000000000000000000000081526004016106ba90612b9b565b60405180910390fd5b896003806000838152602001908152602001600020600201541461071c576040517f08c379a000000000000000000000000000000000000000000000000000000000815260040161071390612abb565b60405180910390fd5b61074c8989898989600860009054906101000a900473ffffffffffffffffffffffffffffffffffffffff16611b99565b61078b576040517f08c379a000000000000000000000000000000000000000000000000000000000815260040161078290612afb565b60405180910390fd5b60008a60405160200161079e9190612981565b60405160208183030381529060405280519060200120905060016004600083815260200190815260200160002060010160008282546107dd9190612e84565b925050819055506107ed88611f18565b7fe032b0171b8688390474f14cb113a546cf69cd6385ba4a5ae43550afe994e0cc8c8c600460008581526020019081526020016000206001015460405161083693929190612d2d565b60405180910390a18a60046000838152602001908152602001600020600101549450945050505097509795505050505050565b6060600560008381526020019081526020016000208054806020026020016040519081016040528092919081815260200182805480156108c857602002820191906000526020600020905b8154815260200190600101908083116108b4575b50505050509050919050565b80600073ffffffffffffffffffffffffffffffffffffffff166003600083815260200190815260200160002060010160009054906101000a900473ffffffffffffffffffffffffffffffffffffffff1673ffffffffffffffffffffffffffffffffffffffff16141561097b576040517f08c379a000000000000000000000000000000000000000000000000000000000815260040161097290612b9b565b60405180910390fd5b813373ffffffffffffffffffffffffffffffffffffffff166003600083815260200190815260200160002060010160009054906101000a900473ffffffffffffffffffffffffffffffffffffffff1673ffffffffffffffffffffffffffffffffffffffff1614610a20576040517f08c379a0000000000000000000000000000000000000000000000000000000008152600401610a1790612bbb565b60405180910390fd5b600460036000858152602001908152602001600020600201819055507e933d644a694d122358be17a9d7642ba5dfaae41af75919aab4d6e727915afa836004604051610a6d929190612ccd565b60405180910390a1505050565b6000610a84611f46565b73ffffffffffffffffffffffffffffffffffffffff16610aa261140f565b73ffffffffffffffffffffffffffffffffffffffff1614610af8576040517f08c379a0000000000000000000000000000000000000000000000000000000008152600401610aef90612b7b565b60405180910390fd5b610b0061140f565b73ffffffffffffffffffffffffffffffffffffffff166108fc479081150290604051600060405180830381858888f19350505050158015610b45573d6000803e3d6000fd5b5047905090565b600860009054906101000a900473ffffffffffffffffffffffffffffffffffffffff1681565b6000610b7c611f46565b73ffffffffffffffffffffffffffffffffffffffff16610b9a61140f565b73ffffffffffffffffffffffffffffffffffffffff1614610bf0576040517f08c379a0000000000000000000000000000000000000000000000000000000008152600401610be790612b7b565b60405180910390fd5b47905090565b81600073ffffffffffffffffffffffffffffffffffffffff166003600083815260200190815260200160002060010160009054906101000a900473ffffffffffffffffffffffffffffffffffffffff1673ffffffffffffffffffffffffffffffffffffffff161415610c9d576040517f08c379a0000000000000000000000000000000000000000000000000000000008152600401610c9490612b9b565b60405180910390fd5b82600260036000838152602001908152602001600020600201541480610cd85750600380600083815260200190815260200160002060020154145b610d17576040517f08c379a0000000000000000000000000000000000000000000000000000000008152600401610d0e90612b1b565b60405180910390fd5b610d218484611f4e565b60056000858152602001908152602001600020839080600181540180825580915050600190039060005260206000200160009091909190915055837f2855066e76771b6dced90a7b0015d1bd9a51283bfa652fbaf44214c1d545f8d084604051610d8b9190612c7b565b60405180910390a250505050565b6000610da3611f46565b73ffffffffffffffffffffffffffffffffffffffff16610dc161140f565b73ffffffffffffffffffffffffffffffffffffffff1614610e17576040517f08c379a0000000000000000000000000000000000000000000000000000000008152600401610e0e90612b7b565b60405180910390fd5b610e1f61140f565b73ffffffffffffffffffffffffffffffffffffffff1631905090565b60056020528160005260406000208181548110610e5757600080fd5b90600052602060002001600091509150505481565b610e74611f46565b73ffffffffffffffffffffffffffffffffffffffff16610e9261140f565b73ffffffffffffffffffffffffffffffffffffffff1614610ee8576040517f08c379a0000000000000000000000000000000000000000000000000000000008152600401610edf90612b7b565b60405180910390fd5b806007819055507f6bbc57480a46553fa4d156ce702beef5f3ad66303b0ed1a5d4cb44966c6584c381604051610f1e9190612c7b565b60405180910390a150565b80600073ffffffffffffffffffffffffffffffffffffffff166003600083815260200190815260200160002060010160009054906101000a900473ffffffffffffffffffffffffffffffffffffffff1673ffffffffffffffffffffffffffffffffffffffff161415610fd0576040517f08c379a0000000000000000000000000000000000000000000000000000000008152600401610fc790612b9b565b60405180910390fd5b813373ffffffffffffffffffffffffffffffffffffffff166003600083815260200190815260200160002060010160009054906101000a900473ffffffffffffffffffffffffffffffffffffffff1673ffffffffffffffffffffffffffffffffffffffff1614611075576040517f08c379a000000000000000000000000000000000000000000000000000000000815260040161106c90612bbb565b60405180910390fd5b8260016003600083815260200190815260200160002060020154146110cf576040517f08c379a00000000000000000000000000000000000000000000000000000000081526004016110c690612b3b565b60405180910390fd5b6003806000868152602001908152602001600020600201819055507e933d644a694d122358be17a9d7642ba5dfaae41af75919aab4d6e727915afa84600360405161111b929190612ccd565b60405180910390a150505050565b611131611f46565b73ffffffffffffffffffffffffffffffffffffffff1661114f61140f565b73ffffffffffffffffffffffffffffffffffffffff16146111a5576040517f08c379a000000000000000000000000000000000000000000000000000000000815260040161119c90612b7b565b60405180910390fd5b6111af6000612066565b565b600660205281600052604060002081815481106111cd57600080fd5b90600052602060002001600091509150505481565b80600073ffffffffffffffffffffffffffffffffffffffff166003600083815260200190815260200160002060010160009054906101000a900473ffffffffffffffffffffffffffffffffffffffff1673ffffffffffffffffffffffffffffffffffffffff161415611289576040517f08c379a000000000000000000000000000000000000000000000000000000000815260040161128090612b9b565b60405180910390fd5b813373ffffffffffffffffffffffffffffffffffffffff166003600083815260200190815260200160002060010160009054906101000a900473ffffffffffffffffffffffffffffffffffffffff1673ffffffffffffffffffffffffffffffffffffffff161461132e576040517f08c379a000000000000000000000000000000000000000000000000000000000815260040161132590612bbb565b60405180910390fd5b826002600360008381526020019081526020016000206002015414611388576040517f08c379a000000000000000000000000000000000000000000000000000000000815260040161137f90612bdb565b60405180910390fd5b6003806000868152602001908152602001600020600201819055507e933d644a694d122358be17a9d7642ba5dfaae41af75919aab4d6e727915afa8460036040516113d4929190612ccd565b60405180910390a150505050565b60006001600083815260200190815260200160002060000160009054906101000a900460ff169050919050565b6000600260009054906101000a900473ffffffffffffffffffffffffffffffffffffffff16905090565b600060016000838152602001908152602001600020600101549050919050565b80600073ffffffffffffffffffffffffffffffffffffffff166003600083815260200190815260200160002060010160009054906101000a900473ffffffffffffffffffffffffffffffffffffffff1673ffffffffffffffffffffffffffffffffffffffff161415611500576040517f08c379a00000000000000000000000000000000000000000000000000000000081526004016114f790612b9b565b60405180910390fd5b813373ffffffffffffffffffffffffffffffffffffffff166003600083815260200190815260200160002060010160009054906101000a900473ffffffffffffffffffffffffffffffffffffffff1673ffffffffffffffffffffffffffffffffffffffff16146115a5576040517f08c379a000000000000000000000000000000000000000000000000000000000815260040161159c90612bbb565b60405180910390fd5b82600380600083815260200190815260200160002060020154146115fe576040517f08c379a00000000000000000000000000000000000000000000000000000000081526004016115f590612abb565b60405180910390fd5b600260036000868152602001908152602001600020600201819055507e933d644a694d122358be17a9d7642ba5dfaae41af75919aab4d6e727915afa84600260405161164b929190612ccd565b60405180910390a150505050565b600060016000838152602001908152602001600020600201549050919050565b60036020528060005260406000206000915090508060000154908060010160009054906101000a900473ffffffffffffffffffffffffffffffffffffffff16908060020154905083565b600754341015611708576040517f08c379a00000000000000000000000000000000000000000000000000000000081526004016116ff90612adb565b60405180910390fd5b611715816014600061212c565b60405180606001604052808281526020013373ffffffffffffffffffffffffffffffffffffffff1681526020016001815250600360008381526020019081526020016000206000820151816000015560208201518160010160006101000a81548173ffffffffffffffffffffffffffffffffffffffff021916908373ffffffffffffffffffffffffffffffffffffffff16021790555060408201518160020155905050807f80eb16b9e18c05f6c250357758c0f8972e8b34d8f739057ce9d1ba145560ac0c60405160405180910390a250565b6000600754905090565b86600073ffffffffffffffffffffffffffffffffffffffff166003600083815260200190815260200160002060010160009054906101000a900473ffffffffffffffffffffffffffffffffffffffff1673ffffffffffffffffffffffffffffffffffffffff161415611899576040517f08c379a000000000000000000000000000000000000000000000000000000000815260040161189090612b9b565b60405180910390fd5b87600380600083815260200190815260200160002060020154146118f2576040517f08c379a00000000000000000000000000000000000000000000000000000000081526004016118e990612abb565b60405180910390fd5b88606460066000838152602001908152602001600020805490501061194c576040517f08c379a000000000000000000000000000000000000000000000000000000000815260040161194390612a5b565b60405180910390fd5b61197c8888888888600860009054906101000a900473ffffffffffffffffffffffffffffffffffffffff16611b99565b6119bb576040517f08c379a00000000000000000000000000000000000000000000000000000000081526004016119b290612afb565b60405180910390fd5b6000896040516020016119ce9190612981565b604051602081830303815290604052805190602001209050600060405180604001604052808c81526020016000815250905080600460008481526020019081526020016000206000820151816000015560208201518160010155905050611a3488611f18565b7f37e674dde5bcccda4110ec8abe4daaf45c9c378d8185aec68673556e042e1e9f8c8c8c604051611a6793929190612cf6565b60405180910390a1505050505050505050505050565b611a85611f46565b73ffffffffffffffffffffffffffffffffffffffff16611aa361140f565b73ffffffffffffffffffffffffffffffffffffffff1614611af9576040517f08c379a0000000000000000000000000000000000000000000000000000000008152600401611af090612b7b565b60405180910390fd5b600073ffffffffffffffffffffffffffffffffffffffff168173ffffffffffffffffffffffffffffffffffffffff161415611b69576040517f08c379a0000000000000000000000000000000000000000000000000000000008152600401611b6090612a7b565b60405180910390fd5b611b7281612066565b50565b60046020528060005260406000206000915090508060000154908060010154905082565b600080600086815260200190815260200160002060009054906101000a900460ff1615611bfb576040517f08c379a0000000000000000000000000000000000000000000000000000000008152600401611bf290612a3b565b60405180910390fd5b6000611c068861229a565b90508273ffffffffffffffffffffffffffffffffffffffff16635fe8c13b604051806040016040528087600060088110611c69577f4e487b7100000000000000000000000000000000000000000000000000000000600052603260045260246000fd5b6020020135815260200187600160088110611cad577f4e487b7100000000000000000000000000000000000000000000000000000000600052603260045260246000fd5b6020020135815250604051806040016040528060405180604001604052808a600260088110611d05577f4e487b7100000000000000000000000000000000000000000000000000000000600052603260045260246000fd5b602002013581526020018a600360088110611d49577f4e487b7100000000000000000000000000000000000000000000000000000000600052603260045260246000fd5b6020020135815250815260200160405180604001604052808a600460088110611d9b577f4e487b7100000000000000000000000000000000000000000000000000000000600052603260045260246000fd5b602002013581526020018a600560088110611ddf577f4e487b7100000000000000000000000000000000000000000000000000000000600052603260045260246000fd5b6020020135815250815250604051806040016040528089600660088110611e2f577f4e487b7100000000000000000000000000000000000000000000000000000000600052603260045260246000fd5b6020020135815260200189600760088110611e73577f4e487b7100000000000000000000000000000000000000000000000000000000600052603260045260246000fd5b602002013581525060405180608001604052808d81526020018c81526020018781526020018b8152506040518563ffffffff1660e01b8152600401611ebb94939291906129b7565b60206040518083038186803b158015611ed357600080fd5b505afa158015611ee7573d6000803e3d6000fd5b505050506040513d601f19601f82011682018060405250810190611f0b919061236c565b9150509695505050505050565b600160008083815260200190815260200160002060006101000a81548160ff02191690831515021790555050565b600033905090565b6000611f59836113e2565b60ff161415611f9d576040517f08c379a0000000000000000000000000000000000000000000000000000000008152600401611f9490612b5b565b60405180910390fd5b6001600083815260200190815260200160002073__$4c0484323457fe1a856f46a4759b553fe4$__63168703fa9091836040518363ffffffff1660e01b8152600401611fea929190612c1b565b60006040518083038186803b15801561200257600080fd5b505af4158015612016573d6000803e3d6000fd5b50505050600061202583611439565b9050827f03fd27265b7dd1f55558bedc22a58fa3b10afb1be776e614bd5a7ba7b94994068383604051612059929190612ccd565b60405180910390a2505050565b6000600260009054906101000a900473ffffffffffffffffffffffffffffffffffffffff16905081600260006101000a81548173ffffffffffffffffffffffffffffffffffffffff021916908373ffffffffffffffffffffffffffffffffffffffff1602179055508173ffffffffffffffffffffffffffffffffffffffff168173ffffffffffffffffffffffffffffffffffffffff167f8be0079c531659141344cd1fd0a4f28419497f9722a3daafe3b4186f6b6457e060405160405180910390a35050565b7f30644e72e131a029b85045b68181585d2833e84879b9709143e1f593f0000001831061218e576040517f08c379a000000000000000000000000000000000000000000000000000000000815260040161218590612bfb565b60405180910390fd5b6000612199846113e2565b60ff16146121dc576040517f08c379a00000000000000000000000000000000000000000000000000000000081526004016121d390612a9b565b60405180910390fd5b6001600084815260200190815260200160002073__$4c0484323457fe1a856f46a4759b553fe4$__63b4bdd117909184846040518463ffffffff1660e01b815260040161222b93929190612c44565b60006040518083038186803b15801561224357600080fd5b505af4158015612257573d6000803e3d6000fd5b50505050827fc3082aa494e9088c2c9f0fb62a0b6bd46e6699acb94cfba35be29b95a93f68c8838360405161228d929190612d7f565b60405180910390a2505050565b60006008826040516020016122af9190612966565b6040516020818303038152906040528051906020012060001c901c9050919050565b6000813590506122e0816133cf565b92915050565b6000819050826020600802820111156122fe57600080fd5b92915050565b600081519050612313816133e6565b92915050565b600081359050612328816133fd565b92915050565b60008135905061233d81613414565b92915050565b60006020828403121561235557600080fd5b6000612363848285016122d1565b91505092915050565b60006020828403121561237e57600080fd5b600061238c84828501612304565b91505092915050565b6000602082840312156123a757600080fd5b60006123b584828501612319565b91505092915050565b6000602082840312156123d057600080fd5b60006123de8482850161232e565b91505092915050565b600080604083850312156123fa57600080fd5b60006124088582860161232e565b92505060206124198582860161232e565b9150509250929050565b60008060008060008060006101c0888a03121561243f57600080fd5b600061244d8a828b0161232e565b975050602061245e8a828b0161232e565b965050604061246f8a828b01612319565b95505060606124808a828b0161232e565b94505060806124918a828b0161232e565b93505060a06124a28a828b0161232e565b92505060c06124b38a828b016122e6565b91505092959891949750929550565b60006124ce8383612558565b60408301905092915050565b60006124e68383612904565b60208301905092915050565b6124fb81612eda565b82525050565b61250a81612dd6565b6125148184612e36565b925061251f82612da8565b8060005b8381101561255057815161253787826124c2565b965061254283612e02565b925050600181019050612523565b505050505050565b61256181612de1565b61256b8184612e41565b925061257682612db2565b8060005b838110156125a757815161258e87826124da565b965061259983612e0f565b92505060018101905061257a565b505050505050565b6125b881612de1565b6125c28184612e4c565b92506125cd82612db2565b8060005b838110156125fe5781516125e587826124da565b96506125f083612e0f565b9250506001810190506125d1565b505050505050565b61260f81612dec565b6126198184612e57565b925061262482612dbc565b8060005b8381101561265557815161263c87826124da565b965061264783612e1c565b925050600181019050612628565b505050505050565b600061266882612df7565b6126728185612e62565b935061267d83612dc6565b8060005b838110156126ae57815161269588826124da565b97506126a083612e29565b925050600181019050612681565b5085935050505092915050565b6126c481612ef8565b82525050565b6126db6126d682612ef8565b612f5d565b82525050565b6126ea81612f39565b82525050565b60006126fd603683612e73565b915061270882612fa0565b604082019050919050565b6000612720602383612e73565b915061272b82612fef565b604082019050919050565b6000612743602683612e73565b915061274e8261303e565b604082019050919050565b6000612766602583612e73565b91506127718261308d565b604082019050919050565b6000612789602183612e73565b9150612794826130dc565b604082019050919050565b60006127ac602e83612e73565b91506127b78261312b565b604082019050919050565b60006127cf601b83612e73565b91506127da8261317a565b602082019050919050565b60006127f2602b83612e73565b91506127fd826131a3565b604082019050919050565b6000612815602983612e73565b9150612820826131f2565b604082019050919050565b6000612838602583612e73565b915061284382613241565b604082019050919050565b600061285b602083612e73565b915061286682613290565b602082019050919050565b600061287e601a83612e73565b9150612889826132b9565b602082019050919050565b60006128a1602983612e73565b91506128ac826132e2565b604082019050919050565b60006128c4602183612e73565b91506128cf82613331565b604082019050919050565b60006128e7603683612e73565b91506128f282613380565b604082019050919050565b8082525050565b61290d81612f22565b82525050565b61291c81612f22565b82525050565b61292b81612f22565b82525050565b61294261293d82612f22565b612f67565b82525050565b61295181612f2c565b82525050565b61296081612f2c565b82525050565b600061297282846126ca565b60208201915081905092915050565b600061298d8284612931565b60208201915081905092915050565b60006020820190506129b160008301846124f2565b92915050565b6000610180820190506129cd60008301876125af565b6129da6040830186612501565b6129e760c08301856125af565b6129f5610100830184612606565b95945050505050565b60006020820190508181036000830152612a18818461265d565b905092915050565b6000602082019050612a3560008301846126e1565b92915050565b60006020820190508181036000830152612a54816126f0565b9050919050565b60006020820190508181036000830152612a7481612713565b9050919050565b60006020820190508181036000830152612a9481612736565b9050919050565b60006020820190508181036000830152612ab481612759565b9050919050565b60006020820190508181036000830152612ad48161277c565b9050919050565b60006020820190508181036000830152612af48161279f565b9050919050565b60006020820190508181036000830152612b14816127c2565b9050919050565b60006020820190508181036000830152612b34816127e5565b9050919050565b60006020820190508181036000830152612b5481612808565b9050919050565b60006020820190508181036000830152612b748161282b565b9050919050565b60006020820190508181036000830152612b948161284e565b9050919050565b60006020820190508181036000830152612bb481612871565b9050919050565b60006020820190508181036000830152612bd481612894565b9050919050565b60006020820190508181036000830152612bf4816128b7565b9050919050565b60006020820190508181036000830152612c14816128da565b9050919050565b6000604082019050612c3060008301856128fd565b612c3d6020830184612922565b9392505050565b6000606082019050612c5960008301866128fd565b612c666020830185612957565b612c736040830184612922565b949350505050565b6000602082019050612c906000830184612913565b92915050565b6000606082019050612cab6000830186612913565b612cb860208301856124f2565b612cc56040830184612913565b949350505050565b6000604082019050612ce26000830185612913565b612cef6020830184612913565b9392505050565b6000606082019050612d0b6000830186612913565b612d186020830185612913565b612d2560408301846126bb565b949350505050565b6000606082019050612d426000830186612913565b612d4f6020830185612913565b612d5c6040830184612913565b949350505050565b6000602082019050612d796000830184612948565b92915050565b6000604082019050612d946000830185612948565b612da16020830184612913565b9392505050565b6000819050919050565b6000819050919050565b6000819050919050565b6000819050602082019050919050565b600060029050919050565b600060029050919050565b600060049050919050565b600081519050919050565b6000602082019050919050565b6000602082019050919050565b6000602082019050919050565b6000602082019050919050565b600081905092915050565b600081905092915050565b600081905092915050565b600081905092915050565b600082825260208201905092915050565b600082825260208201905092915050565b6000612e8f82612f22565b9150612e9a83612f22565b9250827fffffffffffffffffffffffffffffffffffffffffffffffffffffffffffffffff03821115612ecf57612ece612f71565b5b828201905092915050565b6000612ee582612f02565b9050919050565b60008115159050919050565b6000819050919050565b600073ffffffffffffffffffffffffffffffffffffffff82169050919050565b6000819050919050565b600060ff82169050919050565b6000612f4482612f4b565b9050919050565b6000612f5682612f02565b9050919050565b6000819050919050565b6000819050919050565b7f4e487b7100000000000000000000000000000000000000000000000000000000600052601160045260246000fd5b7f53656d6170686f7265436f72653a20796f752063616e6e6f742075736520746860008201527f652073616d65206e756c6c696669657220747769636500000000000000000000602082015250565b7f4d6178696d756d206e756d626572206f66207175657374696f6e7320706f737460008201527f65642e0000000000000000000000000000000000000000000000000000000000602082015250565b7f4f776e61626c653a206e6577206f776e657220697320746865207a65726f206160008201527f6464726573730000000000000000000000000000000000000000000000000000602082015250565b7f53656d6170686f726547726f7570733a2067726f757020616c7265616479206560008201527f7869737473000000000000000000000000000000000000000000000000000000602082015250565b7f414d412073657373696f6e2773207374617465206973206e6f7420416374697660008201527f6500000000000000000000000000000000000000000000000000000000000000602082015250565b7f496e73756666696369656e742066756e647320666f72206372656174696e672060008201527f616e20414d412073657373696f6e000000000000000000000000000000000000602082015250565b7f414d413a207468652070726f6f66206973206e6f742076616c69640000000000600082015250565b7f414d412073657373696f6e2773207374617465206973206e6f7420506175736560008201527f64206f7220416374697665000000000000000000000000000000000000000000602082015250565b7f414d412073657373696f6e27732073746174652073686f756c64206265204e6f60008201527f7420537461727465640000000000000000000000000000000000000000000000602082015250565b7f53656d6170686f726547726f7570733a2067726f757020646f6573206e6f742060008201527f6578697374000000000000000000000000000000000000000000000000000000602082015250565b7f4f776e61626c653a2063616c6c6572206973206e6f7420746865206f776e6572600082015250565b7f414d412073657373696f6e20646f6573206e6f74206578697374000000000000600082015250565b7f596f7520617265206e6f7420746865206f776e6572206f66207468697320414d60008201527f412073657373696f6e0000000000000000000000000000000000000000000000602082015250565b7f414d412073657373696f6e2773207374617465206973206e6f7420506175736560008201527f6400000000000000000000000000000000000000000000000000000000000000602082015250565b7f53656d6170686f726547726f7570733a2067726f7570206964206d757374206260008201527f65203c20534e41524b5f5343414c41525f4649454c4400000000000000000000602082015250565b6133d881612eda565b81146133e357600080fd5b50565b6133ef81612eec565b81146133fa57600080fd5b50565b61340681612ef8565b811461341157600080fd5b50565b61341d81612f22565b811461342857600080fd5b5056fea26469706673582212204d00fcaca0d63e09e4fd491120470367b7133b1042751e215b0ddca12800983164736f6c63430008040033",
  "linkReferences": {
    "@zk-kit/incremental-merkle-tree.sol/contracts/IncrementalBinaryTree.sol": {
      "IncrementalBinaryTree": [
        {
          "length": 20,
          "start": 8651
        },
        {
          "length": 20,
          "start": 9226
        }
      ]
    }
  },
  "deployedLinkReferences": {
    "@zk-kit/incremental-merkle-tree.sol/contracts/IncrementalBinaryTree.sol": {
      "IncrementalBinaryTree": [
        {
          "length": 20,
          "start": 8114
        },
        {
          "length": 20,
          "start": 8689
        }
      ]
    }
  }
}